{
  "_format": "hh-sol-artifact-1",
  "contractName": "GreenCredit",
  "sourceName": "contracts/GreenCredit.sol",
  "abi": [
    {
      "inputs": [
        {
          "internalType": "address",
          "name": "defaultAdmin",
          "type": "address"
        }
      ],
      "stateMutability": "nonpayable",
      "type": "constructor"
    },
    {
      "inputs": [],
      "name": "AccessControlBadConfirmation",
      "type": "error"
    },
    {
      "inputs": [
        {
          "internalType": "address",
          "name": "account",
          "type": "address"
        },
        {
          "internalType": "bytes32",
          "name": "neededRole",
          "type": "bytes32"
        }
      ],
      "name": "AccessControlUnauthorizedAccount",
      "type": "error"
    },
    {
      "inputs": [
        {
          "internalType": "bytes32",
          "name": "claimId",
          "type": "bytes32"
        }
      ],
      "name": "ClaimAlreadyExists",
      "type": "error"
    },
    {
      "inputs": [
        {
          "internalType": "bytes32",
          "name": "claimId",
          "type": "bytes32"
        }
      ],
      "name": "ClaimNotFound",
      "type": "error"
    },
    {
      "inputs": [],
      "name": "ECDSAInvalidSignature",
      "type": "error"
    },
    {
      "inputs": [
        {
          "internalType": "uint256",
          "name": "length",
          "type": "uint256"
        }
      ],
      "name": "ECDSAInvalidSignatureLength",
      "type": "error"
    },
    {
      "inputs": [
        {
          "internalType": "bytes32",
          "name": "s",
          "type": "bytes32"
        }
      ],
      "name": "ECDSAInvalidSignatureS",
      "type": "error"
    },
    {
      "inputs": [
        {
          "internalType": "address",
          "name": "spender",
          "type": "address"
        },
        {
          "internalType": "uint256",
          "name": "allowance",
          "type": "uint256"
        },
        {
          "internalType": "uint256",
          "name": "needed",
          "type": "uint256"
        }
      ],
      "name": "ERC20InsufficientAllowance",
      "type": "error"
    },
    {
      "inputs": [
        {
          "internalType": "address",
          "name": "sender",
          "type": "address"
        },
        {
          "internalType": "uint256",
          "name": "balance",
          "type": "uint256"
        },
        {
          "internalType": "uint256",
          "name": "needed",
          "type": "uint256"
        }
      ],
      "name": "ERC20InsufficientBalance",
      "type": "error"
    },
    {
      "inputs": [
        {
          "internalType": "address",
          "name": "approver",
          "type": "address"
        }
      ],
      "name": "ERC20InvalidApprover",
      "type": "error"
    },
    {
      "inputs": [
        {
          "internalType": "address",
          "name": "receiver",
          "type": "address"
        }
      ],
      "name": "ERC20InvalidReceiver",
      "type": "error"
    },
    {
      "inputs": [
        {
          "internalType": "address",
          "name": "sender",
          "type": "address"
        }
      ],
      "name": "ERC20InvalidSender",
      "type": "error"
    },
    {
      "inputs": [
        {
          "internalType": "address",
          "name": "spender",
          "type": "address"
        }
      ],
      "name": "ERC20InvalidSpender",
      "type": "error"
    },
    {
      "inputs": [
        {
          "internalType": "uint256",
          "name": "deadline",
          "type": "uint256"
        }
      ],
      "name": "ERC2612ExpiredSignature",
      "type": "error"
    },
    {
      "inputs": [
        {
          "internalType": "address",
          "name": "signer",
          "type": "address"
        },
        {
          "internalType": "address",
          "name": "owner",
          "type": "address"
        }
      ],
      "name": "ERC2612InvalidSigner",
      "type": "error"
    },
    {
      "inputs": [],
      "name": "EnforcedPause",
      "type": "error"
    },
    {
      "inputs": [
        {
          "internalType": "bytes32",
          "name": "eventId",
          "type": "bytes32"
        }
      ],
      "name": "EventAlreadyExists",
      "type": "error"
    },
    {
      "inputs": [
        {
          "internalType": "bytes32",
          "name": "eventId",
          "type": "bytes32"
        }
      ],
      "name": "EventNotFound",
      "type": "error"
    },
    {
      "inputs": [],
      "name": "ExpectedPause",
      "type": "error"
    },
    {
      "inputs": [
        {
          "internalType": "uint256",
          "name": "requested",
          "type": "uint256"
        },
        {
          "internalType": "uint256",
          "name": "available",
          "type": "uint256"
        }
      ],
      "name": "InsufficientBalance",
      "type": "error"
    },
    {
      "inputs": [
        {
          "internalType": "address",
          "name": "account",
          "type": "address"
        },
        {
          "internalType": "uint256",
          "name": "currentNonce",
          "type": "uint256"
        }
      ],
      "name": "InvalidAccountNonce",
      "type": "error"
    },
    {
      "inputs": [],
      "name": "InvalidShortString",
      "type": "error"
    },
    {
      "inputs": [],
      "name": "ReentrancyGuardReentrantCall",
      "type": "error"
    },
    {
      "inputs": [
        {
          "internalType": "string",
          "name": "str",
          "type": "string"
        }
      ],
      "name": "StringTooLong",
      "type": "error"
    },
    {
      "inputs": [
        {
          "internalType": "address",
          "name": "minter",
          "type": "address"
        },
        {
          "internalType": "uint256",
          "name": "year",
          "type": "uint256"
        },
        {
          "internalType": "uint256",
          "name": "attempted",
          "type": "uint256"
        },
        {
          "internalType": "uint256",
          "name": "remaining",
          "type": "uint256"
        }
      ],
      "name": "YearlyCapExceeded",
      "type": "error"
    },
    {
      "inputs": [],
      "name": "ZeroBeneficiary",
      "type": "error"
    },
    {
      "inputs": [],
      "name": "ZeroReduction",
      "type": "error"
    },
    {
      "anonymous": false,
      "inputs": [
        {
          "indexed": true,
          "internalType": "address",
          "name": "owner",
          "type": "address"
        },
        {
          "indexed": true,
          "internalType": "address",
          "name": "spender",
          "type": "address"
        },
        {
          "indexed": false,
          "internalType": "uint256",
          "name": "value",
          "type": "uint256"
        }
      ],
      "name": "Approval",
      "type": "event"
    },
    {
      "anonymous": false,
      "inputs": [
        {
          "indexed": true,
          "internalType": "bytes32",
          "name": "eventId",
          "type": "bytes32"
        },
        {
          "indexed": true,
          "internalType": "address",
          "name": "beneficiary",
          "type": "address"
        },
        {
          "indexed": true,
          "internalType": "address",
          "name": "verifier",
          "type": "address"
        },
        {
          "indexed": false,
          "internalType": "uint256",
          "name": "reductionKg",
          "type": "uint256"
        },
        {
          "indexed": false,
          "internalType": "uint256",
          "name": "creditsIssued",
          "type": "uint256"
        },
        {
          "indexed": false,
          "internalType": "string",
          "name": "metadataURI",
          "type": "string"
        }
      ],
      "name": "CarbonReductionMinted",
      "type": "event"
    },
    {
      "anonymous": false,
      "inputs": [
        {
          "indexed": true,
          "internalType": "bytes32",
          "name": "claimId",
          "type": "bytes32"
        },
        {
          "indexed": true,
          "internalType": "address",
          "name": "claimant",
          "type": "address"
        },
        {
          "indexed": false,
          "internalType": "uint256",
          "name": "reductionKg",
          "type": "uint256"
        }
      ],
      "name": "ClaimSubmitted",
      "type": "event"
    },
    {
      "anonymous": false,
      "inputs": [
        {
          "indexed": true,
          "internalType": "bytes32",
          "name": "claimId",
          "type": "bytes32"
        },
        {
          "indexed": true,
          "internalType": "address",
          "name": "verifier",
          "type": "address"
        },
        {
          "indexed": false,
          "internalType": "bool",
          "name": "approved",
          "type": "bool"
        }
      ],
      "name": "ClaimVerified",
      "type": "event"
    },
    {
      "anonymous": false,
      "inputs": [
        {
          "indexed": true,
          "internalType": "bytes32",
          "name": "eventId",
          "type": "bytes32"
        },
        {
          "indexed": true,
          "internalType": "address",
          "name": "retirer",
          "type": "address"
        },
        {
          "indexed": false,
          "internalType": "uint256",
          "name": "amount",
          "type": "uint256"
        }
      ],
      "name": "CreditsRetired",
      "type": "event"
    },
    {
      "anonymous": false,
      "inputs": [],
      "name": "EIP712DomainChanged",
      "type": "event"
    },
    {
      "anonymous": false,
      "inputs": [
        {
          "indexed": false,
          "internalType": "address",
          "name": "account",
          "type": "address"
        }
      ],
      "name": "Paused",
      "type": "event"
    },
    {
      "anonymous": false,
      "inputs": [
        {
          "indexed": true,
          "internalType": "bytes32",
          "name": "role",
          "type": "bytes32"
        },
        {
          "indexed": true,
          "internalType": "bytes32",
          "name": "previousAdminRole",
          "type": "bytes32"
        },
        {
          "indexed": true,
          "internalType": "bytes32",
          "name": "newAdminRole",
          "type": "bytes32"
        }
      ],
      "name": "RoleAdminChanged",
      "type": "event"
    },
    {
      "anonymous": false,
      "inputs": [
        {
          "indexed": true,
          "internalType": "bytes32",
          "name": "role",
          "type": "bytes32"
        },
        {
          "indexed": true,
          "internalType": "address",
          "name": "account",
          "type": "address"
        },
        {
          "indexed": true,
          "internalType": "address",
          "name": "sender",
          "type": "address"
        }
      ],
      "name": "RoleGranted",
      "type": "event"
    },
    {
      "anonymous": false,
      "inputs": [
        {
          "indexed": true,
          "internalType": "bytes32",
          "name": "role",
          "type": "bytes32"
        },
        {
          "indexed": true,
          "internalType": "address",
          "name": "account",
          "type": "address"
        },
        {
          "indexed": true,
          "internalType": "address",
          "name": "sender",
          "type": "address"
        }
      ],
      "name": "RoleRevoked",
      "type": "event"
    },
    {
      "anonymous": false,
      "inputs": [
        {
          "indexed": true,
          "internalType": "address",
          "name": "from",
          "type": "address"
        },
        {
          "indexed": true,
          "internalType": "address",
          "name": "to",
          "type": "address"
        },
        {
          "indexed": false,
          "internalType": "uint256",
          "name": "value",
          "type": "uint256"
        }
      ],
      "name": "Transfer",
      "type": "event"
    },
    {
      "anonymous": false,
      "inputs": [
        {
          "indexed": false,
          "internalType": "address",
          "name": "account",
          "type": "address"
        }
      ],
      "name": "Unpaused",
      "type": "event"
    },
    {
      "anonymous": false,
      "inputs": [
        {
          "indexed": false,
          "internalType": "uint256",
          "name": "oldCap",
          "type": "uint256"
        },
        {
          "indexed": false,
          "internalType": "uint256",
          "name": "newCap",
          "type": "uint256"
        }
      ],
      "name": "YearlyMintCapUpdated",
      "type": "event"
    },
    {
      "inputs": [],
      "name": "DEFAULT_ADMIN_ROLE",
      "outputs": [
        {
          "internalType": "bytes32",
          "name": "",
          "type": "bytes32"
        }
      ],
      "stateMutability": "view",
      "type": "function"
    },
    {
      "inputs": [],
      "name": "DOMAIN_SEPARATOR",
      "outputs": [
        {
          "internalType": "bytes32",
          "name": "",
          "type": "bytes32"
        }
      ],
      "stateMutability": "view",
      "type": "function"
    },
    {
      "inputs": [],
      "name": "MINTER_ROLE",
      "outputs": [
        {
          "internalType": "bytes32",
          "name": "",
          "type": "bytes32"
        }
      ],
      "stateMutability": "view",
      "type": "function"
    },
    {
      "inputs": [],
      "name": "PAUSER_ROLE",
      "outputs": [
        {
          "internalType": "bytes32",
          "name": "",
          "type": "bytes32"
        }
      ],
      "stateMutability": "view",
      "type": "function"
    },
    {
      "inputs": [],
      "name": "VERIFIER_ROLE",
      "outputs": [
        {
          "internalType": "bytes32",
          "name": "",
          "type": "bytes32"
        }
      ],
      "stateMutability": "view",
      "type": "function"
    },
    {
      "inputs": [
        {
          "internalType": "address",
          "name": "owner",
          "type": "address"
        },
        {
          "internalType": "address",
          "name": "spender",
          "type": "address"
        }
      ],
      "name": "allowance",
      "outputs": [
        {
          "internalType": "uint256",
          "name": "",
          "type": "uint256"
        }
      ],
      "stateMutability": "view",
      "type": "function"
    },
    {
      "inputs": [
        {
          "internalType": "address",
          "name": "spender",
          "type": "address"
        },
        {
          "internalType": "uint256",
          "name": "value",
          "type": "uint256"
        }
      ],
      "name": "approve",
      "outputs": [
        {
          "internalType": "bool",
          "name": "",
          "type": "bool"
        }
      ],
      "stateMutability": "nonpayable",
      "type": "function"
    },
    {
      "inputs": [
        {
          "internalType": "address",
          "name": "account",
          "type": "address"
        }
      ],
      "name": "balanceOf",
      "outputs": [
        {
          "internalType": "uint256",
          "name": "",
          "type": "uint256"
        }
      ],
      "stateMutability": "view",
      "type": "function"
    },
    {
      "inputs": [
        {
          "internalType": "uint256",
          "name": "value",
          "type": "uint256"
        }
      ],
      "name": "burn",
      "outputs": [],
      "stateMutability": "nonpayable",
      "type": "function"
    },
    {
      "inputs": [
        {
          "internalType": "address",
          "name": "account",
          "type": "address"
        },
        {
          "internalType": "uint256",
          "name": "value",
          "type": "uint256"
        }
      ],
      "name": "burnFrom",
      "outputs": [],
      "stateMutability": "nonpayable",
      "type": "function"
    },
    {
      "inputs": [],
      "name": "decimals",
      "outputs": [
        {
          "internalType": "uint8",
          "name": "",
          "type": "uint8"
        }
      ],
      "stateMutability": "view",
      "type": "function"
    },
    {
      "inputs": [],
      "name": "eip712Domain",
      "outputs": [
        {
          "internalType": "bytes1",
          "name": "fields",
          "type": "bytes1"
        },
        {
          "internalType": "string",
          "name": "name",
          "type": "string"
        },
        {
          "internalType": "string",
          "name": "version",
          "type": "string"
        },
        {
          "internalType": "uint256",
          "name": "chainId",
          "type": "uint256"
        },
        {
          "internalType": "address",
          "name": "verifyingContract",
          "type": "address"
        },
        {
          "internalType": "bytes32",
          "name": "salt",
          "type": "bytes32"
        },
        {
          "internalType": "uint256[]",
          "name": "extensions",
          "type": "uint256[]"
        }
      ],
      "stateMutability": "view",
      "type": "function"
    },
    {
      "inputs": [
        {
          "internalType": "uint256",
          "name": "",
          "type": "uint256"
        }
      ],
      "name": "eventIds",
      "outputs": [
        {
          "internalType": "bytes32",
          "name": "",
          "type": "bytes32"
        }
      ],
      "stateMutability": "view",
      "type": "function"
    },
    {
      "inputs": [
        {
          "internalType": "bytes32",
          "name": "role",
          "type": "bytes32"
        }
      ],
      "name": "getRoleAdmin",
      "outputs": [
        {
          "internalType": "bytes32",
          "name": "",
          "type": "bytes32"
        }
      ],
      "stateMutability": "view",
      "type": "function"
    },
    {
      "inputs": [
        {
          "internalType": "bytes32",
          "name": "role",
          "type": "bytes32"
        },
        {
          "internalType": "address",
          "name": "account",
          "type": "address"
        }
      ],
      "name": "grantRole",
      "outputs": [],
      "stateMutability": "nonpayable",
      "type": "function"
    },
    {
      "inputs": [
        {
          "internalType": "bytes32",
          "name": "role",
          "type": "bytes32"
        },
        {
          "internalType": "address",
          "name": "account",
          "type": "address"
        }
      ],
      "name": "hasRole",
      "outputs": [
        {
          "internalType": "bool",
          "name": "",
          "type": "bool"
        }
      ],
      "stateMutability": "view",
      "type": "function"
    },
    {
      "inputs": [
        {
          "internalType": "bytes32",
          "name": "eventId",
          "type": "bytes32"
        },
        {
          "internalType": "address",
          "name": "beneficiary",
          "type": "address"
        },
        {
          "internalType": "uint256",
          "name": "reductionKg",
          "type": "uint256"
        },
        {
          "internalType": "string",
          "name": "metadataURI",
          "type": "string"
        }
      ],
      "name": "mintForReduction",
      "outputs": [],
      "stateMutability": "nonpayable",
      "type": "function"
    },
    {
      "inputs": [],
      "name": "name",
      "outputs": [
        {
          "internalType": "string",
          "name": "",
          "type": "string"
        }
      ],
      "stateMutability": "view",
      "type": "function"
    },
    {
      "inputs": [
        {
          "internalType": "address",
          "name": "owner",
          "type": "address"
        }
      ],
      "name": "nonces",
      "outputs": [
        {
          "internalType": "uint256",
          "name": "",
          "type": "uint256"
        }
      ],
      "stateMutability": "view",
      "type": "function"
    },
    {
      "inputs": [],
      "name": "pause",
      "outputs": [],
      "stateMutability": "nonpayable",
      "type": "function"
    },
    {
      "inputs": [],
      "name": "paused",
      "outputs": [
        {
          "internalType": "bool",
          "name": "",
          "type": "bool"
        }
      ],
      "stateMutability": "view",
      "type": "function"
    },
    {
      "inputs": [
        {
          "internalType": "bytes32",
          "name": "",
          "type": "bytes32"
        }
      ],
      "name": "pendingClaims",
      "outputs": [
        {
          "internalType": "address",
          "name": "claimant",
          "type": "address"
        },
        {
          "internalType": "uint256",
          "name": "reductionKg",
          "type": "uint256"
        },
        {
          "internalType": "string",
          "name": "metadataURI",
          "type": "string"
        },
        {
          "internalType": "uint256",
          "name": "submittedAt",
          "type": "uint256"
        },
        {
          "internalType": "bool",
          "name": "exists",
          "type": "bool"
        }
      ],
      "stateMutability": "view",
      "type": "function"
    },
    {
      "inputs": [
        {
          "internalType": "address",
          "name": "owner",
          "type": "address"
        },
        {
          "internalType": "address",
          "name": "spender",
          "type": "address"
        },
        {
          "internalType": "uint256",
          "name": "value",
          "type": "uint256"
        },
        {
          "internalType": "uint256",
          "name": "deadline",
          "type": "uint256"
        },
        {
          "internalType": "uint8",
          "name": "v",
          "type": "uint8"
        },
        {
          "internalType": "bytes32",
          "name": "r",
          "type": "bytes32"
        },
        {
          "internalType": "bytes32",
          "name": "s",
          "type": "bytes32"
        }
      ],
      "name": "permit",
      "outputs": [],
      "stateMutability": "nonpayable",
      "type": "function"
    },
    {
      "inputs": [
        {
          "internalType": "bytes32",
          "name": "",
          "type": "bytes32"
        }
      ],
      "name": "reductionEvents",
      "outputs": [
        {
          "internalType": "bytes32",
          "name": "eventId",
          "type": "bytes32"
        },
        {
          "internalType": "address",
          "name": "verifier",
          "type": "address"
        },
        {
          "internalType": "address",
          "name": "beneficiary",
          "type": "address"
        },
        {
          "internalType": "uint256",
          "name": "reductionKg",
          "type": "uint256"
        },
        {
          "internalType": "uint256",
          "name": "creditsIssued",
          "type": "uint256"
        },
        {
          "internalType": "string",
          "name": "metadataURI",
          "type": "string"
        },
        {
          "internalType": "uint256",
          "name": "timestamp",
          "type": "uint256"
        },
        {
          "internalType": "bool",
          "name": "retired",
          "type": "bool"
        }
      ],
      "stateMutability": "view",
      "type": "function"
    },
    {
      "inputs": [
        {
          "internalType": "address",
          "name": "minter",
          "type": "address"
        }
      ],
      "name": "remainingYearlyQuota",
      "outputs": [
        {
          "internalType": "uint256",
          "name": "",
          "type": "uint256"
        }
      ],
      "stateMutability": "view",
      "type": "function"
    },
    {
      "inputs": [
        {
          "internalType": "bytes32",
          "name": "role",
          "type": "bytes32"
        },
        {
          "internalType": "address",
          "name": "callerConfirmation",
          "type": "address"
        }
      ],
      "name": "renounceRole",
      "outputs": [],
      "stateMutability": "nonpayable",
      "type": "function"
    },
    {
      "inputs": [
        {
          "internalType": "uint256",
          "name": "amount",
          "type": "uint256"
        }
      ],
      "name": "retireCredits",
      "outputs": [],
      "stateMutability": "nonpayable",
      "type": "function"
    },
    {
      "inputs": [
        {
          "internalType": "bytes32",
          "name": "role",
          "type": "bytes32"
        },
        {
          "internalType": "address",
          "name": "account",
          "type": "address"
        }
      ],
      "name": "revokeRole",
      "outputs": [],
      "stateMutability": "nonpayable",
      "type": "function"
    },
    {
      "inputs": [
        {
          "internalType": "uint256",
          "name": "newCap",
          "type": "uint256"
        }
      ],
      "name": "setYearlyMintCap",
      "outputs": [],
      "stateMutability": "nonpayable",
      "type": "function"
    },
    {
      "inputs": [
        {
          "internalType": "bytes32",
          "name": "claimId",
          "type": "bytes32"
        },
        {
          "internalType": "uint256",
          "name": "reductionKg",
          "type": "uint256"
        },
        {
          "internalType": "string",
          "name": "metadataURI",
          "type": "string"
        }
      ],
      "name": "submitClaim",
      "outputs": [],
      "stateMutability": "nonpayable",
      "type": "function"
    },
    {
      "inputs": [
        {
          "internalType": "bytes4",
          "name": "interfaceId",
          "type": "bytes4"
        }
      ],
      "name": "supportsInterface",
      "outputs": [
        {
          "internalType": "bool",
          "name": "",
          "type": "bool"
        }
      ],
      "stateMutability": "view",
      "type": "function"
    },
    {
      "inputs": [],
      "name": "symbol",
      "outputs": [
        {
          "internalType": "string",
          "name": "",
          "type": "string"
        }
      ],
      "stateMutability": "view",
      "type": "function"
    },
    {
      "inputs": [],
      "name": "totalEvents",
      "outputs": [
        {
          "internalType": "uint256",
          "name": "",
          "type": "uint256"
        }
      ],
      "stateMutability": "view",
      "type": "function"
    },
    {
      "inputs": [],
      "name": "totalReductionKg",
      "outputs": [
        {
          "internalType": "uint256",
          "name": "",
          "type": "uint256"
        }
      ],
      "stateMutability": "view",
      "type": "function"
    },
    {
      "inputs": [],
      "name": "totalRetiredCredits",
      "outputs": [
        {
          "internalType": "uint256",
          "name": "",
          "type": "uint256"
        }
      ],
      "stateMutability": "view",
      "type": "function"
    },
    {
      "inputs": [],
      "name": "totalSupply",
      "outputs": [
        {
          "internalType": "uint256",
          "name": "",
          "type": "uint256"
        }
      ],
      "stateMutability": "view",
      "type": "function"
    },
    {
      "inputs": [
        {
          "internalType": "address",
          "name": "to",
          "type": "address"
        },
        {
          "internalType": "uint256",
          "name": "value",
          "type": "uint256"
        }
      ],
      "name": "transfer",
      "outputs": [
        {
          "internalType": "bool",
          "name": "",
          "type": "bool"
        }
      ],
      "stateMutability": "nonpayable",
      "type": "function"
    },
    {
      "inputs": [
        {
          "internalType": "address",
          "name": "from",
          "type": "address"
        },
        {
          "internalType": "address",
          "name": "to",
          "type": "address"
        },
        {
          "internalType": "uint256",
          "name": "value",
          "type": "uint256"
        }
      ],
      "name": "transferFrom",
      "outputs": [
        {
          "internalType": "bool",
          "name": "",
          "type": "bool"
        }
      ],
      "stateMutability": "nonpayable",
      "type": "function"
    },
    {
      "inputs": [],
      "name": "unpause",
      "outputs": [],
      "stateMutability": "nonpayable",
      "type": "function"
    },
    {
      "inputs": [
        {
          "internalType": "bytes32",
          "name": "claimId",
          "type": "bytes32"
        },
        {
          "internalType": "bool",
          "name": "approved",
          "type": "bool"
        }
      ],
      "name": "verifyClaim",
      "outputs": [],
      "stateMutability": "nonpayable",
      "type": "function"
    },
    {
      "inputs": [],
      "name": "yearlyMintCap",
      "outputs": [
        {
          "internalType": "uint256",
          "name": "",
          "type": "uint256"
        }
      ],
      "stateMutability": "view",
      "type": "function"
    },
    {
      "inputs": [
        {
          "internalType": "address",
          "name": "",
          "type": "address"
        },
        {
          "internalType": "uint256",
          "name": "",
          "type": "uint256"
        }
      ],
      "name": "yearlyMinted",
      "outputs": [
        {
          "internalType": "uint256",
          "name": "",
          "type": "uint256"
        }
      ],
      "stateMutability": "view",
      "type": "function"
    }
  ],
  "bytecode": "0x61016060405234801562000011575f80fd5b5060405162002d0338038062002d0383398101604081905262000034916200038c565b6040518060400160405280600b81526020016a11dc99595b90dc99591a5d60aa1b81525080604051806040016040528060018152602001603160f81b8152506040518060400160405280600b81526020016a11dc99595b90dc99591a5d60aa1b8152506040518060400160405280600381526020016223a1a960e91b8152508160039081620000c4919062000459565b506004620000d3828262000459565b50620000e5915083905060056200025a565b61012052620000f68160066200025a565b61014052815160208084019190912060e052815190820120610100524660a0526200018360e05161010051604080517f8b73c3c69bb8fe3d512ecc4cf759cc79239f7b179b0ffacaa9a75d522b39400f60208201529081019290925260608201524660808201523060a08201525f9060c00160405160208183030381529060405280519060200120905090565b60805250503060c0525060017f9b779b17422d0df92223018b32b4d1fa46e071723d6817e2486d003becc55f0055620001bd5f8262000292565b50620001ea7f9f2df0fed2c77648de5860a4cc508cd0818c85b8b8a1ab4ceeef8d981c8956a68262000292565b50620002177f0ce23c3e399818cfee81a7ab0880f714e53d7672b08df0fa62f2843416e1ea098262000292565b50620002447f65d7a28e3265b37a6474929f336521b332c1681b933f6cb9f3376673440d862a8262000292565b505069d3c21bcecceda1000000600e5562000597565b5f6020835110156200027957620002718362000341565b90506200028c565b8162000286848262000459565b5060ff90505b92915050565b5f8281526008602090815260408083206001600160a01b038516845290915281205460ff1662000339575f8381526008602090815260408083206001600160a01b03861684529091529020805460ff19166001179055620002f03390565b6001600160a01b0316826001600160a01b0316847f2f8788117e7eff1d82e926ec794901d17c78024a50270940304540a733656f0d60405160405180910390a45060016200028c565b505f6200028c565b5f80829050601f8151111562000377578260405163305a27a960e01b81526004016200036e919062000525565b60405180910390fd5b8051620003848262000573565b179392505050565b5f602082840312156200039d575f80fd5b81516001600160a01b0381168114620003b4575f80fd5b9392505050565b634e487b7160e01b5f52604160045260245ffd5b600181811c90821680620003e457607f821691505b6020821081036200040357634e487b7160e01b5f52602260045260245ffd5b50919050565b601f8211156200045457805f5260205f20601f840160051c81016020851015620004305750805b601f840160051c820191505b8181101562000451575f81556001016200043c565b50505b505050565b81516001600160401b03811115620004755762000475620003bb565b6200048d81620004868454620003cf565b8462000409565b602080601f831160018114620004c3575f8415620004ab5750858301515b5f19600386901b1c1916600185901b1785556200051d565b5f85815260208120601f198616915b82811015620004f357888601518255948401946001909101908401620004d2565b50858210156200051157878501515f19600388901b60f8161c191681555b505060018460011b0185555b505050505050565b5f602080835283518060208501525f5b81811015620005535785810183015185820160400152820162000535565b505f604082860101526040601f19601f8301168501019250505092915050565b8051602080830151919081101562000403575f1960209190910360031b1b16919050565b60805160a05160c05160e05161010051610120516101405161271a620005e95f395f611a7d01525f611a5001525f6118b001525f61188801525f6117e301525f61180d01525f611837015261271a5ff3fe608060405234801561000f575f80fd5b5060043610610255575f3560e01c80637ecebe0011610140578063b6fb8d45116100bf578063d505accf11610084578063d505accf1461051c578063d53913931461052f578063d547741f14610556578063dd62ed3e14610569578063e63ab1e9146105a1578063e7705db6146105c8575f80fd5b8063b6fb8d45146104dc578063ba870686146104e5578063bb85ee0e146104ed578063c308b92c14610500578063d05b9d8e14610513575f80fd5b806396107979116101055780639610797914610475578063998f6ac01461049c578063a217fddf146104af578063a9059cbb146104b6578063b38f37c4146104c9575f80fd5b80637ecebe00146104245780638456cb591461043757806384b0196e1461043f57806391d148541461045a57806395d89b411461046d575f80fd5b80633644e515116101d75780635c975abb1161019c5780635c975abb146103945780635e86f5061461039f578063623ea019146103c357806370a08231146103d657806376ff2eda146103fe57806379cc679014610411575f80fd5b80633644e5151461033457806336568abe1461033c5780633f4ba83a1461034f57806342966c68146103575780635c3822dd1461036a575f80fd5b80632039e3391161021d5780632039e339146102c857806323b872dd146102dd578063248a9ca3146102f05780632f2ff15d14610312578063313ce56714610325575f80fd5b806301ffc9a71461025957806306fdde0314610281578063095ea7b3146102965780630a24c5bb146102a957806318160ddd146102c0575b5f80fd5b61026c610267366004612047565b6105ef565b60405190151581526020015b60405180910390f35b610289610625565b60405161027891906120b1565b61026c6102a43660046120de565b6106b5565b6102b2600e5481565b604051908152602001610278565b6002546102b2565b6102db6102d6366004612106565b6106cc565b005b61026c6102eb36600461211d565b6107ad565b6102b26102fe366004612106565b5f9081526008602052604090206001015490565b6102db610320366004612156565b6107d0565b60405160128152602001610278565b6102b26107fa565b6102db61034a366004612156565b610808565b6102db610840565b6102db610365366004612106565b610872565b6102b26103783660046120de565b600f60209081525f928352604080842090915290825290205481565b60095460ff1661026c565b6103b26103ad366004612106565b61087c565b604051610278959493929190612180565b6102db6103d1366004612106565b61093e565b6102b26103e43660046121bf565b6001600160a01b03165f9081526020819052604090205490565b6102db61040c36600461221d565b61098e565b6102db61041f3660046120de565b610ce9565b6102b26104323660046121bf565b610d02565b6102db610d1f565b610447610d51565b6040516102789796959493929190612280565b61026c610468366004612156565b610d93565b610289610dbd565b610488610483366004612106565b610dcc565b604051610278989796959493929190612317565b6102b26104aa366004612106565b610ea6565b6102b25f81565b61026c6104c43660046120de565b610ec5565b6102db6104d7366004612374565b610ed2565b6102b2600c5481565b600b546102b2565b6102b26104fb3660046121bf565b611042565b6102db61050e3660046123c3565b611098565b6102b2600d5481565b6102db61052a3660046123f5565b61148d565b6102b27f9f2df0fed2c77648de5860a4cc508cd0818c85b8b8a1ab4ceeef8d981c8956a681565b6102db610564366004612156565b6115c3565b6102b2610577366004612462565b6001600160a01b039182165f90815260016020908152604080832093909416825291909152205490565b6102b27f65d7a28e3265b37a6474929f336521b332c1681b933f6cb9f3376673440d862a81565b6102b27f0ce23c3e399818cfee81a7ab0880f714e53d7672b08df0fa62f2843416e1ea0981565b5f6001600160e01b03198216637965db0b60e01b148061061f57506301ffc9a760e01b6001600160e01b03198316145b92915050565b6060600380546106349061248a565b80601f01602080910402602001604051908101604052809291908181526020018280546106609061248a565b80156106ab5780601f10610682576101008083540402835291602001916106ab565b820191905f5260205f20905b81548152906001019060200180831161068e57829003601f168201915b5050505050905090565b5f336106c28185856115e7565b5060019392505050565b6106d46115f4565b6106dc61161a565b805f036106fc5760405163115b5b3b60e21b815260040160405180910390fd5b335f908152602081905260409020548181101561073b5760405163cf47918160e01b815260048101839052602481018290526044015b60405180910390fd5b81600d5f82825461074c91906124d6565b9091555061075c90503383611635565b60405182815233905f907f1ac99e1ff0181b3a50ca3c3a00bd3cf35f6e2d17da26155c84cb775e3cf237029060200160405180910390a3506107aa60015f805160206126c583398151915255565b50565b5f336107ba858285611669565b6107c58585856116df565b506001949350505050565b5f828152600860205260409020600101546107ea8161173c565b6107f48383611746565b50505050565b5f6108036117d7565b905090565b6001600160a01b03811633146108315760405163334bd91960e11b815260040160405180910390fd5b61083b8282611900565b505050565b7f65d7a28e3265b37a6474929f336521b332c1681b933f6cb9f3376673440d862a61086a8161173c565b6107aa61196b565b6107aa3382611635565b60106020525f90815260409020805460018201546002830180546001600160a01b039093169391926108ad9061248a565b80601f01602080910402602001604051908101604052809291908181526020018280546108d99061248a565b80156109245780601f106108fb57610100808354040283529160200191610924565b820191905f5260205f20905b81548152906001019060200180831161090757829003601f168201915b50505050600383015460049093015491929160ff16905085565b5f6109488161173c565b600e80549083905560408051828152602081018590527f8195465fc602a463ff34f3eb107d75631c2ea6b48ea4c57707935beb2b5f01ad910160405180910390a1505050565b7f9f2df0fed2c77648de5860a4cc508cd0818c85b8b8a1ab4ceeef8d981c8956a66109b88161173c565b6109c06115f4565b6109c861161a565b835f036109e85760405163115b5b3b60e21b815260040160405180910390fd5b6001600160a01b038516610a0f5760405163776cceeb60e01b815260040160405180910390fd5b5f868152600a602052604090206006015415610a415760405163d4e40cc560e01b815260048101879052602401610732565b5f610a5485670de0b6b3a76400006124e9565b90505f610a5f6119bd565b335f908152600f60209081526040808320848452909152902054600e5491925090610a8a84836124d6565b1115610ad85733828483600e54610aa19190612500565b6040516385d4e8b960e01b81526001600160a01b039094166004850152602484019290925260448301526064820152608401610732565b6040518061010001604052808a8152602001336001600160a01b03168152602001896001600160a01b0316815260200188815260200184815260200187878080601f0160208091040260200160405190810160405280939291908181526020018383808284375f92018290525093855250504260208085019190915260409384018390528d8352600a81529183902084518155918401516001830180546001600160a01b03199081166001600160a01b039384161790915593850151600284018054909516911617909255606083015160038201556080830151600482015560a08301519091506005820190610bce9082612572565b5060c0820151600682015560e0909101516007909101805460ff1916911515919091179055600b80546001810182555f9182527f0175b7a638427703f0dbe7bb9bbf987a2551717b34e79f33b5b1008d1fa01db9018a9055600c8054899290610c389084906124d6565b9091555050335f908152600f6020908152604080832085845290915281208054859290610c669084906124d6565b90915550610c76905088846119d8565b336001600160a01b0316886001600160a01b03168a7f3d96b5b6d172e7f0a16eb1ef928c85057af102654b3d790ba4ccf2b4979949d08a878b8b604051610cc0949392919061262e565b60405180910390a4505050610ce160015f805160206126c583398151915255565b505050505050565b610cf4823383611669565b610cfe8282611635565b5050565b6001600160a01b0381165f9081526007602052604081205461061f565b7f65d7a28e3265b37a6474929f336521b332c1681b933f6cb9f3376673440d862a610d498161173c565b6107aa611a0c565b5f6060805f805f6060610d62611a49565b610d6a611a76565b604080515f80825260208201909252600f60f81b9b939a50919850469750309650945092509050565b5f9182526008602090815260408084206001600160a01b0393909316845291905290205460ff1690565b6060600480546106349061248a565b600a6020525f908152604090208054600182015460028301546003840154600485015460058601805495966001600160a01b0395861696959094169492939192610e159061248a565b80601f0160208091040260200160405190810160405280929190818152602001828054610e419061248a565b8015610e8c5780601f10610e6357610100808354040283529160200191610e8c565b820191905f5260205f20905b815481529060010190602001808311610e6f57829003601f168201915b50505050600683015460079093015491929160ff16905088565b600b8181548110610eb5575f80fd5b5f91825260209091200154905081565b5f336106c28185856116df565b610eda6115f4565b825f03610efa5760405163115b5b3b60e21b815260040160405180910390fd5b5f8481526010602052604090206004015460ff1615610f2f5760405163171f5b6760e21b815260048101859052602401610732565b6040518060a00160405280336001600160a01b0316815260200184815260200183838080601f0160208091040260200160405190810160405280939291908181526020018383808284375f920182905250938552505042602080850191909152600160409485018190528984526010825292849020855181546001600160a01b0319166001600160a01b03909116178155908501519281019290925550908201516002820190610fdf9082612572565b50606082015160038201556080909101516004909101805460ff1916911515919091179055604051838152339085907f1665e1c97806685a93c554916a5120e8af7533d54614518edcff6f400d8a7d08906020015b60405180910390a350505050565b6001600160a01b0381165f908152600f602052604081208190816110646119bd565b81526020019081526020015f2054905080600e5411611083575f611091565b80600e546110919190612500565b9392505050565b7f0ce23c3e399818cfee81a7ab0880f714e53d7672b08df0fa62f2843416e1ea096110c28161173c565b6110ca6115f4565b6110d261161a565b5f838152601060209081526040808320815160a08101835281546001600160a01b0316815260018201549381019390935260028101805491928401916111179061248a565b80601f01602080910402602001604051908101604052809291908181526020018280546111439061248a565b801561118e5780601f106111655761010080835404028352916020019161118e565b820191905f5260205f20905b81548152906001019060200180831161117157829003601f168201915b50505091835250506003820154602082015260049091015460ff16151560409091015260808101519091506111d95760405163f734cb4960e01b815260048101859052602401610732565b5f84815260106020526040812080546001600160a01b031916815560018101829055906112096002830182611ffd565b505f6003820155600401805460ff191690556040518315158152339085907f6f11eb56706210ab553ed7761038487279a5868a1bec8b4d960cd7d5463782e49060200160405180910390a38215611476575f8442604051602001611277929190918252602082015260400190565b6040516020818303038152906040528051906020012090505f8260200151670de0b6b3a76400006112a891906124e9565b90505f6112b36119bd565b604080516101008101825285815233602080830191825288516001600160a01b039081168486019081528a83015160608601908152608086018a81528c88015160a088019081524260c08901525f60e089018190528d8152600a909652979094208651815594516001860180549185166001600160a01b031992831617905591516002860180549190941692169190911790915551600383015551600482015591519293509160058201906113689082612572565b5060c0820151600682015560e0909101516007909101805460ff1916911515919091179055600b80546001810182555f9182527f0175b7a638427703f0dbe7bb9bbf987a2551717b34e79f33b5b1008d1fa01db9018490556020850151600c8054919290916113d89084906124d6565b9091555050335f908152600f60209081526040808320848452909152812080548492906114069084906124d6565b9091555050835161141790836119d8565b336001600160a01b0316845f01516001600160a01b0316847f3d96b5b6d172e7f0a16eb1ef928c85057af102654b3d790ba4ccf2b4979949d0876020015186896040015160405161146a9392919061266a565b60405180910390a45050505b5061083b60015f805160206126c583398151915255565b834211156114b15760405163313c898160e11b815260048101859052602401610732565b5f7f6e71edae12b1b97f4d1f60370fef10105fa2faae0126114a169c64845d6126c98888886114fc8c6001600160a01b03165f90815260076020526040902080546001810190915590565b6040805160208101969096526001600160a01b0394851690860152929091166060840152608083015260a082015260c0810186905260e0016040516020818303038152906040528051906020012090505f61155682611aa3565b90505f61156582878787611acf565b9050896001600160a01b0316816001600160a01b0316146115ac576040516325c0072360e11b81526001600160a01b0380831660048301528b166024820152604401610732565b6115b78a8a8a6115e7565b50505050505050505050565b5f828152600860205260409020600101546115dd8161173c565b6107f48383611900565b61083b8383836001611afb565b60095460ff16156116185760405163d93c066560e01b815260040160405180910390fd5b565b611622611bbf565b60025f805160206126c583398151915255565b6001600160a01b03821661165e57604051634b637e8f60e11b81525f6004820152602401610732565b610cfe825f83611bee565b6001600160a01b038381165f908152600160209081526040808320938616835292905220545f198110156107f457818110156116d157604051637dc7a0d960e11b81526001600160a01b03841660048201526024810182905260448101839052606401610732565b6107f484848484035f611afb565b6001600160a01b03831661170857604051634b637e8f60e11b81525f6004820152602401610732565b6001600160a01b0382166117315760405163ec442f0560e01b81525f6004820152602401610732565b61083b838383611bee565b6107aa8133611d14565b5f6117518383610d93565b6117d0575f8381526008602090815260408083206001600160a01b03861684529091529020805460ff191660011790556117883390565b6001600160a01b0316826001600160a01b0316847f2f8788117e7eff1d82e926ec794901d17c78024a50270940304540a733656f0d60405160405180910390a450600161061f565b505f61061f565b5f306001600160a01b037f00000000000000000000000000000000000000000000000000000000000000001614801561182f57507f000000000000000000000000000000000000000000000000000000000000000046145b1561185957507f000000000000000000000000000000000000000000000000000000000000000090565b610803604080517f8b73c3c69bb8fe3d512ecc4cf759cc79239f7b179b0ffacaa9a75d522b39400f60208201527f0000000000000000000000000000000000000000000000000000000000000000918101919091527f000000000000000000000000000000000000000000000000000000000000000060608201524660808201523060a08201525f9060c00160405160208183030381529060405280519060200120905090565b5f61190b8383610d93565b156117d0575f8381526008602090815260408083206001600160a01b0386168085529252808320805460ff1916905551339286917ff6391f5c32d9c69d2a47ea670b442974b53935d1edc7fd64eb21e047a839171b9190a450600161061f565b611973611d4d565b6009805460ff191690557f5db9ee0a495bf2e6ff9c91a7834c1ba4fdd244a5e8aa4e537bd38aeae4b073aa335b6040516001600160a01b03909116815260200160405180910390a1565b5f6119cc6301e1338042612691565b610803906107b26124d6565b6001600160a01b038216611a015760405163ec442f0560e01b81525f6004820152602401610732565b610cfe5f8383611bee565b611a146115f4565b6009805460ff191660011790557f62e78cea01bee320cd4e420270b5ea74000d11b0c9f74754ebdbfc544b05a2586119a03390565b60606108037f00000000000000000000000000000000000000000000000000000000000000006005611d70565b60606108037f00000000000000000000000000000000000000000000000000000000000000006006611d70565b5f61061f611aaf6117d7565b8360405161190160f01b8152600281019290925260228201526042902090565b5f805f80611adf88888888611e19565b925092509250611aef8282611ee1565b50909695505050505050565b6001600160a01b038416611b245760405163e602df0560e01b81525f6004820152602401610732565b6001600160a01b038316611b4d57604051634a1406b160e11b81525f6004820152602401610732565b6001600160a01b038085165f90815260016020908152604080832093871683529290522082905580156107f457826001600160a01b0316846001600160a01b03167f8c5be1e5ebec7d5bd14f71427d1e84f3dd0314c0f7b2291e5b200ac8c7c3b9258460405161103491815260200190565b5f805160206126c58339815191525460020361161857604051633ee5aeb560e01b815260040160405180910390fd5b6001600160a01b038316611c18578060025f828254611c0d91906124d6565b90915550611c889050565b6001600160a01b0383165f9081526020819052604090205481811015611c6a5760405163391434e360e21b81526001600160a01b03851660048201526024810182905260448101839052606401610732565b6001600160a01b0384165f9081526020819052604090209082900390555b6001600160a01b038216611ca457600280548290039055611cc2565b6001600160a01b0382165f9081526020819052604090208054820190555b816001600160a01b0316836001600160a01b03167fddf252ad1be2c89b69c2b068fc378daa952ba7f163c4a11628f55a4df523b3ef83604051611d0791815260200190565b60405180910390a3505050565b611d1e8282610d93565b610cfe5760405163e2517d3f60e01b81526001600160a01b038216600482015260248101839052604401610732565b60095460ff1661161857604051638dfc202b60e01b815260040160405180910390fd5b606060ff8314611d8a57611d8383611f99565b905061061f565b818054611d969061248a565b80601f0160208091040260200160405190810160405280929190818152602001828054611dc29061248a565b8015611e0d5780601f10611de457610100808354040283529160200191611e0d565b820191905f5260205f20905b815481529060010190602001808311611df057829003601f168201915b5050505050905061061f565b5f80807f7fffffffffffffffffffffffffffffff5d576e7357a4501ddfe92f46681b20a0841115611e5257505f91506003905082611ed7565b604080515f808252602082018084528a905260ff891692820192909252606081018790526080810186905260019060a0016020604051602081039080840390855afa158015611ea3573d5f803e3d5ffd5b5050604051601f1901519150506001600160a01b038116611ece57505f925060019150829050611ed7565b92505f91508190505b9450945094915050565b5f826003811115611ef457611ef46126b0565b03611efd575050565b6001826003811115611f1157611f116126b0565b03611f2f5760405163f645eedf60e01b815260040160405180910390fd5b6002826003811115611f4357611f436126b0565b03611f645760405163fce698f760e01b815260048101829052602401610732565b6003826003811115611f7857611f786126b0565b03610cfe576040516335e2f38360e21b815260048101829052602401610732565b60605f611fa583611fd6565b6040805160208082528183019092529192505f91906020820181803683375050509182525060208101929092525090565b5f60ff8216601f81111561061f57604051632cd44ac360e21b815260040160405180910390fd5b5080546120099061248a565b5f825580601f10612018575050565b601f0160209004905f5260205f20908101906107aa91905b80821115612043575f8155600101612030565b5090565b5f60208284031215612057575f80fd5b81356001600160e01b031981168114611091575f80fd5b5f81518084525f5b8181101561209257602081850181015186830182015201612076565b505f602082860101526020601f19601f83011685010191505092915050565b602081525f611091602083018461206e565b80356001600160a01b03811681146120d9575f80fd5b919050565b5f80604083850312156120ef575f80fd5b6120f8836120c3565b946020939093013593505050565b5f60208284031215612116575f80fd5b5035919050565b5f805f6060848603121561212f575f80fd5b612138846120c3565b9250612146602085016120c3565b9150604084013590509250925092565b5f8060408385031215612167575f80fd5b82359150612177602084016120c3565b90509250929050565b60018060a01b038616815284602082015260a060408201525f6121a660a083018661206e565b6060830194909452509015156080909101529392505050565b5f602082840312156121cf575f80fd5b611091826120c3565b5f8083601f8401126121e8575f80fd5b50813567ffffffffffffffff8111156121ff575f80fd5b602083019150836020828501011115612216575f80fd5b9250929050565b5f805f805f60808688031215612231575f80fd5b85359450612241602087016120c3565b935060408601359250606086013567ffffffffffffffff811115612263575f80fd5b61226f888289016121d8565b969995985093965092949392505050565b60ff60f81b881681525f602060e060208401526122a060e084018a61206e565b83810360408501526122b2818a61206e565b606085018990526001600160a01b038816608086015260a0850187905284810360c0860152855180825260208088019350909101905f5b81811015612305578351835292840192918401916001016122e9565b50909c9b505050505050505050505050565b8881526001600160a01b03888116602083015287166040820152606081018690526080810185905261010060a082018190525f906123578382018761206e565b60c0840195909552505090151560e0909101529695505050505050565b5f805f8060608587031215612387575f80fd5b8435935060208501359250604085013567ffffffffffffffff8111156123ab575f80fd5b6123b7878288016121d8565b95989497509550505050565b5f80604083850312156123d4575f80fd5b82359150602083013580151581146123ea575f80fd5b809150509250929050565b5f805f805f805f60e0888a03121561240b575f80fd5b612414886120c3565b9650612422602089016120c3565b95506040880135945060608801359350608088013560ff81168114612445575f80fd5b9699959850939692959460a0840135945060c09093013592915050565b5f8060408385031215612473575f80fd5b61247c836120c3565b9150612177602084016120c3565b600181811c9082168061249e57607f821691505b6020821081036124bc57634e487b7160e01b5f52602260045260245ffd5b50919050565b634e487b7160e01b5f52601160045260245ffd5b8082018082111561061f5761061f6124c2565b808202811582820484141761061f5761061f6124c2565b8181038181111561061f5761061f6124c2565b634e487b7160e01b5f52604160045260245ffd5b601f82111561083b57805f5260205f20601f840160051c8101602085101561254c5750805b601f840160051c820191505b8181101561256b575f8155600101612558565b5050505050565b815167ffffffffffffffff81111561258c5761258c612513565b6125a08161259a845461248a565b84612527565b602080601f8311600181146125d3575f84156125bc5750858301515b5f19600386901b1c1916600185901b178555610ce1565b5f85815260208120601f198616915b82811015612601578886015182559484019460019091019084016125e2565b508582101561261e57878501515f19600388901b60f8161c191681555b5050505050600190811b01905550565b84815283602082015260606040820152816060820152818360808301375f818301608090810191909152601f909201601f191601019392505050565b838152826020820152606060408201525f612688606083018461206e565b95945050505050565b5f826126ab57634e487b7160e01b5f52601260045260245ffd5b500490565b634e487b7160e01b5f52602160045260245ffdfe9b779b17422d0df92223018b32b4d1fa46e071723d6817e2486d003becc55f00a26469706673582212202980b4a5a6319614e28e37b17fb32440d85ee60d07ca5846244c9bc06ce5d2d064736f6c63430008180033",
  "linkReferences": {},
  "deployedLinkReferences": {}
}