{"contracts/GreenCredit.sol":{"GreenCredit":{"abi":[{"inputs":[{"internalType":"address","name":"defaultAdmin","type":"address"}],"stateMutability":"nonpayable","type":"constructor"},{"inputs":[],"name":"AccessControlBadConfirmation","type":"error"},{"inputs":[{"internalType":"address","name":"account","type":"address"},{"internalType":"bytes32","name":"neededRole","type":"bytes32"}],"name":"AccessControlUnauthorizedAccount","type":"error"},{"inputs":[{"internalType":"bytes32","name":"claimId","type":"bytes32"}],"name":"ClaimAlreadyExists","type":"error"},{"inputs":[{"internalType":"bytes32","name":"claimId","type":"bytes32"}],"name":"ClaimNotFound","type":"error"},{"inputs":[],"name":"ECDSAInvalidSignature","type":"error"},{"inputs":[{"internalType":"uint256","name":"length","type":"uint256"}],"name":"ECDSAInvalidSignatureLength","type":"error"},{"inputs":[{"internalType":"bytes32","name":"s","type":"bytes32"}],"name":"ECDSAInvalidSignatureS","type":"error"},{"inputs":[{"internalType":"address","name":"spender","type":"address"},{"internalType":"uint256","name":"allowance","type":"uint256"},{"internalType":"uint256","name":"needed","type":"uint256"}],"name":"ERC20InsufficientAllowance","type":"error"},{"inputs":[{"internalType":"address","name":"sender","type":"address"},{"internalType":"uint256","name":"balance","type":"uint256"},{"internalType":"uint256","name":"needed","type":"uint256"}],"name":"ERC20InsufficientBalance","type":"error"},{"inputs":[{"internalType":"address","name":"approver","type":"address"}],"name":"ERC20InvalidApprover","type":"error"},{"inputs":[{"internalType":"address","name":"receiver","type":"address"}],"name":"ERC20InvalidReceiver","type":"error"},{"inputs":[{"internalType":"address","name":"sender","type":"address"}],"name":"ERC20InvalidSender","type":"error"},{"inputs":[{"internalType":"address","name":"spender","type":"address"}],"name":"ERC20InvalidSpender","type":"error"},{"inputs":[{"internalType":"uint256","name":"deadline","type":"uint256"}],"name":"ERC2612ExpiredSignature","type":"error"},{"inputs":[{"internalType":"address","name":"signer","type":"address"},{"internalType":"address","name":"owner","type":"address"}],"name":"ERC2612InvalidSigner","type":"error"},{"inputs":[],"name":"EnforcedPause","type":"error"},{"inputs":[{"internalType":"bytes32","name":"eventId","type":"bytes32"}],"name":"EventAlreadyExists","type":"error"},{"inputs":[{"internalType":"bytes32","name":"eventId","type":"bytes32"}],"name":"EventNotFound","type":"error"},{"inputs":[],"name":"ExpectedPause","type":"error"},{"inputs":[{"internalType":"uint256","name":"requested","type":"uint256"},{"internalType":"uint256","name":"available","type":"uint256"}],"name":"InsufficientBalance","type":"error"},{"inputs":[{"internalType":"address","name":"account","type":"address"},{"internalType":"uint256","name":"currentNonce","type":"uint256"}],"name":"InvalidAccountNonce","type":"error"},{"inputs":[],"name":"InvalidShortString","type":"error"},{"inputs":[],"name":"ReentrancyGuardReentrantCall","type":"error"},{"inputs":[{"internalType":"string","name":"str","type":"string"}],"name":"StringTooLong","type":"error"},{"inputs":[{"internalType":"address","name":"minter","type":"address"},{"internalType":"uint256","name":"year","type":"uint256"},{"internalType":"uint256","name":"attempted","type":"uint256"},{"internalType":"uint256","name":"remaining","type":"uint256"}],"name":"YearlyCapExceeded","type":"error"},{"inputs":[],"name":"ZeroBeneficiary","type":"error"},{"inputs":[],"name":"ZeroReduction","type":"error"},{"anonymous":false,"inputs":[{"indexed":true,"internalType":"address","name":"owner","type":"address"},{"indexed":true,"internalType":"address","name":"spender","type":"address"},{"indexed":false,"internalType":"uint256","name":"value","type":"uint256"}],"name":"Approval","type":"event"},{"anonymous":false,"inputs":[{"indexed":true,"internalType":"bytes32","name":"eventId","type":"bytes32"},{"indexed":true,"internalType":"address","name":"beneficiary","type":"address"},{"indexed":true,"internalType":"address","name":"verifier","type":"address"},{"indexed":false,"internalType":"uint256","name":"reductionKg","type":"uint256"},{"indexed":false,"internalType":"uint256","name":"creditsIssued","type":"uint256"},{"indexed":false,"internalType":"string","name":"metadataURI","type":"string"}],"name":"CarbonReductionMinted","type":"event"},{"anonymous":false,"inputs":[{"indexed":true,"internalType":"bytes32","name":"claimId","type":"bytes32"},{"indexed":true,"internalType":"address","name":"claimant","type":"address"},{"indexed":false,"internalType":"uint256","name":"reductionKg","type":"uint256"}],"name":"ClaimSubmitted","type":"event"},{"anonymous":false,"inputs":[{"indexed":true,"internalType":"bytes32","name":"claimId","type":"bytes32"},{"indexed":true,"internalType":"address","name":"verifier","type":"address"},{"indexed":false,"internalType":"bool","name":"approved","type":"bool"}],"name":"ClaimVerified","type":"event"},{"anonymous":false,"inputs":[{"indexed":true,"internalType":"bytes32","name":"eventId","type":"bytes32"},{"indexed":true,"internalType":"address","name":"retirer","type":"address"},{"indexed":false,"internalType":"uint256","name":"amount","type":"uint256"}],"name":"CreditsRetired","type":"event"},{"anonymous":false,"inputs":[],"name":"EIP712DomainChanged","type":"event"},{"anonymous":false,"inputs":[{"indexed":false,"internalType":"address","name":"account","type":"address"}],"name":"Paused","type":"event"},{"anonymous":false,"inputs":[{"indexed":true,"internalType":"bytes32","name":"role","type":"bytes32"},{"indexed":true,"internalType":"bytes32","name":"previousAdminRole","type":"bytes32"},{"indexed":true,"internalType":"bytes32","name":"newAdminRole","type":"bytes32"}],"name":"RoleAdminChanged","type":"event"},{"anonymous":false,"inputs":[{"indexed":true,"internalType":"bytes32","name":"role","type":"bytes32"},{"indexed":true,"internalType":"address","name":"account","type":"address"},{"indexed":true,"internalType":"address","name":"sender","type":"address"}],"name":"RoleGranted","type":"event"},{"anonymous":false,"inputs":[{"indexed":true,"internalType":"bytes32","name":"role","type":"bytes32"},{"indexed":true,"internalType":"address","name":"account","type":"address"},{"indexed":true,"internalType":"address","name":"sender","type":"address"}],"name":"RoleRevoked","type":"event"},{"anonymous":false,"inputs":[{"indexed":true,"internalType":"address","name":"from","type":"address"},{"indexed":true,"internalType":"address","name":"to","type":"address"},{"indexed":false,"internalType":"uint256","name":"value","type":"uint256"}],"name":"Transfer","type":"event"},{"anonymous":false,"inputs":[{"indexed":false,"internalType":"address","name":"account","type":"address"}],"name":"Unpaused","type":"event"},{"anonymous":false,"inputs":[{"indexed":false,"internalType":"uint256","name":"oldCap","type":"uint256"},{"indexed":false,"internalType":"uint256","name":"newCap","type":"uint256"}],"name":"YearlyMintCapUpdated","type":"event"},{"inputs":[],"name":"DEFAULT_ADMIN_ROLE","outputs":[{"internalType":"bytes32","name":"","type":"bytes32"}],"stateMutability":"view","type":"function"},{"inputs":[],"name":"DOMAIN_SEPARATOR","outputs":[{"internalType":"bytes32","name":"","type":"bytes32"}],"stateMutability":"view","type":"function"},{"inputs":[],"name":"MINTER_ROLE","outputs":[{"internalType":"bytes32","name":"","type":"bytes32"}],"stateMutability":"view","type":"function"},{"inputs":[],"name":"PAUSER_ROLE","outputs":[{"internalType":"bytes32","name":"","type":"bytes32"}],"stateMutability":"view","type":"function"},{"inputs":[],"name":"VERIFIER_ROLE","outputs":[{"internalType":"bytes32","name":"","type":"bytes32"}],"stateMutability":"view","type":"function"},{"inputs":[{"internalType":"address","name":"owner","type":"address"},{"internalType":"address","name":"spender","type":"address"}],"name":"allowance","outputs":[{"internalType":"uint256","name":"","type":"uint256"}],"stateMutability":"view","type":"function"},{"inputs":[{"internalType":"address","name":"spender","type":"address"},{"internalType":"uint256","name":"value","type":"uint256"}],"name":"approve","outputs":[{"internalType":"bool","name":"","type":"bool"}],"stateMutability":"nonpayable","type":"function"},{"inputs":[{"internalType":"address","name":"account","type":"address"}],"name":"balanceOf","outputs":[{"internalType":"uint256","name":"","type":"uint256"}],"stateMutability":"view","type":"function"},{"inputs":[{"internalType":"uint256","name":"value","type":"uint256"}],"name":"burn","outputs":[],"stateMutability":"nonpayable","type":"function"},{"inputs":[{"internalType":"address","name":"account","type":"address"},{"internalType":"uint256","name":"value","type":"uint256"}],"name":"burnFrom","outputs":[],"stateMutability":"nonpayable","type":"function"},{"inputs":[],"name":"decimals","outputs":[{"internalType":"uint8","name":"","type":"uint8"}],"stateMutability":"view","type":"function"},{"inputs":[],"name":"eip712Domain","outputs":[{"internalType":"bytes1","name":"fields","type":"bytes1"},{"internalType":"string","name":"name","type":"string"},{"internalType":"string","name":"version","type":"string"},{"internalType":"uint256","name":"chainId","type":"uint256"},{"internalType":"address","name":"verifyingContract","type":"address"},{"internalType":"bytes32","name":"salt","type":"bytes32"},{"internalType":"uint256[]","name":"extensions","type":"uint256[]"}],"stateMutability":"view","type":"function"},{"inputs":[{"internalType":"uint256","name":"","type":"uint256"}],"name":"eventIds","outputs":[{"internalType":"bytes32","name":"","type":"bytes32"}],"stateMutability":"view","type":"function"},{"inputs":[{"internalType":"bytes32","name":"role","type":"bytes32"}],"name":"getRoleAdmin","outputs":[{"internalType":"bytes32","name":"","type":"bytes32"}],"stateMutability":"view","type":"function"},{"inputs":[{"internalType":"bytes32","name":"role","type":"bytes32"},{"internalType":"address","name":"account","type":"address"}],"name":"grantRole","outputs":[],"stateMutability":"nonpayable","type":"function"},{"inputs":[{"internalType":"bytes32","name":"role","type":"bytes32"},{"internalType":"address","name":"account","type":"address"}],"name":"hasRole","outputs":[{"internalType":"bool","name":"","type":"bool"}],"stateMutability":"view","type":"function"},{"inputs":[{"internalType":"bytes32","name":"eventId","type":"bytes32"},{"internalType":"address","name":"beneficiary","type":"address"},{"internalType":"uint256","name":"reductionKg","type":"uint256"},{"internalType":"string","name":"metadataURI","type":"string"}],"name":"mintForReduction","outputs":[],"stateMutability":"nonpayable","type":"function"},{"inputs":[],"name":"name","outputs":[{"internalType":"string","name":"","type":"string"}],"stateMutability":"view","type":"function"},{"inputs":[{"internalType":"address","name":"owner","type":"address"}],"name":"nonces","outputs":[{"internalType":"uint256","name":"","type":"uint256"}],"stateMutability":"view","type":"function"},{"inputs":[],"name":"pause","outputs":[],"stateMutability":"nonpayable","type":"function"},{"inputs":[],"name":"paused","outputs":[{"internalType":"bool","name":"","type":"bool"}],"stateMutability":"view","type":"function"},{"inputs":[{"internalType":"bytes32","name":"","type":"bytes32"}],"name":"pendingClaims","outputs":[{"internalType":"address","name":"claimant","type":"address"},{"internalType":"uint256","name":"reductionKg","type":"uint256"},{"internalType":"string","name":"metadataURI","type":"string"},{"internalType":"uint256","name":"submittedAt","type":"uint256"},{"internalType":"bool","name":"exists","type":"bool"}],"stateMutability":"view","type":"function"},{"inputs":[{"internalType":"address","name":"owner","type":"address"},{"internalType":"address","name":"spender","type":"address"},{"internalType":"uint256","name":"value","type":"uint256"},{"internalType":"uint256","name":"deadline","type":"uint256"},{"internalType":"uint8","name":"v","type":"uint8"},{"internalType":"bytes32","name":"r","type":"bytes32"},{"internalType":"bytes32","name":"s","type":"bytes32"}],"name":"permit","outputs":[],"stateMutability":"nonpayable","type":"function"},{"inputs":[{"internalType":"bytes32","name":"","type":"bytes32"}],"name":"reductionEvents","outputs":[{"internalType":"bytes32","name":"eventId","type":"bytes32"},{"internalType":"address","name":"verifier","type":"address"},{"internalType":"address","name":"beneficiary","type":"address"},{"internalType":"uint256","name":"reductionKg","type":"uint256"},{"internalType":"uint256","name":"creditsIssued","type":"uint256"},{"internalType":"string","name":"metadataURI","type":"string"},{"internalType":"uint256","name":"timestamp","type":"uint256"},{"internalType":"bool","name":"retired","type":"bool"}],"stateMutability":"view","type":"function"},{"inputs":[{"internalType":"address","name":"minter","type":"address"}],"name":"remainingYearlyQuota","outputs":[{"internalType":"uint256","name":"","type":"uint256"}],"stateMutability":"view","type":"function"},{"inputs":[{"internalType":"bytes32","name":"role","type":"bytes32"},{"internalType":"address","name":"callerConfirmation","type":"address"}],"name":"renounceRole","outputs":[],"stateMutability":"nonpayable","type":"function"},{"inputs":[{"internalType":"uint256","name":"amount","type":"uint256"}],"name":"retireCredits","outputs":[],"stateMutability":"nonpayable","type":"function"},{"inputs":[{"internalType":"bytes32","name":"role","type":"bytes32"},{"internalType":"address","name":"account","type":"address"}],"name":"revokeRole","outputs":[],"stateMutability":"nonpayable","type":"function"},{"inputs":[{"internalType":"uint256","name":"newCap","type":"uint256"}],"name":"setYearlyMintCap","outputs":[],"stateMutability":"nonpayable","type":"function"},{"inputs":[{"internalType":"bytes32","name":"claimId","type":"bytes32"},{"internalType":"uint256","name":"reductionKg","type":"uint256"},{"internalType":"string","name":"metadataURI","type":"string"}],"name":"submitClaim","outputs":[],"stateMutability":"nonpayable","type":"function"},{"inputs":[{"internalType":"bytes4","name":"interfaceId","type":"bytes4"}],"name":"supportsInterface","outputs":[{"internalType":"bool","name":"","type":"bool"}],"stateMutability":"view","type":"function"},{"inputs":[],"name":"symbol","outputs":[{"internalType":"string","name":"","type":"string"}],"stateMutability":"view","type":"function"},{"inputs":[],"name":"totalEvents","outputs":[{"internalType":"uint256","name":"","type":"uint256"}],"stateMutability":"view","type":"function"},{"inputs":[],"name":"totalReductionKg","outputs":[{"internalType":"uint256","name":"","type":"uint256"}],"stateMutability":"view","type":"function"},{"inputs":[],"name":"totalRetiredCredits","outputs":[{"internalType":"uint256","name":"","type":"uint256"}],"stateMutability":"view","type":"function"},{"inputs":[],"name":"totalSupply","outputs":[{"internalType":"uint256","name":"","type":"uint256"}],"stateMutability":"view","type":"function"},{"inputs":[{"internalType":"address","name":"to","type":"address"},{"internalType":"uint256","name":"value","type":"uint256"}],"name":"transfer","outputs":[{"internalType":"bool","name":"","type":"bool"}],"stateMutability":"nonpayable","type":"function"},{"inputs":[{"internalType":"address","name":"from","type":"address"},{"internalType":"address","name":"to","type":"address"},{"internalType":"uint256","name":"value","type":"uint256"}],"name":"transferFrom","outputs":[{"internalType":"bool","name":"","type":"bool"}],"stateMutability":"nonpayable","type":"function"},{"inputs":[],"name":"unpause","outputs":[],"stateMutability":"nonpayable","type":"function"},{"inputs":[{"internalType":"bytes32","name":"claimId","type":"bytes32"},{"internalType":"bool","name":"approved","type":"bool"}],"name":"verifyClaim","outputs":[],"stateMutability":"nonpayable","type":"function"},{"inputs":[],"name":"yearlyMintCap","outputs":[{"internalType":"uint256","name":"","type":"uint256"}],"stateMutability":"view","type":"function"},{"inputs":[{"internalType":"address","name":"","type":"address"},{"internalType":"uint256","name":"","type":"uint256"}],"name":"yearlyMinted","outputs":[{"internalType":"uint256","name":"","type":"uint256"}],"stateMutability":"view","type":"function"}],"evm":{"bytecode":{"linkReferences":{},"object":"61016060405234801562000011575f80fd5b5060405162002d0338038062002d0383398101604081905262000034916200038c565b6040518060400160405280600b81526020016a11dc99595b90dc99591a5d60aa1b81525080604051806040016040528060018152602001603160f81b8152506040518060400160405280600b81526020016a11dc99595b90dc99591a5d60aa1b8152506040518060400160405280600381526020016223a1a960e91b8152508160039081620000c4919062000459565b506004620000d3828262000459565b50620000e5915083905060056200025a565b61012052620000f68160066200025a565b61014052815160208084019190912060e052815190820120610100524660a0526200018360e05161010051604080517f8b73c3c69bb8fe3d512ecc4cf759cc79239f7b179b0ffacaa9a75d522b39400f60208201529081019290925260608201524660808201523060a08201525f9060c00160405160208183030381529060405280519060200120905090565b60805250503060c0525060017f9b779b17422d0df92223018b32b4d1fa46e071723d6817e2486d003becc55f0055620001bd5f8262000292565b50620001ea7f9f2df0fed2c77648de5860a4cc508cd0818c85b8b8a1ab4ceeef8d981c8956a68262000292565b50620002177f0ce23c3e399818cfee81a7ab0880f714e53d7672b08df0fa62f2843416e1ea098262000292565b50620002447f65d7a28e3265b37a6474929f336521b332c1681b933f6cb9f3376673440d862a8262000292565b505069d3c21bcecceda1000000600e5562000597565b5f6020835110156200027957620002718362000341565b90506200028c565b8162000286848262000459565b5060ff90505b92915050565b5f8281526008602090815260408083206001600160a01b038516845290915281205460ff1662000339575f8381526008602090815260408083206001600160a01b03861684529091529020805460ff19166001179055620002f03390565b6001600160a01b0316826001600160a01b0316847f2f8788117e7eff1d82e926ec794901d17c78024a50270940304540a733656f0d60405160405180910390a45060016200028c565b505f6200028c565b5f80829050601f8151111562000377578260405163305a27a960e01b81526004016200036e919062000525565b60405180910390fd5b8051620003848262000573565b179392505050565b5f602082840312156200039d575f80fd5b81516001600160a01b0381168114620003b4575f80fd5b9392505050565b634e487b7160e01b5f52604160045260245ffd5b600181811c90821680620003e457607f821691505b6020821081036200040357634e487b7160e01b5f52602260045260245ffd5b50919050565b601f8211156200045457805f5260205f20601f840160051c81016020851015620004305750805b601f840160051c820191505b8181101562000451575f81556001016200043c565b50505b505050565b81516001600160401b03811115620004755762000475620003bb565b6200048d81620004868454620003cf565b8462000409565b602080601f831160018114620004c3575f8415620004ab5750858301515b5f19600386901b1c1916600185901b1785556200051d565b5f85815260208120601f198616915b82811015620004f357888601518255948401946001909101908401620004d2565b50858210156200051157878501515f19600388901b60f8161c191681555b505060018460011b0185555b505050505050565b5f602080835283518060208501525f5b81811015620005535785810183015185820160400152820162000535565b505f604082860101526040601f19601f8301168501019250505092915050565b8051602080830151919081101562000403575f1960209190910360031b1b16919050565b60805160a05160c05160e05161010051610120516101405161271a620005e95f395f611a7d01525f611a5001525f6118b001525f61188801525f6117e301525f61180d01525f611837015261271a5ff3fe608060405234801561000f575f80fd5b5060043610610255575f3560e01c80637ecebe0011610140578063b6fb8d45116100bf578063d505accf11610084578063d505accf1461051c578063d53913931461052f578063d547741f14610556578063dd62ed3e14610569578063e63ab1e9146105a1578063e7705db6146105c8575f80fd5b8063b6fb8d45146104dc578063ba870686146104e5578063bb85ee0e146104ed578063c308b92c14610500578063d05b9d8e14610513575f80fd5b806396107979116101055780639610797914610475578063998f6ac01461049c578063a217fddf146104af578063a9059cbb146104b6578063b38f37c4146104c9575f80fd5b80637ecebe00146104245780638456cb591461043757806384b0196e1461043f57806391d148541461045a57806395d89b411461046d575f80fd5b80633644e515116101d75780635c975abb1161019c5780635c975abb146103945780635e86f5061461039f578063623ea019146103c357806370a08231146103d657806376ff2eda146103fe57806379cc679014610411575f80fd5b80633644e5151461033457806336568abe1461033c5780633f4ba83a1461034f57806342966c68146103575780635c3822dd1461036a575f80fd5b80632039e3391161021d5780632039e339146102c857806323b872dd146102dd578063248a9ca3146102f05780632f2ff15d14610312578063313ce56714610325575f80fd5b806301ffc9a71461025957806306fdde0314610281578063095ea7b3146102965780630a24c5bb146102a957806318160ddd146102c0575b5f80fd5b61026c610267366004612047565b6105ef565b60405190151581526020015b60405180910390f35b610289610625565b60405161027891906120b1565b61026c6102a43660046120de565b6106b5565b6102b2600e5481565b604051908152602001610278565b6002546102b2565b6102db6102d6366004612106565b6106cc565b005b61026c6102eb36600461211d565b6107ad565b6102b26102fe366004612106565b5f9081526008602052604090206001015490565b6102db610320366004612156565b6107d0565b60405160128152602001610278565b6102b26107fa565b6102db61034a366004612156565b610808565b6102db610840565b6102db610365366004612106565b610872565b6102b26103783660046120de565b600f60209081525f928352604080842090915290825290205481565b60095460ff1661026c565b6103b26103ad366004612106565b61087c565b604051610278959493929190612180565b6102db6103d1366004612106565b61093e565b6102b26103e43660046121bf565b6001600160a01b03165f9081526020819052604090205490565b6102db61040c36600461221d565b61098e565b6102db61041f3660046120de565b610ce9565b6102b26104323660046121bf565b610d02565b6102db610d1f565b610447610d51565b6040516102789796959493929190612280565b61026c610468366004612156565b610d93565b610289610dbd565b610488610483366004612106565b610dcc565b604051610278989796959493929190612317565b6102b26104aa366004612106565b610ea6565b6102b25f81565b61026c6104c43660046120de565b610ec5565b6102db6104d7366004612374565b610ed2565b6102b2600c5481565b600b546102b2565b6102b26104fb3660046121bf565b611042565b6102db61050e3660046123c3565b611098565b6102b2600d5481565b6102db61052a3660046123f5565b61148d565b6102b27f9f2df0fed2c77648de5860a4cc508cd0818c85b8b8a1ab4ceeef8d981c8956a681565b6102db610564366004612156565b6115c3565b6102b2610577366004612462565b6001600160a01b039182165f90815260016020908152604080832093909416825291909152205490565b6102b27f65d7a28e3265b37a6474929f336521b332c1681b933f6cb9f3376673440d862a81565b6102b27f0ce23c3e399818cfee81a7ab0880f714e53d7672b08df0fa62f2843416e1ea0981565b5f6001600160e01b03198216637965db0b60e01b148061061f57506301ffc9a760e01b6001600160e01b03198316145b92915050565b6060600380546106349061248a565b80601f01602080910402602001604051908101604052809291908181526020018280546106609061248a565b80156106ab5780601f10610682576101008083540402835291602001916106ab565b820191905f5260205f20905b81548152906001019060200180831161068e57829003601f168201915b5050505050905090565b5f336106c28185856115e7565b5060019392505050565b6106d46115f4565b6106dc61161a565b805f036106fc5760405163115b5b3b60e21b815260040160405180910390fd5b335f908152602081905260409020548181101561073b5760405163cf47918160e01b815260048101839052602481018290526044015b60405180910390fd5b81600d5f82825461074c91906124d6565b9091555061075c90503383611635565b60405182815233905f907f1ac99e1ff0181b3a50ca3c3a00bd3cf35f6e2d17da26155c84cb775e3cf237029060200160405180910390a3506107aa60015f805160206126c583398151915255565b50565b5f336107ba858285611669565b6107c58585856116df565b506001949350505050565b5f828152600860205260409020600101546107ea8161173c565b6107f48383611746565b50505050565b5f6108036117d7565b905090565b6001600160a01b03811633146108315760405163334bd91960e11b815260040160405180910390fd5b61083b8282611900565b505050565b7f65d7a28e3265b37a6474929f336521b332c1681b933f6cb9f3376673440d862a61086a8161173c565b6107aa61196b565b6107aa3382611635565b60106020525f90815260409020805460018201546002830180546001600160a01b039093169391926108ad9061248a565b80601f01602080910402602001604051908101604052809291908181526020018280546108d99061248a565b80156109245780601f106108fb57610100808354040283529160200191610924565b820191905f5260205f20905b81548152906001019060200180831161090757829003601f168201915b50505050600383015460049093015491929160ff16905085565b5f6109488161173c565b600e80549083905560408051828152602081018590527f8195465fc602a463ff34f3eb107d75631c2ea6b48ea4c57707935beb2b5f01ad910160405180910390a1505050565b7f9f2df0fed2c77648de5860a4cc508cd0818c85b8b8a1ab4ceeef8d981c8956a66109b88161173c565b6109c06115f4565b6109c861161a565b835f036109e85760405163115b5b3b60e21b815260040160405180910390fd5b6001600160a01b038516610a0f5760405163776cceeb60e01b815260040160405180910390fd5b5f868152600a602052604090206006015415610a415760405163d4e40cc560e01b815260048101879052602401610732565b5f610a5485670de0b6b3a76400006124e9565b90505f610a5f6119bd565b335f908152600f60209081526040808320848452909152902054600e5491925090610a8a84836124d6565b1115610ad85733828483600e54610aa19190612500565b6040516385d4e8b960e01b81526001600160a01b039094166004850152602484019290925260448301526064820152608401610732565b6040518061010001604052808a8152602001336001600160a01b03168152602001896001600160a01b0316815260200188815260200184815260200187878080601f0160208091040260200160405190810160405280939291908181526020018383808284375f92018290525093855250504260208085019190915260409384018390528d8352600a81529183902084518155918401516001830180546001600160a01b03199081166001600160a01b039384161790915593850151600284018054909516911617909255606083015160038201556080830151600482015560a08301519091506005820190610bce9082612572565b5060c0820151600682015560e0909101516007909101805460ff1916911515919091179055600b80546001810182555f9182527f0175b7a638427703f0dbe7bb9bbf987a2551717b34e79f33b5b1008d1fa01db9018a9055600c8054899290610c389084906124d6565b9091555050335f908152600f6020908152604080832085845290915281208054859290610c669084906124d6565b90915550610c76905088846119d8565b336001600160a01b0316886001600160a01b03168a7f3d96b5b6d172e7f0a16eb1ef928c85057af102654b3d790ba4ccf2b4979949d08a878b8b604051610cc0949392919061262e565b60405180910390a4505050610ce160015f805160206126c583398151915255565b505050505050565b610cf4823383611669565b610cfe8282611635565b5050565b6001600160a01b0381165f9081526007602052604081205461061f565b7f65d7a28e3265b37a6474929f336521b332c1681b933f6cb9f3376673440d862a610d498161173c565b6107aa611a0c565b5f6060805f805f6060610d62611a49565b610d6a611a76565b604080515f80825260208201909252600f60f81b9b939a50919850469750309650945092509050565b5f9182526008602090815260408084206001600160a01b0393909316845291905290205460ff1690565b6060600480546106349061248a565b600a6020525f908152604090208054600182015460028301546003840154600485015460058601805495966001600160a01b0395861696959094169492939192610e159061248a565b80601f0160208091040260200160405190810160405280929190818152602001828054610e419061248a565b8015610e8c5780601f10610e6357610100808354040283529160200191610e8c565b820191905f5260205f20905b815481529060010190602001808311610e6f57829003601f168201915b50505050600683015460079093015491929160ff16905088565b600b8181548110610eb5575f80fd5b5f91825260209091200154905081565b5f336106c28185856116df565b610eda6115f4565b825f03610efa5760405163115b5b3b60e21b815260040160405180910390fd5b5f8481526010602052604090206004015460ff1615610f2f5760405163171f5b6760e21b815260048101859052602401610732565b6040518060a00160405280336001600160a01b0316815260200184815260200183838080601f0160208091040260200160405190810160405280939291908181526020018383808284375f920182905250938552505042602080850191909152600160409485018190528984526010825292849020855181546001600160a01b0319166001600160a01b03909116178155908501519281019290925550908201516002820190610fdf9082612572565b50606082015160038201556080909101516004909101805460ff1916911515919091179055604051838152339085907f1665e1c97806685a93c554916a5120e8af7533d54614518edcff6f400d8a7d08906020015b60405180910390a350505050565b6001600160a01b0381165f908152600f602052604081208190816110646119bd565b81526020019081526020015f2054905080600e5411611083575f611091565b80600e546110919190612500565b9392505050565b7f0ce23c3e399818cfee81a7ab0880f714e53d7672b08df0fa62f2843416e1ea096110c28161173c565b6110ca6115f4565b6110d261161a565b5f838152601060209081526040808320815160a08101835281546001600160a01b0316815260018201549381019390935260028101805491928401916111179061248a565b80601f01602080910402602001604051908101604052809291908181526020018280546111439061248a565b801561118e5780601f106111655761010080835404028352916020019161118e565b820191905f5260205f20905b81548152906001019060200180831161117157829003601f168201915b50505091835250506003820154602082015260049091015460ff16151560409091015260808101519091506111d95760405163f734cb4960e01b815260048101859052602401610732565b5f84815260106020526040812080546001600160a01b031916815560018101829055906112096002830182611ffd565b505f6003820155600401805460ff191690556040518315158152339085907f6f11eb56706210ab553ed7761038487279a5868a1bec8b4d960cd7d5463782e49060200160405180910390a38215611476575f8442604051602001611277929190918252602082015260400190565b6040516020818303038152906040528051906020012090505f8260200151670de0b6b3a76400006112a891906124e9565b90505f6112b36119bd565b604080516101008101825285815233602080830191825288516001600160a01b039081168486019081528a83015160608601908152608086018a81528c88015160a088019081524260c08901525f60e089018190528d8152600a909652979094208651815594516001860180549185166001600160a01b031992831617905591516002860180549190941692169190911790915551600383015551600482015591519293509160058201906113689082612572565b5060c0820151600682015560e0909101516007909101805460ff1916911515919091179055600b80546001810182555f9182527f0175b7a638427703f0dbe7bb9bbf987a2551717b34e79f33b5b1008d1fa01db9018490556020850151600c8054919290916113d89084906124d6565b9091555050335f908152600f60209081526040808320848452909152812080548492906114069084906124d6565b9091555050835161141790836119d8565b336001600160a01b0316845f01516001600160a01b0316847f3d96b5b6d172e7f0a16eb1ef928c85057af102654b3d790ba4ccf2b4979949d0876020015186896040015160405161146a9392919061266a565b60405180910390a45050505b5061083b60015f805160206126c583398151915255565b834211156114b15760405163313c898160e11b815260048101859052602401610732565b5f7f6e71edae12b1b97f4d1f60370fef10105fa2faae0126114a169c64845d6126c98888886114fc8c6001600160a01b03165f90815260076020526040902080546001810190915590565b6040805160208101969096526001600160a01b0394851690860152929091166060840152608083015260a082015260c0810186905260e0016040516020818303038152906040528051906020012090505f61155682611aa3565b90505f61156582878787611acf565b9050896001600160a01b0316816001600160a01b0316146115ac576040516325c0072360e11b81526001600160a01b0380831660048301528b166024820152604401610732565b6115b78a8a8a6115e7565b50505050505050505050565b5f828152600860205260409020600101546115dd8161173c565b6107f48383611900565b61083b8383836001611afb565b60095460ff16156116185760405163d93c066560e01b815260040160405180910390fd5b565b611622611bbf565b60025f805160206126c583398151915255565b6001600160a01b03821661165e57604051634b637e8f60e11b81525f6004820152602401610732565b610cfe825f83611bee565b6001600160a01b038381165f908152600160209081526040808320938616835292905220545f198110156107f457818110156116d157604051637dc7a0d960e11b81526001600160a01b03841660048201526024810182905260448101839052606401610732565b6107f484848484035f611afb565b6001600160a01b03831661170857604051634b637e8f60e11b81525f6004820152602401610732565b6001600160a01b0382166117315760405163ec442f0560e01b81525f6004820152602401610732565b61083b838383611bee565b6107aa8133611d14565b5f6117518383610d93565b6117d0575f8381526008602090815260408083206001600160a01b03861684529091529020805460ff191660011790556117883390565b6001600160a01b0316826001600160a01b0316847f2f8788117e7eff1d82e926ec794901d17c78024a50270940304540a733656f0d60405160405180910390a450600161061f565b505f61061f565b5f306001600160a01b037f00000000000000000000000000000000000000000000000000000000000000001614801561182f57507f000000000000000000000000000000000000000000000000000000000000000046145b1561185957507f000000000000000000000000000000000000000000000000000000000000000090565b610803604080517f8b73c3c69bb8fe3d512ecc4cf759cc79239f7b179b0ffacaa9a75d522b39400f60208201527f0000000000000000000000000000000000000000000000000000000000000000918101919091527f000000000000000000000000000000000000000000000000000000000000000060608201524660808201523060a08201525f9060c00160405160208183030381529060405280519060200120905090565b5f61190b8383610d93565b156117d0575f8381526008602090815260408083206001600160a01b0386168085529252808320805460ff1916905551339286917ff6391f5c32d9c69d2a47ea670b442974b53935d1edc7fd64eb21e047a839171b9190a450600161061f565b611973611d4d565b6009805460ff191690557f5db9ee0a495bf2e6ff9c91a7834c1ba4fdd244a5e8aa4e537bd38aeae4b073aa335b6040516001600160a01b03909116815260200160405180910390a1565b5f6119cc6301e1338042612691565b610803906107b26124d6565b6001600160a01b038216611a015760405163ec442f0560e01b81525f6004820152602401610732565b610cfe5f8383611bee565b611a146115f4565b6009805460ff191660011790557f62e78cea01bee320cd4e420270b5ea74000d11b0c9f74754ebdbfc544b05a2586119a03390565b60606108037f00000000000000000000000000000000000000000000000000000000000000006005611d70565b60606108037f00000000000000000000000000000000000000000000000000000000000000006006611d70565b5f61061f611aaf6117d7565b8360405161190160f01b8152600281019290925260228201526042902090565b5f805f80611adf88888888611e19565b925092509250611aef8282611ee1565b50909695505050505050565b6001600160a01b038416611b245760405163e602df0560e01b81525f6004820152602401610732565b6001600160a01b038316611b4d57604051634a1406b160e11b81525f6004820152602401610732565b6001600160a01b038085165f90815260016020908152604080832093871683529290522082905580156107f457826001600160a01b0316846001600160a01b03167f8c5be1e5ebec7d5bd14f71427d1e84f3dd0314c0f7b2291e5b200ac8c7c3b9258460405161103491815260200190565b5f805160206126c58339815191525460020361161857604051633ee5aeb560e01b815260040160405180910390fd5b6001600160a01b038316611c18578060025f828254611c0d91906124d6565b90915550611c889050565b6001600160a01b0383165f9081526020819052604090205481811015611c6a5760405163391434e360e21b81526001600160a01b03851660048201526024810182905260448101839052606401610732565b6001600160a01b0384165f9081526020819052604090209082900390555b6001600160a01b038216611ca457600280548290039055611cc2565b6001600160a01b0382165f9081526020819052604090208054820190555b816001600160a01b0316836001600160a01b03167fddf252ad1be2c89b69c2b068fc378daa952ba7f163c4a11628f55a4df523b3ef83604051611d0791815260200190565b60405180910390a3505050565b611d1e8282610d93565b610cfe5760405163e2517d3f60e01b81526001600160a01b038216600482015260248101839052604401610732565b60095460ff1661161857604051638dfc202b60e01b815260040160405180910390fd5b606060ff8314611d8a57611d8383611f99565b905061061f565b818054611d969061248a565b80601f0160208091040260200160405190810160405280929190818152602001828054611dc29061248a565b8015611e0d5780601f10611de457610100808354040283529160200191611e0d565b820191905f5260205f20905b815481529060010190602001808311611df057829003601f168201915b5050505050905061061f565b5f80807f7fffffffffffffffffffffffffffffff5d576e7357a4501ddfe92f46681b20a0841115611e5257505f91506003905082611ed7565b604080515f808252602082018084528a905260ff891692820192909252606081018790526080810186905260019060a0016020604051602081039080840390855afa158015611ea3573d5f803e3d5ffd5b5050604051601f1901519150506001600160a01b038116611ece57505f925060019150829050611ed7565b92505f91508190505b9450945094915050565b5f826003811115611ef457611ef46126b0565b03611efd575050565b6001826003811115611f1157611f116126b0565b03611f2f5760405163f645eedf60e01b815260040160405180910390fd5b6002826003811115611f4357611f436126b0565b03611f645760405163fce698f760e01b815260048101829052602401610732565b6003826003811115611f7857611f786126b0565b03610cfe576040516335e2f38360e21b815260048101829052602401610732565b60605f611fa583611fd6565b6040805160208082528183019092529192505f91906020820181803683375050509182525060208101929092525090565b5f60ff8216601f81111561061f57604051632cd44ac360e21b815260040160405180910390fd5b5080546120099061248a565b5f825580601f10612018575050565b601f0160209004905f5260205f20908101906107aa91905b80821115612043575f8155600101612030565b5090565b5f60208284031215612057575f80fd5b81356001600160e01b031981168114611091575f80fd5b5f81518084525f5b8181101561209257602081850181015186830182015201612076565b505f602082860101526020601f19601f83011685010191505092915050565b602081525f611091602083018461206e565b80356001600160a01b03811681146120d9575f80fd5b919050565b5f80604083850312156120ef575f80fd5b6120f8836120c3565b946020939093013593505050565b5f60208284031215612116575f80fd5b5035919050565b5f805f6060848603121561212f575f80fd5b612138846120c3565b9250612146602085016120c3565b9150604084013590509250925092565b5f8060408385031215612167575f80fd5b82359150612177602084016120c3565b90509250929050565b60018060a01b038616815284602082015260a060408201525f6121a660a083018661206e565b6060830194909452509015156080909101529392505050565b5f602082840312156121cf575f80fd5b611091826120c3565b5f8083601f8401126121e8575f80fd5b50813567ffffffffffffffff8111156121ff575f80fd5b602083019150836020828501011115612216575f80fd5b9250929050565b5f805f805f60808688031215612231575f80fd5b85359450612241602087016120c3565b935060408601359250606086013567ffffffffffffffff811115612263575f80fd5b61226f888289016121d8565b969995985093965092949392505050565b60ff60f81b881681525f602060e060208401526122a060e084018a61206e565b83810360408501526122b2818a61206e565b606085018990526001600160a01b038816608086015260a0850187905284810360c0860152855180825260208088019350909101905f5b81811015612305578351835292840192918401916001016122e9565b50909c9b505050505050505050505050565b8881526001600160a01b03888116602083015287166040820152606081018690526080810185905261010060a082018190525f906123578382018761206e565b60c0840195909552505090151560e0909101529695505050505050565b5f805f8060608587031215612387575f80fd5b8435935060208501359250604085013567ffffffffffffffff8111156123ab575f80fd5b6123b7878288016121d8565b95989497509550505050565b5f80604083850312156123d4575f80fd5b82359150602083013580151581146123ea575f80fd5b809150509250929050565b5f805f805f805f60e0888a03121561240b575f80fd5b612414886120c3565b9650612422602089016120c3565b95506040880135945060608801359350608088013560ff81168114612445575f80fd5b9699959850939692959460a0840135945060c09093013592915050565b5f8060408385031215612473575f80fd5b61247c836120c3565b9150612177602084016120c3565b600181811c9082168061249e57607f821691505b6020821081036124bc57634e487b7160e01b5f52602260045260245ffd5b50919050565b634e487b7160e01b5f52601160045260245ffd5b8082018082111561061f5761061f6124c2565b808202811582820484141761061f5761061f6124c2565b8181038181111561061f5761061f6124c2565b634e487b7160e01b5f52604160045260245ffd5b601f82111561083b57805f5260205f20601f840160051c8101602085101561254c5750805b601f840160051c820191505b8181101561256b575f8155600101612558565b5050505050565b815167ffffffffffffffff81111561258c5761258c612513565b6125a08161259a845461248a565b84612527565b602080601f8311600181146125d3575f84156125bc5750858301515b5f19600386901b1c1916600185901b178555610ce1565b5f85815260208120601f198616915b82811015612601578886015182559484019460019091019084016125e2565b508582101561261e57878501515f19600388901b60f8161c191681555b5050505050600190811b01905550565b84815283602082015260606040820152816060820152818360808301375f818301608090810191909152601f909201601f191601019392505050565b838152826020820152606060408201525f612688606083018461206e565b95945050505050565b5f826126ab57634e487b7160e01b5f52601260045260245ffd5b500490565b634e487b7160e01b5f52602160045260245ffdfe9b779b17422d0df92223018b32b4d1fa46e071723d6817e2486d003becc55f00a26469706673582212202980b4a5a6319614e28e37b17fb32440d85ee60d07ca5846244c9bc06ce5d2d064736f6c63430008180033","opcodes":"PUSH2 0x160 PUSH1 0x40 MSTORE CALLVALUE DUP1 ISZERO PUSH3 0x11 JUMPI PUSH0 DUP1 REVERT JUMPDEST POP PUSH1 0x40 MLOAD PUSH3 0x2D03 CODESIZE SUB DUP1 PUSH3 0x2D03 DUP4 CODECOPY DUP2 ADD PUSH1 0x40 DUP2 SWAP1 MSTORE PUSH3 0x34 SWAP2 PUSH3 0x38C JUMP JUMPDEST PUSH1 0x40 MLOAD DUP1 PUSH1 0x40 ADD PUSH1 0x40 MSTORE DUP1 PUSH1 0xB DUP2 MSTORE PUSH1 0x20 ADD PUSH11 0x11DC99595B90DC99591A5D PUSH1 0xAA SHL DUP2 MSTORE POP DUP1 PUSH1 0x40 MLOAD DUP1 PUSH1 0x40 ADD PUSH1 0x40 MSTORE DUP1 PUSH1 0x1 DUP2 MSTORE PUSH1 0x20 ADD PUSH1 0x31 PUSH1 0xF8 SHL DUP2 MSTORE POP PUSH1 0x40 MLOAD DUP1 PUSH1 0x40 ADD PUSH1 0x40 MSTORE DUP1 PUSH1 0xB DUP2 MSTORE PUSH1 0x20 ADD PUSH11 0x11DC99595B90DC99591A5D PUSH1 0xAA SHL DUP2 MSTORE POP PUSH1 0x40 MLOAD DUP1 PUSH1 0x40 ADD PUSH1 0x40 MSTORE DUP1 PUSH1 0x3 DUP2 MSTORE PUSH1 0x20 ADD PUSH3 0x23A1A9 PUSH1 0xE9 SHL DUP2 MSTORE POP DUP2 PUSH1 0x3 SWAP1 DUP2 PUSH3 0xC4 SWAP2 SWAP1 PUSH3 0x459 JUMP JUMPDEST POP PUSH1 0x4 PUSH3 0xD3 DUP3 DUP3 PUSH3 0x459 JUMP JUMPDEST POP PUSH3 0xE5 SWAP2 POP DUP4 SWAP1 POP PUSH1 0x5 PUSH3 0x25A JUMP JUMPDEST PUSH2 0x120 MSTORE PUSH3 0xF6 DUP2 PUSH1 0x6 PUSH3 0x25A JUMP JUMPDEST PUSH2 0x140 MSTORE DUP2 MLOAD PUSH1 0x20 DUP1 DUP5 ADD SWAP2 SWAP1 SWAP2 KECCAK256 PUSH1 0xE0 MSTORE DUP2 MLOAD SWAP1 DUP3 ADD KECCAK256 PUSH2 0x100 MSTORE CHAINID PUSH1 0xA0 MSTORE PUSH3 0x183 PUSH1 0xE0 MLOAD PUSH2 0x100 MLOAD PUSH1 0x40 DUP1 MLOAD PUSH32 0x8B73C3C69BB8FE3D512ECC4CF759CC79239F7B179B0FFACAA9A75D522B39400F PUSH1 0x20 DUP3 ADD MSTORE SWAP1 DUP2 ADD SWAP3 SWAP1 SWAP3 MSTORE PUSH1 0x60 DUP3 ADD MSTORE CHAINID PUSH1 0x80 DUP3 ADD MSTORE ADDRESS PUSH1 0xA0 DUP3 ADD MSTORE PUSH0 SWAP1 PUSH1 0xC0 ADD PUSH1 0x40 MLOAD PUSH1 0x20 DUP2 DUP4 SUB SUB DUP2 MSTORE SWAP1 PUSH1 0x40 MSTORE DUP1 MLOAD SWAP1 PUSH1 0x20 ADD KECCAK256 SWAP1 POP SWAP1 JUMP JUMPDEST PUSH1 0x80 MSTORE POP POP ADDRESS PUSH1 0xC0 MSTORE POP PUSH1 0x1 PUSH32 0x9B779B17422D0DF92223018B32B4D1FA46E071723D6817E2486D003BECC55F00 SSTORE PUSH3 0x1BD PUSH0 DUP3 PUSH3 0x292 JUMP JUMPDEST POP PUSH3 0x1EA PUSH32 0x9F2DF0FED2C77648DE5860A4CC508CD0818C85B8B8A1AB4CEEEF8D981C8956A6 DUP3 PUSH3 0x292 JUMP JUMPDEST POP PUSH3 0x217 PUSH32 0xCE23C3E399818CFEE81A7AB0880F714E53D7672B08DF0FA62F2843416E1EA09 DUP3 PUSH3 0x292 JUMP JUMPDEST POP PUSH3 0x244 PUSH32 0x65D7A28E3265B37A6474929F336521B332C1681B933F6CB9F3376673440D862A DUP3 PUSH3 0x292 JUMP JUMPDEST POP POP PUSH10 0xD3C21BCECCEDA1000000 PUSH1 0xE SSTORE PUSH3 0x597 JUMP JUMPDEST PUSH0 PUSH1 0x20 DUP4 MLOAD LT ISZERO PUSH3 0x279 JUMPI PUSH3 0x271 DUP4 PUSH3 0x341 JUMP JUMPDEST SWAP1 POP PUSH3 0x28C JUMP JUMPDEST DUP2 PUSH3 0x286 DUP5 DUP3 PUSH3 0x459 JUMP JUMPDEST POP PUSH1 0xFF SWAP1 POP JUMPDEST SWAP3 SWAP2 POP POP JUMP JUMPDEST PUSH0 DUP3 DUP2 MSTORE PUSH1 0x8 PUSH1 0x20 SWAP1 DUP2 MSTORE PUSH1 0x40 DUP1 DUP4 KECCAK256 PUSH1 0x1 PUSH1 0x1 PUSH1 0xA0 SHL SUB DUP6 AND DUP5 MSTORE SWAP1 SWAP2 MSTORE DUP2 KECCAK256 SLOAD PUSH1 0xFF AND PUSH3 0x339 JUMPI PUSH0 DUP4 DUP2 MSTORE PUSH1 0x8 PUSH1 0x20 SWAP1 DUP2 MSTORE PUSH1 0x40 DUP1 DUP4 KECCAK256 PUSH1 0x1 PUSH1 0x1 PUSH1 0xA0 SHL SUB DUP7 AND DUP5 MSTORE SWAP1 SWAP2 MSTORE SWAP1 KECCAK256 DUP1 SLOAD PUSH1 0xFF NOT AND PUSH1 0x1 OR SWAP1 SSTORE PUSH3 0x2F0 CALLER SWAP1 JUMP JUMPDEST PUSH1 0x1 PUSH1 0x1 PUSH1 0xA0 SHL SUB AND DUP3 PUSH1 0x1 PUSH1 0x1 PUSH1 0xA0 SHL SUB AND DUP5 PUSH32 0x2F8788117E7EFF1D82E926EC794901D17C78024A50270940304540A733656F0D PUSH1 0x40 MLOAD PUSH1 0x40 MLOAD DUP1 SWAP2 SUB SWAP1 LOG4 POP PUSH1 0x1 PUSH3 0x28C JUMP JUMPDEST POP PUSH0 PUSH3 0x28C JUMP JUMPDEST PUSH0 DUP1 DUP3 SWAP1 POP PUSH1 0x1F DUP2 MLOAD GT ISZERO PUSH3 0x377 JUMPI DUP3 PUSH1 0x40 MLOAD PUSH4 0x305A27A9 PUSH1 0xE0 SHL DUP2 MSTORE PUSH1 0x4 ADD PUSH3 0x36E SWAP2 SWAP1 PUSH3 0x525 JUMP JUMPDEST PUSH1 0x40 MLOAD DUP1 SWAP2 SUB SWAP1 REVERT JUMPDEST DUP1 MLOAD PUSH3 0x384 DUP3 PUSH3 0x573 JUMP JUMPDEST OR SWAP4 SWAP3 POP POP POP JUMP JUMPDEST PUSH0 PUSH1 0x20 DUP3 DUP5 SUB SLT ISZERO PUSH3 0x39D JUMPI PUSH0 DUP1 REVERT JUMPDEST DUP2 MLOAD PUSH1 0x1 PUSH1 0x1 PUSH1 0xA0 SHL SUB DUP2 AND DUP2 EQ PUSH3 0x3B4 JUMPI PUSH0 DUP1 REVERT JUMPDEST SWAP4 SWAP3 POP POP POP JUMP JUMPDEST PUSH4 0x4E487B71 PUSH1 0xE0 SHL PUSH0 MSTORE PUSH1 0x41 PUSH1 0x4 MSTORE PUSH1 0x24 PUSH0 REVERT JUMPDEST PUSH1 0x1 DUP2 DUP2 SHR SWAP1 DUP3 AND DUP1 PUSH3 0x3E4 JUMPI PUSH1 0x7F DUP3 AND SWAP2 POP JUMPDEST PUSH1 0x20 DUP3 LT DUP2 SUB PUSH3 0x403 JUMPI PUSH4 0x4E487B71 PUSH1 0xE0 SHL PUSH0 MSTORE PUSH1 0x22 PUSH1 0x4 MSTORE PUSH1 0x24 PUSH0 REVERT JUMPDEST POP SWAP2 SWAP1 POP JUMP JUMPDEST PUSH1 0x1F DUP3 GT ISZERO PUSH3 0x454 JUMPI DUP1 PUSH0 MSTORE PUSH1 0x20 PUSH0 KECCAK256 PUSH1 0x1F DUP5 ADD PUSH1 0x5 SHR DUP2 ADD PUSH1 0x20 DUP6 LT ISZERO PUSH3 0x430 JUMPI POP DUP1 JUMPDEST PUSH1 0x1F DUP5 ADD PUSH1 0x5 SHR DUP3 ADD SWAP2 POP JUMPDEST DUP2 DUP2 LT ISZERO PUSH3 0x451 JUMPI PUSH0 DUP2 SSTORE PUSH1 0x1 ADD PUSH3 0x43C JUMP JUMPDEST POP POP JUMPDEST POP POP POP JUMP JUMPDEST DUP2 MLOAD PUSH1 0x1 PUSH1 0x1 PUSH1 0x40 SHL SUB DUP2 GT ISZERO PUSH3 0x475 JUMPI PUSH3 0x475 PUSH3 0x3BB JUMP JUMPDEST PUSH3 0x48D DUP2 PUSH3 0x486 DUP5 SLOAD PUSH3 0x3CF JUMP JUMPDEST DUP5 PUSH3 0x409 JUMP JUMPDEST PUSH1 0x20 DUP1 PUSH1 0x1F DUP4 GT PUSH1 0x1 DUP2 EQ PUSH3 0x4C3 JUMPI PUSH0 DUP5 ISZERO PUSH3 0x4AB JUMPI POP DUP6 DUP4 ADD MLOAD JUMPDEST PUSH0 NOT PUSH1 0x3 DUP7 SWAP1 SHL SHR NOT AND PUSH1 0x1 DUP6 SWAP1 SHL OR DUP6 SSTORE PUSH3 0x51D JUMP JUMPDEST PUSH0 DUP6 DUP2 MSTORE PUSH1 0x20 DUP2 KECCAK256 PUSH1 0x1F NOT DUP7 AND SWAP2 JUMPDEST DUP3 DUP2 LT ISZERO PUSH3 0x4F3 JUMPI DUP9 DUP7 ADD MLOAD DUP3 SSTORE SWAP5 DUP5 ADD SWAP5 PUSH1 0x1 SWAP1 SWAP2 ADD SWAP1 DUP5 ADD PUSH3 0x4D2 JUMP JUMPDEST POP DUP6 DUP3 LT ISZERO PUSH3 0x511 JUMPI DUP8 DUP6 ADD MLOAD PUSH0 NOT PUSH1 0x3 DUP9 SWAP1 SHL PUSH1 0xF8 AND SHR NOT AND DUP2 SSTORE JUMPDEST POP POP PUSH1 0x1 DUP5 PUSH1 0x1 SHL ADD DUP6 SSTORE JUMPDEST POP POP POP POP POP POP JUMP JUMPDEST PUSH0 PUSH1 0x20 DUP1 DUP4 MSTORE DUP4 MLOAD DUP1 PUSH1 0x20 DUP6 ADD MSTORE PUSH0 JUMPDEST DUP2 DUP2 LT ISZERO PUSH3 0x553 JUMPI DUP6 DUP2 ADD DUP4 ADD MLOAD DUP6 DUP3 ADD PUSH1 0x40 ADD MSTORE DUP3 ADD PUSH3 0x535 JUMP JUMPDEST POP PUSH0 PUSH1 0x40 DUP3 DUP7 ADD ADD MSTORE PUSH1 0x40 PUSH1 0x1F NOT PUSH1 0x1F DUP4 ADD AND DUP6 ADD ADD SWAP3 POP POP POP SWAP3 SWAP2 POP POP JUMP JUMPDEST DUP1 MLOAD PUSH1 0x20 DUP1 DUP4 ADD MLOAD SWAP2 SWAP1 DUP2 LT ISZERO PUSH3 0x403 JUMPI PUSH0 NOT PUSH1 0x20 SWAP2 SWAP1 SWAP2 SUB PUSH1 0x3 SHL SHL AND SWAP2 SWAP1 POP JUMP JUMPDEST PUSH1 0x80 MLOAD PUSH1 0xA0 MLOAD PUSH1 0xC0 MLOAD PUSH1 0xE0 MLOAD PUSH2 0x100 MLOAD PUSH2 0x120 MLOAD PUSH2 0x140 MLOAD PUSH2 0x271A PUSH3 0x5E9 PUSH0 CODECOPY PUSH0 PUSH2 0x1A7D ADD MSTORE PUSH0 PUSH2 0x1A50 ADD MSTORE PUSH0 PUSH2 0x18B0 ADD MSTORE PUSH0 PUSH2 0x1888 ADD MSTORE PUSH0 PUSH2 0x17E3 ADD MSTORE PUSH0 PUSH2 0x180D ADD MSTORE PUSH0 PUSH2 0x1837 ADD MSTORE PUSH2 0x271A PUSH0 RETURN INVALID PUSH1 0x80 PUSH1 0x40 MSTORE CALLVALUE DUP1 ISZERO PUSH2 0xF JUMPI PUSH0 DUP1 REVERT JUMPDEST POP PUSH1 0x4 CALLDATASIZE LT PUSH2 0x255 JUMPI PUSH0 CALLDATALOAD PUSH1 0xE0 SHR DUP1 PUSH4 0x7ECEBE00 GT PUSH2 0x140 JUMPI DUP1 PUSH4 0xB6FB8D45 GT PUSH2 0xBF JUMPI DUP1 PUSH4 0xD505ACCF GT PUSH2 0x84 JUMPI DUP1 PUSH4 0xD505ACCF EQ PUSH2 0x51C JUMPI DUP1 PUSH4 0xD5391393 EQ PUSH2 0x52F JUMPI DUP1 PUSH4 0xD547741F EQ PUSH2 0x556 JUMPI DUP1 PUSH4 0xDD62ED3E EQ PUSH2 0x569 JUMPI DUP1 PUSH4 0xE63AB1E9 EQ PUSH2 0x5A1 JUMPI DUP1 PUSH4 0xE7705DB6 EQ PUSH2 0x5C8 JUMPI PUSH0 DUP1 REVERT JUMPDEST DUP1 PUSH4 0xB6FB8D45 EQ PUSH2 0x4DC JUMPI DUP1 PUSH4 0xBA870686 EQ PUSH2 0x4E5 JUMPI DUP1 PUSH4 0xBB85EE0E EQ PUSH2 0x4ED JUMPI DUP1 PUSH4 0xC308B92C EQ PUSH2 0x500 JUMPI DUP1 PUSH4 0xD05B9D8E EQ PUSH2 0x513 JUMPI PUSH0 DUP1 REVERT JUMPDEST DUP1 PUSH4 0x96107979 GT PUSH2 0x105 JUMPI DUP1 PUSH4 0x96107979 EQ PUSH2 0x475 JUMPI DUP1 PUSH4 0x998F6AC0 EQ PUSH2 0x49C JUMPI DUP1 PUSH4 0xA217FDDF EQ PUSH2 0x4AF JUMPI DUP1 PUSH4 0xA9059CBB EQ PUSH2 0x4B6 JUMPI DUP1 PUSH4 0xB38F37C4 EQ PUSH2 0x4C9 JUMPI PUSH0 DUP1 REVERT JUMPDEST DUP1 PUSH4 0x7ECEBE00 EQ PUSH2 0x424 JUMPI DUP1 PUSH4 0x8456CB59 EQ PUSH2 0x437 JUMPI DUP1 PUSH4 0x84B0196E EQ PUSH2 0x43F JUMPI DUP1 PUSH4 0x91D14854 EQ PUSH2 0x45A JUMPI DUP1 PUSH4 0x95D89B41 EQ PUSH2 0x46D JUMPI PUSH0 DUP1 REVERT JUMPDEST DUP1 PUSH4 0x3644E515 GT PUSH2 0x1D7 JUMPI DUP1 PUSH4 0x5C975ABB GT PUSH2 0x19C JUMPI DUP1 PUSH4 0x5C975ABB EQ PUSH2 0x394 JUMPI DUP1 PUSH4 0x5E86F506 EQ PUSH2 0x39F JUMPI DUP1 PUSH4 0x623EA019 EQ PUSH2 0x3C3 JUMPI DUP1 PUSH4 0x70A08231 EQ PUSH2 0x3D6 JUMPI DUP1 PUSH4 0x76FF2EDA EQ PUSH2 0x3FE JUMPI DUP1 PUSH4 0x79CC6790 EQ PUSH2 0x411 JUMPI PUSH0 DUP1 REVERT JUMPDEST DUP1 PUSH4 0x3644E515 EQ PUSH2 0x334 JUMPI DUP1 PUSH4 0x36568ABE EQ PUSH2 0x33C JUMPI DUP1 PUSH4 0x3F4BA83A EQ PUSH2 0x34F JUMPI DUP1 PUSH4 0x42966C68 EQ PUSH2 0x357 JUMPI DUP1 PUSH4 0x5C3822DD EQ PUSH2 0x36A JUMPI PUSH0 DUP1 REVERT JUMPDEST DUP1 PUSH4 0x2039E339 GT PUSH2 0x21D JUMPI DUP1 PUSH4 0x2039E339 EQ PUSH2 0x2C8 JUMPI DUP1 PUSH4 0x23B872DD EQ PUSH2 0x2DD JUMPI DUP1 PUSH4 0x248A9CA3 EQ PUSH2 0x2F0 JUMPI DUP1 PUSH4 0x2F2FF15D EQ PUSH2 0x312 JUMPI DUP1 PUSH4 0x313CE567 EQ PUSH2 0x325 JUMPI PUSH0 DUP1 REVERT JUMPDEST DUP1 PUSH4 0x1FFC9A7 EQ PUSH2 0x259 JUMPI DUP1 PUSH4 0x6FDDE03 EQ PUSH2 0x281 JUMPI DUP1 PUSH4 0x95EA7B3 EQ PUSH2 0x296 JUMPI DUP1 PUSH4 0xA24C5BB EQ PUSH2 0x2A9 JUMPI DUP1 PUSH4 0x18160DDD EQ PUSH2 0x2C0 JUMPI JUMPDEST PUSH0 DUP1 REVERT JUMPDEST PUSH2 0x26C PUSH2 0x267 CALLDATASIZE PUSH1 0x4 PUSH2 0x2047 JUMP JUMPDEST PUSH2 0x5EF JUMP JUMPDEST PUSH1 0x40 MLOAD SWAP1 ISZERO ISZERO DUP2 MSTORE PUSH1 0x20 ADD JUMPDEST PUSH1 0x40 MLOAD DUP1 SWAP2 SUB SWAP1 RETURN JUMPDEST PUSH2 0x289 PUSH2 0x625 JUMP JUMPDEST PUSH1 0x40 MLOAD PUSH2 0x278 SWAP2 SWAP1 PUSH2 0x20B1 JUMP JUMPDEST PUSH2 0x26C PUSH2 0x2A4 CALLDATASIZE PUSH1 0x4 PUSH2 0x20DE JUMP JUMPDEST PUSH2 0x6B5 JUMP JUMPDEST PUSH2 0x2B2 PUSH1 0xE SLOAD DUP2 JUMP JUMPDEST PUSH1 0x40 MLOAD SWAP1 DUP2 MSTORE PUSH1 0x20 ADD PUSH2 0x278 JUMP JUMPDEST PUSH1 0x2 SLOAD PUSH2 0x2B2 JUMP JUMPDEST PUSH2 0x2DB PUSH2 0x2D6 CALLDATASIZE PUSH1 0x4 PUSH2 0x2106 JUMP JUMPDEST PUSH2 0x6CC JUMP JUMPDEST STOP JUMPDEST PUSH2 0x26C PUSH2 0x2EB CALLDATASIZE PUSH1 0x4 PUSH2 0x211D JUMP JUMPDEST PUSH2 0x7AD JUMP JUMPDEST PUSH2 0x2B2 PUSH2 0x2FE CALLDATASIZE PUSH1 0x4 PUSH2 0x2106 JUMP JUMPDEST PUSH0 SWAP1 DUP2 MSTORE PUSH1 0x8 PUSH1 0x20 MSTORE PUSH1 0x40 SWAP1 KECCAK256 PUSH1 0x1 ADD SLOAD SWAP1 JUMP JUMPDEST PUSH2 0x2DB PUSH2 0x320 CALLDATASIZE PUSH1 0x4 PUSH2 0x2156 JUMP JUMPDEST PUSH2 0x7D0 JUMP JUMPDEST PUSH1 0x40 MLOAD PUSH1 0x12 DUP2 MSTORE PUSH1 0x20 ADD PUSH2 0x278 JUMP JUMPDEST PUSH2 0x2B2 PUSH2 0x7FA JUMP JUMPDEST PUSH2 0x2DB PUSH2 0x34A CALLDATASIZE PUSH1 0x4 PUSH2 0x2156 JUMP JUMPDEST PUSH2 0x808 JUMP JUMPDEST PUSH2 0x2DB PUSH2 0x840 JUMP JUMPDEST PUSH2 0x2DB PUSH2 0x365 CALLDATASIZE PUSH1 0x4 PUSH2 0x2106 JUMP JUMPDEST PUSH2 0x872 JUMP JUMPDEST PUSH2 0x2B2 PUSH2 0x378 CALLDATASIZE PUSH1 0x4 PUSH2 0x20DE JUMP JUMPDEST PUSH1 0xF PUSH1 0x20 SWAP1 DUP2 MSTORE PUSH0 SWAP3 DUP4 MSTORE PUSH1 0x40 DUP1 DUP5 KECCAK256 SWAP1 SWAP2 MSTORE SWAP1 DUP3 MSTORE SWAP1 KECCAK256 SLOAD DUP2 JUMP JUMPDEST PUSH1 0x9 SLOAD PUSH1 0xFF AND PUSH2 0x26C JUMP JUMPDEST PUSH2 0x3B2 PUSH2 0x3AD CALLDATASIZE PUSH1 0x4 PUSH2 0x2106 JUMP JUMPDEST PUSH2 0x87C JUMP JUMPDEST PUSH1 0x40 MLOAD PUSH2 0x278 SWAP6 SWAP5 SWAP4 SWAP3 SWAP2 SWAP1 PUSH2 0x2180 JUMP JUMPDEST PUSH2 0x2DB PUSH2 0x3D1 CALLDATASIZE PUSH1 0x4 PUSH2 0x2106 JUMP JUMPDEST PUSH2 0x93E JUMP JUMPDEST PUSH2 0x2B2 PUSH2 0x3E4 CALLDATASIZE PUSH1 0x4 PUSH2 0x21BF JUMP JUMPDEST PUSH1 0x1 PUSH1 0x1 PUSH1 0xA0 SHL SUB AND PUSH0 SWAP1 DUP2 MSTORE PUSH1 0x20 DUP2 SWAP1 MSTORE PUSH1 0x40 SWAP1 KECCAK256 SLOAD SWAP1 JUMP JUMPDEST PUSH2 0x2DB PUSH2 0x40C CALLDATASIZE PUSH1 0x4 PUSH2 0x221D JUMP JUMPDEST PUSH2 0x98E JUMP JUMPDEST PUSH2 0x2DB PUSH2 0x41F CALLDATASIZE PUSH1 0x4 PUSH2 0x20DE JUMP JUMPDEST PUSH2 0xCE9 JUMP JUMPDEST PUSH2 0x2B2 PUSH2 0x432 CALLDATASIZE PUSH1 0x4 PUSH2 0x21BF JUMP JUMPDEST PUSH2 0xD02 JUMP JUMPDEST PUSH2 0x2DB PUSH2 0xD1F JUMP JUMPDEST PUSH2 0x447 PUSH2 0xD51 JUMP JUMPDEST PUSH1 0x40 MLOAD PUSH2 0x278 SWAP8 SWAP7 SWAP6 SWAP5 SWAP4 SWAP3 SWAP2 SWAP1 PUSH2 0x2280 JUMP JUMPDEST PUSH2 0x26C PUSH2 0x468 CALLDATASIZE PUSH1 0x4 PUSH2 0x2156 JUMP JUMPDEST PUSH2 0xD93 JUMP JUMPDEST PUSH2 0x289 PUSH2 0xDBD JUMP JUMPDEST PUSH2 0x488 PUSH2 0x483 CALLDATASIZE PUSH1 0x4 PUSH2 0x2106 JUMP JUMPDEST PUSH2 0xDCC JUMP JUMPDEST PUSH1 0x40 MLOAD PUSH2 0x278 SWAP9 SWAP8 SWAP7 SWAP6 SWAP5 SWAP4 SWAP3 SWAP2 SWAP1 PUSH2 0x2317 JUMP JUMPDEST PUSH2 0x2B2 PUSH2 0x4AA CALLDATASIZE PUSH1 0x4 PUSH2 0x2106 JUMP JUMPDEST PUSH2 0xEA6 JUMP JUMPDEST PUSH2 0x2B2 PUSH0 DUP2 JUMP JUMPDEST PUSH2 0x26C PUSH2 0x4C4 CALLDATASIZE PUSH1 0x4 PUSH2 0x20DE JUMP JUMPDEST PUSH2 0xEC5 JUMP JUMPDEST PUSH2 0x2DB PUSH2 0x4D7 CALLDATASIZE PUSH1 0x4 PUSH2 0x2374 JUMP JUMPDEST PUSH2 0xED2 JUMP JUMPDEST PUSH2 0x2B2 PUSH1 0xC SLOAD DUP2 JUMP JUMPDEST PUSH1 0xB SLOAD PUSH2 0x2B2 JUMP JUMPDEST PUSH2 0x2B2 PUSH2 0x4FB CALLDATASIZE PUSH1 0x4 PUSH2 0x21BF JUMP JUMPDEST PUSH2 0x1042 JUMP JUMPDEST PUSH2 0x2DB PUSH2 0x50E CALLDATASIZE PUSH1 0x4 PUSH2 0x23C3 JUMP JUMPDEST PUSH2 0x1098 JUMP JUMPDEST PUSH2 0x2B2 PUSH1 0xD SLOAD DUP2 JUMP JUMPDEST PUSH2 0x2DB PUSH2 0x52A CALLDATASIZE PUSH1 0x4 PUSH2 0x23F5 JUMP JUMPDEST PUSH2 0x148D JUMP JUMPDEST PUSH2 0x2B2 PUSH32 0x9F2DF0FED2C77648DE5860A4CC508CD0818C85B8B8A1AB4CEEEF8D981C8956A6 DUP2 JUMP JUMPDEST PUSH2 0x2DB PUSH2 0x564 CALLDATASIZE PUSH1 0x4 PUSH2 0x2156 JUMP JUMPDEST PUSH2 0x15C3 JUMP JUMPDEST PUSH2 0x2B2 PUSH2 0x577 CALLDATASIZE PUSH1 0x4 PUSH2 0x2462 JUMP JUMPDEST PUSH1 0x1 PUSH1 0x1 PUSH1 0xA0 SHL SUB SWAP2 DUP3 AND PUSH0 SWAP1 DUP2 MSTORE PUSH1 0x1 PUSH1 0x20 SWAP1 DUP2 MSTORE PUSH1 0x40 DUP1 DUP4 KECCAK256 SWAP4 SWAP1 SWAP5 AND DUP3 MSTORE SWAP2 SWAP1 SWAP2 MSTORE KECCAK256 SLOAD SWAP1 JUMP JUMPDEST PUSH2 0x2B2 PUSH32 0x65D7A28E3265B37A6474929F336521B332C1681B933F6CB9F3376673440D862A DUP2 JUMP JUMPDEST PUSH2 0x2B2 PUSH32 0xCE23C3E399818CFEE81A7AB0880F714E53D7672B08DF0FA62F2843416E1EA09 DUP2 JUMP JUMPDEST PUSH0 PUSH1 0x1 PUSH1 0x1 PUSH1 0xE0 SHL SUB NOT DUP3 AND PUSH4 0x7965DB0B PUSH1 0xE0 SHL EQ DUP1 PUSH2 0x61F JUMPI POP PUSH4 0x1FFC9A7 PUSH1 0xE0 SHL PUSH1 0x1 PUSH1 0x1 PUSH1 0xE0 SHL SUB NOT DUP4 AND EQ JUMPDEST SWAP3 SWAP2 POP POP JUMP JUMPDEST PUSH1 0x60 PUSH1 0x3 DUP1 SLOAD PUSH2 0x634 SWAP1 PUSH2 0x248A JUMP JUMPDEST DUP1 PUSH1 0x1F ADD PUSH1 0x20 DUP1 SWAP2 DIV MUL PUSH1 0x20 ADD PUSH1 0x40 MLOAD SWAP1 DUP2 ADD PUSH1 0x40 MSTORE DUP1 SWAP3 SWAP2 SWAP1 DUP2 DUP2 MSTORE PUSH1 0x20 ADD DUP3 DUP1 SLOAD PUSH2 0x660 SWAP1 PUSH2 0x248A JUMP JUMPDEST DUP1 ISZERO PUSH2 0x6AB JUMPI DUP1 PUSH1 0x1F LT PUSH2 0x682 JUMPI PUSH2 0x100 DUP1 DUP4 SLOAD DIV MUL DUP4 MSTORE SWAP2 PUSH1 0x20 ADD SWAP2 PUSH2 0x6AB JUMP JUMPDEST DUP3 ADD SWAP2 SWAP1 PUSH0 MSTORE PUSH1 0x20 PUSH0 KECCAK256 SWAP1 JUMPDEST DUP2 SLOAD DUP2 MSTORE SWAP1 PUSH1 0x1 ADD SWAP1 PUSH1 0x20 ADD DUP1 DUP4 GT PUSH2 0x68E JUMPI DUP3 SWAP1 SUB PUSH1 0x1F AND DUP3 ADD SWAP2 JUMPDEST POP POP POP POP POP SWAP1 POP SWAP1 JUMP JUMPDEST PUSH0 CALLER PUSH2 0x6C2 DUP2 DUP6 DUP6 PUSH2 0x15E7 JUMP JUMPDEST POP PUSH1 0x1 SWAP4 SWAP3 POP POP POP JUMP JUMPDEST PUSH2 0x6D4 PUSH2 0x15F4 JUMP JUMPDEST PUSH2 0x6DC PUSH2 0x161A JUMP JUMPDEST DUP1 PUSH0 SUB PUSH2 0x6FC JUMPI PUSH1 0x40 MLOAD PUSH4 0x115B5B3B PUSH1 0xE2 SHL DUP2 MSTORE PUSH1 0x4 ADD PUSH1 0x40 MLOAD DUP1 SWAP2 SUB SWAP1 REVERT JUMPDEST CALLER PUSH0 SWAP1 DUP2 MSTORE PUSH1 0x20 DUP2 SWAP1 MSTORE PUSH1 0x40 SWAP1 KECCAK256 SLOAD DUP2 DUP2 LT ISZERO PUSH2 0x73B JUMPI PUSH1 0x40 MLOAD PUSH4 0xCF479181 PUSH1 0xE0 SHL DUP2 MSTORE PUSH1 0x4 DUP2 ADD DUP4 SWAP1 MSTORE PUSH1 0x24 DUP2 ADD DUP3 SWAP1 MSTORE PUSH1 0x44 ADD JUMPDEST PUSH1 0x40 MLOAD DUP1 SWAP2 SUB SWAP1 REVERT JUMPDEST DUP2 PUSH1 0xD PUSH0 DUP3 DUP3 SLOAD PUSH2 0x74C SWAP2 SWAP1 PUSH2 0x24D6 JUMP JUMPDEST SWAP1 SWAP2 SSTORE POP PUSH2 0x75C SWAP1 POP CALLER DUP4 PUSH2 0x1635 JUMP JUMPDEST PUSH1 0x40 MLOAD DUP3 DUP2 MSTORE CALLER SWAP1 PUSH0 SWAP1 PUSH32 0x1AC99E1FF0181B3A50CA3C3A00BD3CF35F6E2D17DA26155C84CB775E3CF23702 SWAP1 PUSH1 0x20 ADD PUSH1 0x40 MLOAD DUP1 SWAP2 SUB SWAP1 LOG3 POP PUSH2 0x7AA PUSH1 0x1 PUSH0 DUP1 MLOAD PUSH1 0x20 PUSH2 0x26C5 DUP4 CODECOPY DUP2 MLOAD SWAP2 MSTORE SSTORE JUMP JUMPDEST POP JUMP JUMPDEST PUSH0 CALLER PUSH2 0x7BA DUP6 DUP3 DUP6 PUSH2 0x1669 JUMP JUMPDEST PUSH2 0x7C5 DUP6 DUP6 DUP6 PUSH2 0x16DF JUMP JUMPDEST POP PUSH1 0x1 SWAP5 SWAP4 POP POP POP POP JUMP JUMPDEST PUSH0 DUP3 DUP2 MSTORE PUSH1 0x8 PUSH1 0x20 MSTORE PUSH1 0x40 SWAP1 KECCAK256 PUSH1 0x1 ADD SLOAD PUSH2 0x7EA DUP2 PUSH2 0x173C JUMP JUMPDEST PUSH2 0x7F4 DUP4 DUP4 PUSH2 0x1746 JUMP JUMPDEST POP POP POP POP JUMP JUMPDEST PUSH0 PUSH2 0x803 PUSH2 0x17D7 JUMP JUMPDEST SWAP1 POP SWAP1 JUMP JUMPDEST PUSH1 0x1 PUSH1 0x1 PUSH1 0xA0 SHL SUB DUP2 AND CALLER EQ PUSH2 0x831 JUMPI PUSH1 0x40 MLOAD PUSH4 0x334BD919 PUSH1 0xE1 SHL DUP2 MSTORE PUSH1 0x4 ADD PUSH1 0x40 MLOAD DUP1 SWAP2 SUB SWAP1 REVERT JUMPDEST PUSH2 0x83B DUP3 DUP3 PUSH2 0x1900 JUMP JUMPDEST POP POP POP JUMP JUMPDEST PUSH32 0x65D7A28E3265B37A6474929F336521B332C1681B933F6CB9F3376673440D862A PUSH2 0x86A DUP2 PUSH2 0x173C JUMP JUMPDEST PUSH2 0x7AA PUSH2 0x196B JUMP JUMPDEST PUSH2 0x7AA CALLER DUP3 PUSH2 0x1635 JUMP JUMPDEST PUSH1 0x10 PUSH1 0x20 MSTORE PUSH0 SWAP1 DUP2 MSTORE PUSH1 0x40 SWAP1 KECCAK256 DUP1 SLOAD PUSH1 0x1 DUP3 ADD SLOAD PUSH1 0x2 DUP4 ADD DUP1 SLOAD PUSH1 0x1 PUSH1 0x1 PUSH1 0xA0 SHL SUB SWAP1 SWAP4 AND SWAP4 SWAP2 SWAP3 PUSH2 0x8AD SWAP1 PUSH2 0x248A JUMP JUMPDEST DUP1 PUSH1 0x1F ADD PUSH1 0x20 DUP1 SWAP2 DIV MUL PUSH1 0x20 ADD PUSH1 0x40 MLOAD SWAP1 DUP2 ADD PUSH1 0x40 MSTORE DUP1 SWAP3 SWAP2 SWAP1 DUP2 DUP2 MSTORE PUSH1 0x20 ADD DUP3 DUP1 SLOAD PUSH2 0x8D9 SWAP1 PUSH2 0x248A JUMP JUMPDEST DUP1 ISZERO PUSH2 0x924 JUMPI DUP1 PUSH1 0x1F LT PUSH2 0x8FB JUMPI PUSH2 0x100 DUP1 DUP4 SLOAD DIV MUL DUP4 MSTORE SWAP2 PUSH1 0x20 ADD SWAP2 PUSH2 0x924 JUMP JUMPDEST DUP3 ADD SWAP2 SWAP1 PUSH0 MSTORE PUSH1 0x20 PUSH0 KECCAK256 SWAP1 JUMPDEST DUP2 SLOAD DUP2 MSTORE SWAP1 PUSH1 0x1 ADD SWAP1 PUSH1 0x20 ADD DUP1 DUP4 GT PUSH2 0x907 JUMPI DUP3 SWAP1 SUB PUSH1 0x1F AND DUP3 ADD SWAP2 JUMPDEST POP POP POP POP PUSH1 0x3 DUP4 ADD SLOAD PUSH1 0x4 SWAP1 SWAP4 ADD SLOAD SWAP2 SWAP3 SWAP2 PUSH1 0xFF AND SWAP1 POP DUP6 JUMP JUMPDEST PUSH0 PUSH2 0x948 DUP2 PUSH2 0x173C JUMP JUMPDEST PUSH1 0xE DUP1 SLOAD SWAP1 DUP4 SWAP1 SSTORE PUSH1 0x40 DUP1 MLOAD DUP3 DUP2 MSTORE PUSH1 0x20 DUP2 ADD DUP6 SWAP1 MSTORE PUSH32 0x8195465FC602A463FF34F3EB107D75631C2EA6B48EA4C57707935BEB2B5F01AD SWAP2 ADD PUSH1 0x40 MLOAD DUP1 SWAP2 SUB SWAP1 LOG1 POP POP POP JUMP JUMPDEST PUSH32 0x9F2DF0FED2C77648DE5860A4CC508CD0818C85B8B8A1AB4CEEEF8D981C8956A6 PUSH2 0x9B8 DUP2 PUSH2 0x173C JUMP JUMPDEST PUSH2 0x9C0 PUSH2 0x15F4 JUMP JUMPDEST PUSH2 0x9C8 PUSH2 0x161A JUMP JUMPDEST DUP4 PUSH0 SUB PUSH2 0x9E8 JUMPI PUSH1 0x40 MLOAD PUSH4 0x115B5B3B PUSH1 0xE2 SHL DUP2 MSTORE PUSH1 0x4 ADD PUSH1 0x40 MLOAD DUP1 SWAP2 SUB SWAP1 REVERT JUMPDEST PUSH1 0x1 PUSH1 0x1 PUSH1 0xA0 SHL SUB DUP6 AND PUSH2 0xA0F JUMPI PUSH1 0x40 MLOAD PUSH4 0x776CCEEB PUSH1 0xE0 SHL DUP2 MSTORE PUSH1 0x4 ADD PUSH1 0x40 MLOAD DUP1 SWAP2 SUB SWAP1 REVERT JUMPDEST PUSH0 DUP7 DUP2 MSTORE PUSH1 0xA PUSH1 0x20 MSTORE PUSH1 0x40 SWAP1 KECCAK256 PUSH1 0x6 ADD SLOAD ISZERO PUSH2 0xA41 JUMPI PUSH1 0x40 MLOAD PUSH4 0xD4E40CC5 PUSH1 0xE0 SHL DUP2 MSTORE PUSH1 0x4 DUP2 ADD DUP8 SWAP1 MSTORE PUSH1 0x24 ADD PUSH2 0x732 JUMP JUMPDEST PUSH0 PUSH2 0xA54 DUP6 PUSH8 0xDE0B6B3A7640000 PUSH2 0x24E9 JUMP JUMPDEST SWAP1 POP PUSH0 PUSH2 0xA5F PUSH2 0x19BD JUMP JUMPDEST CALLER PUSH0 SWAP1 DUP2 MSTORE PUSH1 0xF PUSH1 0x20 SWAP1 DUP2 MSTORE PUSH1 0x40 DUP1 DUP4 KECCAK256 DUP5 DUP5 MSTORE SWAP1 SWAP2 MSTORE SWAP1 KECCAK256 SLOAD PUSH1 0xE SLOAD SWAP2 SWAP3 POP SWAP1 PUSH2 0xA8A DUP5 DUP4 PUSH2 0x24D6 JUMP JUMPDEST GT ISZERO PUSH2 0xAD8 JUMPI CALLER DUP3 DUP5 DUP4 PUSH1 0xE SLOAD PUSH2 0xAA1 SWAP2 SWAP1 PUSH2 0x2500 JUMP JUMPDEST PUSH1 0x40 MLOAD PUSH4 0x85D4E8B9 PUSH1 0xE0 SHL DUP2 MSTORE PUSH1 0x1 PUSH1 0x1 PUSH1 0xA0 SHL SUB SWAP1 SWAP5 AND PUSH1 0x4 DUP6 ADD MSTORE PUSH1 0x24 DUP5 ADD SWAP3 SWAP1 SWAP3 MSTORE PUSH1 0x44 DUP4 ADD MSTORE PUSH1 0x64 DUP3 ADD MSTORE PUSH1 0x84 ADD PUSH2 0x732 JUMP JUMPDEST PUSH1 0x40 MLOAD DUP1 PUSH2 0x100 ADD PUSH1 0x40 MSTORE DUP1 DUP11 DUP2 MSTORE PUSH1 0x20 ADD CALLER PUSH1 0x1 PUSH1 0x1 PUSH1 0xA0 SHL SUB AND DUP2 MSTORE PUSH1 0x20 ADD DUP10 PUSH1 0x1 PUSH1 0x1 PUSH1 0xA0 SHL SUB AND DUP2 MSTORE PUSH1 0x20 ADD DUP9 DUP2 MSTORE PUSH1 0x20 ADD DUP5 DUP2 MSTORE PUSH1 0x20 ADD DUP8 DUP8 DUP1 DUP1 PUSH1 0x1F ADD PUSH1 0x20 DUP1 SWAP2 DIV MUL PUSH1 0x20 ADD PUSH1 0x40 MLOAD SWAP1 DUP2 ADD PUSH1 0x40 MSTORE DUP1 SWAP4 SWAP3 SWAP2 SWAP1 DUP2 DUP2 MSTORE PUSH1 0x20 ADD DUP4 DUP4 DUP1 DUP3 DUP5 CALLDATACOPY PUSH0 SWAP3 ADD DUP3 SWAP1 MSTORE POP SWAP4 DUP6 MSTORE POP POP TIMESTAMP PUSH1 0x20 DUP1 DUP6 ADD SWAP2 SWAP1 SWAP2 MSTORE PUSH1 0x40 SWAP4 DUP5 ADD DUP4 SWAP1 MSTORE DUP14 DUP4 MSTORE PUSH1 0xA DUP2 MSTORE SWAP2 DUP4 SWAP1 KECCAK256 DUP5 MLOAD DUP2 SSTORE SWAP2 DUP5 ADD MLOAD PUSH1 0x1 DUP4 ADD DUP1 SLOAD PUSH1 0x1 PUSH1 0x1 PUSH1 0xA0 SHL SUB NOT SWAP1 DUP2 AND PUSH1 0x1 PUSH1 0x1 PUSH1 0xA0 SHL SUB SWAP4 DUP5 AND OR SWAP1 SWAP2 SSTORE SWAP4 DUP6 ADD MLOAD PUSH1 0x2 DUP5 ADD DUP1 SLOAD SWAP1 SWAP6 AND SWAP2 AND OR SWAP1 SWAP3 SSTORE PUSH1 0x60 DUP4 ADD MLOAD PUSH1 0x3 DUP3 ADD SSTORE PUSH1 0x80 DUP4 ADD MLOAD PUSH1 0x4 DUP3 ADD SSTORE PUSH1 0xA0 DUP4 ADD MLOAD SWAP1 SWAP2 POP PUSH1 0x5 DUP3 ADD SWAP1 PUSH2 0xBCE SWAP1 DUP3 PUSH2 0x2572 JUMP JUMPDEST POP PUSH1 0xC0 DUP3 ADD MLOAD PUSH1 0x6 DUP3 ADD SSTORE PUSH1 0xE0 SWAP1 SWAP2 ADD MLOAD PUSH1 0x7 SWAP1 SWAP2 ADD DUP1 SLOAD PUSH1 0xFF NOT AND SWAP2 ISZERO ISZERO SWAP2 SWAP1 SWAP2 OR SWAP1 SSTORE PUSH1 0xB DUP1 SLOAD PUSH1 0x1 DUP2 ADD DUP3 SSTORE PUSH0 SWAP2 DUP3 MSTORE PUSH32 0x175B7A638427703F0DBE7BB9BBF987A2551717B34E79F33B5B1008D1FA01DB9 ADD DUP11 SWAP1 SSTORE PUSH1 0xC DUP1 SLOAD DUP10 SWAP3 SWAP1 PUSH2 0xC38 SWAP1 DUP5 SWAP1 PUSH2 0x24D6 JUMP JUMPDEST SWAP1 SWAP2 SSTORE POP POP CALLER PUSH0 SWAP1 DUP2 MSTORE PUSH1 0xF PUSH1 0x20 SWAP1 DUP2 MSTORE PUSH1 0x40 DUP1 DUP4 KECCAK256 DUP6 DUP5 MSTORE SWAP1 SWAP2 MSTORE DUP2 KECCAK256 DUP1 SLOAD DUP6 SWAP3 SWAP1 PUSH2 0xC66 SWAP1 DUP5 SWAP1 PUSH2 0x24D6 JUMP JUMPDEST SWAP1 SWAP2 SSTORE POP PUSH2 0xC76 SWAP1 POP DUP9 DUP5 PUSH2 0x19D8 JUMP JUMPDEST CALLER PUSH1 0x1 PUSH1 0x1 PUSH1 0xA0 SHL SUB AND DUP9 PUSH1 0x1 PUSH1 0x1 PUSH1 0xA0 SHL SUB AND DUP11 PUSH32 0x3D96B5B6D172E7F0A16EB1EF928C85057AF102654B3D790BA4CCF2B4979949D0 DUP11 DUP8 DUP12 DUP12 PUSH1 0x40 MLOAD PUSH2 0xCC0 SWAP5 SWAP4 SWAP3 SWAP2 SWAP1 PUSH2 0x262E JUMP JUMPDEST PUSH1 0x40 MLOAD DUP1 SWAP2 SUB SWAP1 LOG4 POP POP POP PUSH2 0xCE1 PUSH1 0x1 PUSH0 DUP1 MLOAD PUSH1 0x20 PUSH2 0x26C5 DUP4 CODECOPY DUP2 MLOAD SWAP2 MSTORE SSTORE JUMP JUMPDEST POP POP POP POP POP POP JUMP JUMPDEST PUSH2 0xCF4 DUP3 CALLER DUP4 PUSH2 0x1669 JUMP JUMPDEST PUSH2 0xCFE DUP3 DUP3 PUSH2 0x1635 JUMP JUMPDEST POP POP JUMP JUMPDEST PUSH1 0x1 PUSH1 0x1 PUSH1 0xA0 SHL SUB DUP2 AND PUSH0 SWAP1 DUP2 MSTORE PUSH1 0x7 PUSH1 0x20 MSTORE PUSH1 0x40 DUP2 KECCAK256 SLOAD PUSH2 0x61F JUMP JUMPDEST PUSH32 0x65D7A28E3265B37A6474929F336521B332C1681B933F6CB9F3376673440D862A PUSH2 0xD49 DUP2 PUSH2 0x173C JUMP JUMPDEST PUSH2 0x7AA PUSH2 0x1A0C JUMP JUMPDEST PUSH0 PUSH1 0x60 DUP1 PUSH0 DUP1 PUSH0 PUSH1 0x60 PUSH2 0xD62 PUSH2 0x1A49 JUMP JUMPDEST PUSH2 0xD6A PUSH2 0x1A76 JUMP JUMPDEST PUSH1 0x40 DUP1 MLOAD PUSH0 DUP1 DUP3 MSTORE PUSH1 0x20 DUP3 ADD SWAP1 SWAP3 MSTORE PUSH1 0xF PUSH1 0xF8 SHL SWAP12 SWAP4 SWAP11 POP SWAP2 SWAP9 POP CHAINID SWAP8 POP ADDRESS SWAP7 POP SWAP5 POP SWAP3 POP SWAP1 POP JUMP JUMPDEST PUSH0 SWAP2 DUP3 MSTORE PUSH1 0x8 PUSH1 0x20 SWAP1 DUP2 MSTORE PUSH1 0x40 DUP1 DUP5 KECCAK256 PUSH1 0x1 PUSH1 0x1 PUSH1 0xA0 SHL SUB SWAP4 SWAP1 SWAP4 AND DUP5 MSTORE SWAP2 SWAP1 MSTORE SWAP1 KECCAK256 SLOAD PUSH1 0xFF AND SWAP1 JUMP JUMPDEST PUSH1 0x60 PUSH1 0x4 DUP1 SLOAD PUSH2 0x634 SWAP1 PUSH2 0x248A JUMP JUMPDEST PUSH1 0xA PUSH1 0x20 MSTORE PUSH0 SWAP1 DUP2 MSTORE PUSH1 0x40 SWAP1 KECCAK256 DUP1 SLOAD PUSH1 0x1 DUP3 ADD SLOAD PUSH1 0x2 DUP4 ADD SLOAD PUSH1 0x3 DUP5 ADD SLOAD PUSH1 0x4 DUP6 ADD SLOAD PUSH1 0x5 DUP7 ADD DUP1 SLOAD SWAP6 SWAP7 PUSH1 0x1 PUSH1 0x1 PUSH1 0xA0 SHL SUB SWAP6 DUP7 AND SWAP7 SWAP6 SWAP1 SWAP5 AND SWAP5 SWAP3 SWAP4 SWAP2 SWAP3 PUSH2 0xE15 SWAP1 PUSH2 0x248A JUMP JUMPDEST DUP1 PUSH1 0x1F ADD PUSH1 0x20 DUP1 SWAP2 DIV MUL PUSH1 0x20 ADD PUSH1 0x40 MLOAD SWAP1 DUP2 ADD PUSH1 0x40 MSTORE DUP1 SWAP3 SWAP2 SWAP1 DUP2 DUP2 MSTORE PUSH1 0x20 ADD DUP3 DUP1 SLOAD PUSH2 0xE41 SWAP1 PUSH2 0x248A JUMP JUMPDEST DUP1 ISZERO PUSH2 0xE8C JUMPI DUP1 PUSH1 0x1F LT PUSH2 0xE63 JUMPI PUSH2 0x100 DUP1 DUP4 SLOAD DIV MUL DUP4 MSTORE SWAP2 PUSH1 0x20 ADD SWAP2 PUSH2 0xE8C JUMP JUMPDEST DUP3 ADD SWAP2 SWAP1 PUSH0 MSTORE PUSH1 0x20 PUSH0 KECCAK256 SWAP1 JUMPDEST DUP2 SLOAD DUP2 MSTORE SWAP1 PUSH1 0x1 ADD SWAP1 PUSH1 0x20 ADD DUP1 DUP4 GT PUSH2 0xE6F JUMPI DUP3 SWAP1 SUB PUSH1 0x1F AND DUP3 ADD SWAP2 JUMPDEST POP POP POP POP PUSH1 0x6 DUP4 ADD SLOAD PUSH1 0x7 SWAP1 SWAP4 ADD SLOAD SWAP2 SWAP3 SWAP2 PUSH1 0xFF AND SWAP1 POP DUP9 JUMP JUMPDEST PUSH1 0xB DUP2 DUP2 SLOAD DUP2 LT PUSH2 0xEB5 JUMPI PUSH0 DUP1 REVERT JUMPDEST PUSH0 SWAP2 DUP3 MSTORE PUSH1 0x20 SWAP1 SWAP2 KECCAK256 ADD SLOAD SWAP1 POP DUP2 JUMP JUMPDEST PUSH0 CALLER PUSH2 0x6C2 DUP2 DUP6 DUP6 PUSH2 0x16DF JUMP JUMPDEST PUSH2 0xEDA PUSH2 0x15F4 JUMP JUMPDEST DUP3 PUSH0 SUB PUSH2 0xEFA JUMPI PUSH1 0x40 MLOAD PUSH4 0x115B5B3B PUSH1 0xE2 SHL DUP2 MSTORE PUSH1 0x4 ADD PUSH1 0x40 MLOAD DUP1 SWAP2 SUB SWAP1 REVERT JUMPDEST PUSH0 DUP5 DUP2 MSTORE PUSH1 0x10 PUSH1 0x20 MSTORE PUSH1 0x40 SWAP1 KECCAK256 PUSH1 0x4 ADD SLOAD PUSH1 0xFF AND ISZERO PUSH2 0xF2F JUMPI PUSH1 0x40 MLOAD PUSH4 0x171F5B67 PUSH1 0xE2 SHL DUP2 MSTORE PUSH1 0x4 DUP2 ADD DUP6 SWAP1 MSTORE PUSH1 0x24 ADD PUSH2 0x732 JUMP JUMPDEST PUSH1 0x40 MLOAD DUP1 PUSH1 0xA0 ADD PUSH1 0x40 MSTORE DUP1 CALLER PUSH1 0x1 PUSH1 0x1 PUSH1 0xA0 SHL SUB AND DUP2 MSTORE PUSH1 0x20 ADD DUP5 DUP2 MSTORE PUSH1 0x20 ADD DUP4 DUP4 DUP1 DUP1 PUSH1 0x1F ADD PUSH1 0x20 DUP1 SWAP2 DIV MUL PUSH1 0x20 ADD PUSH1 0x40 MLOAD SWAP1 DUP2 ADD PUSH1 0x40 MSTORE DUP1 SWAP4 SWAP3 SWAP2 SWAP1 DUP2 DUP2 MSTORE PUSH1 0x20 ADD DUP4 DUP4 DUP1 DUP3 DUP5 CALLDATACOPY PUSH0 SWAP3 ADD DUP3 SWAP1 MSTORE POP SWAP4 DUP6 MSTORE POP POP TIMESTAMP PUSH1 0x20 DUP1 DUP6 ADD SWAP2 SWAP1 SWAP2 MSTORE PUSH1 0x1 PUSH1 0x40 SWAP5 DUP6 ADD DUP2 SWAP1 MSTORE DUP10 DUP5 MSTORE PUSH1 0x10 DUP3 MSTORE SWAP3 DUP5 SWAP1 KECCAK256 DUP6 MLOAD DUP2 SLOAD PUSH1 0x1 PUSH1 0x1 PUSH1 0xA0 SHL SUB NOT AND PUSH1 0x1 PUSH1 0x1 PUSH1 0xA0 SHL SUB SWAP1 SWAP2 AND OR DUP2 SSTORE SWAP1 DUP6 ADD MLOAD SWAP3 DUP2 ADD SWAP3 SWAP1 SWAP3 SSTORE POP SWAP1 DUP3 ADD MLOAD PUSH1 0x2 DUP3 ADD SWAP1 PUSH2 0xFDF SWAP1 DUP3 PUSH2 0x2572 JUMP JUMPDEST POP PUSH1 0x60 DUP3 ADD MLOAD PUSH1 0x3 DUP3 ADD SSTORE PUSH1 0x80 SWAP1 SWAP2 ADD MLOAD PUSH1 0x4 SWAP1 SWAP2 ADD DUP1 SLOAD PUSH1 0xFF NOT AND SWAP2 ISZERO ISZERO SWAP2 SWAP1 SWAP2 OR SWAP1 SSTORE PUSH1 0x40 MLOAD DUP4 DUP2 MSTORE CALLER SWAP1 DUP6 SWAP1 PUSH32 0x1665E1C97806685A93C554916A5120E8AF7533D54614518EDCFF6F400D8A7D08 SWAP1 PUSH1 0x20 ADD JUMPDEST PUSH1 0x40 MLOAD DUP1 SWAP2 SUB SWAP1 LOG3 POP POP POP POP JUMP JUMPDEST PUSH1 0x1 PUSH1 0x1 PUSH1 0xA0 SHL SUB DUP2 AND PUSH0 SWAP1 DUP2 MSTORE PUSH1 0xF PUSH1 0x20 MSTORE PUSH1 0x40 DUP2 KECCAK256 DUP2 SWAP1 DUP2 PUSH2 0x1064 PUSH2 0x19BD JUMP JUMPDEST DUP2 MSTORE PUSH1 0x20 ADD SWAP1 DUP2 MSTORE PUSH1 0x20 ADD PUSH0 KECCAK256 SLOAD SWAP1 POP DUP1 PUSH1 0xE SLOAD GT PUSH2 0x1083 JUMPI PUSH0 PUSH2 0x1091 JUMP JUMPDEST DUP1 PUSH1 0xE SLOAD PUSH2 0x1091 SWAP2 SWAP1 PUSH2 0x2500 JUMP JUMPDEST SWAP4 SWAP3 POP POP POP JUMP JUMPDEST PUSH32 0xCE23C3E399818CFEE81A7AB0880F714E53D7672B08DF0FA62F2843416E1EA09 PUSH2 0x10C2 DUP2 PUSH2 0x173C JUMP JUMPDEST PUSH2 0x10CA PUSH2 0x15F4 JUMP JUMPDEST PUSH2 0x10D2 PUSH2 0x161A JUMP JUMPDEST PUSH0 DUP4 DUP2 MSTORE PUSH1 0x10 PUSH1 0x20 SWAP1 DUP2 MSTORE PUSH1 0x40 DUP1 DUP4 KECCAK256 DUP2 MLOAD PUSH1 0xA0 DUP2 ADD DUP4 MSTORE DUP2 SLOAD PUSH1 0x1 PUSH1 0x1 PUSH1 0xA0 SHL SUB AND DUP2 MSTORE PUSH1 0x1 DUP3 ADD SLOAD SWAP4 DUP2 ADD SWAP4 SWAP1 SWAP4 MSTORE PUSH1 0x2 DUP2 ADD DUP1 SLOAD SWAP2 SWAP3 DUP5 ADD SWAP2 PUSH2 0x1117 SWAP1 PUSH2 0x248A JUMP JUMPDEST DUP1 PUSH1 0x1F ADD PUSH1 0x20 DUP1 SWAP2 DIV MUL PUSH1 0x20 ADD PUSH1 0x40 MLOAD SWAP1 DUP2 ADD PUSH1 0x40 MSTORE DUP1 SWAP3 SWAP2 SWAP1 DUP2 DUP2 MSTORE PUSH1 0x20 ADD DUP3 DUP1 SLOAD PUSH2 0x1143 SWAP1 PUSH2 0x248A JUMP JUMPDEST DUP1 ISZERO PUSH2 0x118E JUMPI DUP1 PUSH1 0x1F LT PUSH2 0x1165 JUMPI PUSH2 0x100 DUP1 DUP4 SLOAD DIV MUL DUP4 MSTORE SWAP2 PUSH1 0x20 ADD SWAP2 PUSH2 0x118E JUMP JUMPDEST DUP3 ADD SWAP2 SWAP1 PUSH0 MSTORE PUSH1 0x20 PUSH0 KECCAK256 SWAP1 JUMPDEST DUP2 SLOAD DUP2 MSTORE SWAP1 PUSH1 0x1 ADD SWAP1 PUSH1 0x20 ADD DUP1 DUP4 GT PUSH2 0x1171 JUMPI DUP3 SWAP1 SUB PUSH1 0x1F AND DUP3 ADD SWAP2 JUMPDEST POP POP POP SWAP2 DUP4 MSTORE POP POP PUSH1 0x3 DUP3 ADD SLOAD PUSH1 0x20 DUP3 ADD MSTORE PUSH1 0x4 SWAP1 SWAP2 ADD SLOAD PUSH1 0xFF AND ISZERO ISZERO PUSH1 0x40 SWAP1 SWAP2 ADD MSTORE PUSH1 0x80 DUP2 ADD MLOAD SWAP1 SWAP2 POP PUSH2 0x11D9 JUMPI PUSH1 0x40 MLOAD PUSH4 0xF734CB49 PUSH1 0xE0 SHL DUP2 MSTORE PUSH1 0x4 DUP2 ADD DUP6 SWAP1 MSTORE PUSH1 0x24 ADD PUSH2 0x732 JUMP JUMPDEST PUSH0 DUP5 DUP2 MSTORE PUSH1 0x10 PUSH1 0x20 MSTORE PUSH1 0x40 DUP2 KECCAK256 DUP1 SLOAD PUSH1 0x1 PUSH1 0x1 PUSH1 0xA0 SHL SUB NOT AND DUP2 SSTORE PUSH1 0x1 DUP2 ADD DUP3 SWAP1 SSTORE SWAP1 PUSH2 0x1209 PUSH1 0x2 DUP4 ADD DUP3 PUSH2 0x1FFD JUMP JUMPDEST POP PUSH0 PUSH1 0x3 DUP3 ADD SSTORE PUSH1 0x4 ADD DUP1 SLOAD PUSH1 0xFF NOT AND SWAP1 SSTORE PUSH1 0x40 MLOAD DUP4 ISZERO ISZERO DUP2 MSTORE CALLER SWAP1 DUP6 SWAP1 PUSH32 0x6F11EB56706210AB553ED7761038487279A5868A1BEC8B4D960CD7D5463782E4 SWAP1 PUSH1 0x20 ADD PUSH1 0x40 MLOAD DUP1 SWAP2 SUB SWAP1 LOG3 DUP3 ISZERO PUSH2 0x1476 JUMPI PUSH0 DUP5 TIMESTAMP PUSH1 0x40 MLOAD PUSH1 0x20 ADD PUSH2 0x1277 SWAP3 SWAP2 SWAP1 SWAP2 DUP3 MSTORE PUSH1 0x20 DUP3 ADD MSTORE PUSH1 0x40 ADD SWAP1 JUMP JUMPDEST PUSH1 0x40 MLOAD PUSH1 0x20 DUP2 DUP4 SUB SUB DUP2 MSTORE SWAP1 PUSH1 0x40 MSTORE DUP1 MLOAD SWAP1 PUSH1 0x20 ADD KECCAK256 SWAP1 POP PUSH0 DUP3 PUSH1 0x20 ADD MLOAD PUSH8 0xDE0B6B3A7640000 PUSH2 0x12A8 SWAP2 SWAP1 PUSH2 0x24E9 JUMP JUMPDEST SWAP1 POP PUSH0 PUSH2 0x12B3 PUSH2 0x19BD JUMP JUMPDEST PUSH1 0x40 DUP1 MLOAD PUSH2 0x100 DUP2 ADD DUP3 MSTORE DUP6 DUP2 MSTORE CALLER PUSH1 0x20 DUP1 DUP4 ADD SWAP2 DUP3 MSTORE DUP9 MLOAD PUSH1 0x1 PUSH1 0x1 PUSH1 0xA0 SHL SUB SWAP1 DUP2 AND DUP5 DUP7 ADD SWAP1 DUP2 MSTORE DUP11 DUP4 ADD MLOAD PUSH1 0x60 DUP7 ADD SWAP1 DUP2 MSTORE PUSH1 0x80 DUP7 ADD DUP11 DUP2 MSTORE DUP13 DUP9 ADD MLOAD PUSH1 0xA0 DUP9 ADD SWAP1 DUP2 MSTORE TIMESTAMP PUSH1 0xC0 DUP10 ADD MSTORE PUSH0 PUSH1 0xE0 DUP10 ADD DUP2 SWAP1 MSTORE DUP14 DUP2 MSTORE PUSH1 0xA SWAP1 SWAP7 MSTORE SWAP8 SWAP1 SWAP5 KECCAK256 DUP7 MLOAD DUP2 SSTORE SWAP5 MLOAD PUSH1 0x1 DUP7 ADD DUP1 SLOAD SWAP2 DUP6 AND PUSH1 0x1 PUSH1 0x1 PUSH1 0xA0 SHL SUB NOT SWAP3 DUP4 AND OR SWAP1 SSTORE SWAP2 MLOAD PUSH1 0x2 DUP7 ADD DUP1 SLOAD SWAP2 SWAP1 SWAP5 AND SWAP3 AND SWAP2 SWAP1 SWAP2 OR SWAP1 SWAP2 SSTORE MLOAD PUSH1 0x3 DUP4 ADD SSTORE MLOAD PUSH1 0x4 DUP3 ADD SSTORE SWAP2 MLOAD SWAP3 SWAP4 POP SWAP2 PUSH1 0x5 DUP3 ADD SWAP1 PUSH2 0x1368 SWAP1 DUP3 PUSH2 0x2572 JUMP JUMPDEST POP PUSH1 0xC0 DUP3 ADD MLOAD PUSH1 0x6 DUP3 ADD SSTORE PUSH1 0xE0 SWAP1 SWAP2 ADD MLOAD PUSH1 0x7 SWAP1 SWAP2 ADD DUP1 SLOAD PUSH1 0xFF NOT AND SWAP2 ISZERO ISZERO SWAP2 SWAP1 SWAP2 OR SWAP1 SSTORE PUSH1 0xB DUP1 SLOAD PUSH1 0x1 DUP2 ADD DUP3 SSTORE PUSH0 SWAP2 DUP3 MSTORE PUSH32 0x175B7A638427703F0DBE7BB9BBF987A2551717B34E79F33B5B1008D1FA01DB9 ADD DUP5 SWAP1 SSTORE PUSH1 0x20 DUP6 ADD MLOAD PUSH1 0xC DUP1 SLOAD SWAP2 SWAP3 SWAP1 SWAP2 PUSH2 0x13D8 SWAP1 DUP5 SWAP1 PUSH2 0x24D6 JUMP JUMPDEST SWAP1 SWAP2 SSTORE POP POP CALLER PUSH0 SWAP1 DUP2 MSTORE PUSH1 0xF PUSH1 0x20 SWAP1 DUP2 MSTORE PUSH1 0x40 DUP1 DUP4 KECCAK256 DUP5 DUP5 MSTORE SWAP1 SWAP2 MSTORE DUP2 KECCAK256 DUP1 SLOAD DUP5 SWAP3 SWAP1 PUSH2 0x1406 SWAP1 DUP5 SWAP1 PUSH2 0x24D6 JUMP JUMPDEST SWAP1 SWAP2 SSTORE POP POP DUP4 MLOAD PUSH2 0x1417 SWAP1 DUP4 PUSH2 0x19D8 JUMP JUMPDEST CALLER PUSH1 0x1 PUSH1 0x1 PUSH1 0xA0 SHL SUB AND DUP5 PUSH0 ADD MLOAD PUSH1 0x1 PUSH1 0x1 PUSH1 0xA0 SHL SUB AND DUP5 PUSH32 0x3D96B5B6D172E7F0A16EB1EF928C85057AF102654B3D790BA4CCF2B4979949D0 DUP8 PUSH1 0x20 ADD MLOAD DUP7 DUP10 PUSH1 0x40 ADD MLOAD PUSH1 0x40 MLOAD PUSH2 0x146A SWAP4 SWAP3 SWAP2 SWAP1 PUSH2 0x266A JUMP JUMPDEST PUSH1 0x40 MLOAD DUP1 SWAP2 SUB SWAP1 LOG4 POP POP POP JUMPDEST POP PUSH2 0x83B PUSH1 0x1 PUSH0 DUP1 MLOAD PUSH1 0x20 PUSH2 0x26C5 DUP4 CODECOPY DUP2 MLOAD SWAP2 MSTORE SSTORE JUMP JUMPDEST DUP4 TIMESTAMP GT ISZERO PUSH2 0x14B1 JUMPI PUSH1 0x40 MLOAD PUSH4 0x313C8981 PUSH1 0xE1 SHL DUP2 MSTORE PUSH1 0x4 DUP2 ADD DUP6 SWAP1 MSTORE PUSH1 0x24 ADD PUSH2 0x732 JUMP JUMPDEST PUSH0 PUSH32 0x6E71EDAE12B1B97F4D1F60370FEF10105FA2FAAE0126114A169C64845D6126C9 DUP9 DUP9 DUP9 PUSH2 0x14FC DUP13 PUSH1 0x1 PUSH1 0x1 PUSH1 0xA0 SHL SUB AND PUSH0 SWAP1 DUP2 MSTORE PUSH1 0x7 PUSH1 0x20 MSTORE PUSH1 0x40 SWAP1 KECCAK256 DUP1 SLOAD PUSH1 0x1 DUP2 ADD SWAP1 SWAP2 SSTORE SWAP1 JUMP JUMPDEST PUSH1 0x40 DUP1 MLOAD PUSH1 0x20 DUP2 ADD SWAP7 SWAP1 SWAP7 MSTORE PUSH1 0x1 PUSH1 0x1 PUSH1 0xA0 SHL SUB SWAP5 DUP6 AND SWAP1 DUP7 ADD MSTORE SWAP3 SWAP1 SWAP2 AND PUSH1 0x60 DUP5 ADD MSTORE PUSH1 0x80 DUP4 ADD MSTORE PUSH1 0xA0 DUP3 ADD MSTORE PUSH1 0xC0 DUP2 ADD DUP7 SWAP1 MSTORE PUSH1 0xE0 ADD PUSH1 0x40 MLOAD PUSH1 0x20 DUP2 DUP4 SUB SUB DUP2 MSTORE SWAP1 PUSH1 0x40 MSTORE DUP1 MLOAD SWAP1 PUSH1 0x20 ADD KECCAK256 SWAP1 POP PUSH0 PUSH2 0x1556 DUP3 PUSH2 0x1AA3 JUMP JUMPDEST SWAP1 POP PUSH0 PUSH2 0x1565 DUP3 DUP8 DUP8 DUP8 PUSH2 0x1ACF JUMP JUMPDEST SWAP1 POP DUP10 PUSH1 0x1 PUSH1 0x1 PUSH1 0xA0 SHL SUB AND DUP2 PUSH1 0x1 PUSH1 0x1 PUSH1 0xA0 SHL SUB AND EQ PUSH2 0x15AC JUMPI PUSH1 0x40 MLOAD PUSH4 0x25C00723 PUSH1 0xE1 SHL DUP2 MSTORE PUSH1 0x1 PUSH1 0x1 PUSH1 0xA0 SHL SUB DUP1 DUP4 AND PUSH1 0x4 DUP4 ADD MSTORE DUP12 AND PUSH1 0x24 DUP3 ADD MSTORE PUSH1 0x44 ADD PUSH2 0x732 JUMP JUMPDEST PUSH2 0x15B7 DUP11 DUP11 DUP11 PUSH2 0x15E7 JUMP JUMPDEST POP POP POP POP POP POP POP POP POP POP JUMP JUMPDEST PUSH0 DUP3 DUP2 MSTORE PUSH1 0x8 PUSH1 0x20 MSTORE PUSH1 0x40 SWAP1 KECCAK256 PUSH1 0x1 ADD SLOAD PUSH2 0x15DD DUP2 PUSH2 0x173C JUMP JUMPDEST PUSH2 0x7F4 DUP4 DUP4 PUSH2 0x1900 JUMP JUMPDEST PUSH2 0x83B DUP4 DUP4 DUP4 PUSH1 0x1 PUSH2 0x1AFB JUMP JUMPDEST PUSH1 0x9 SLOAD PUSH1 0xFF AND ISZERO PUSH2 0x1618 JUMPI PUSH1 0x40 MLOAD PUSH4 0xD93C0665 PUSH1 0xE0 SHL DUP2 MSTORE PUSH1 0x4 ADD PUSH1 0x40 MLOAD DUP1 SWAP2 SUB SWAP1 REVERT JUMPDEST JUMP JUMPDEST PUSH2 0x1622 PUSH2 0x1BBF JUMP JUMPDEST PUSH1 0x2 PUSH0 DUP1 MLOAD PUSH1 0x20 PUSH2 0x26C5 DUP4 CODECOPY DUP2 MLOAD SWAP2 MSTORE SSTORE JUMP JUMPDEST PUSH1 0x1 PUSH1 0x1 PUSH1 0xA0 SHL SUB DUP3 AND PUSH2 0x165E JUMPI PUSH1 0x40 MLOAD PUSH4 0x4B637E8F PUSH1 0xE1 SHL DUP2 MSTORE PUSH0 PUSH1 0x4 DUP3 ADD MSTORE PUSH1 0x24 ADD PUSH2 0x732 JUMP JUMPDEST PUSH2 0xCFE DUP3 PUSH0 DUP4 PUSH2 0x1BEE JUMP JUMPDEST PUSH1 0x1 PUSH1 0x1 PUSH1 0xA0 SHL SUB DUP4 DUP2 AND PUSH0 SWAP1 DUP2 MSTORE PUSH1 0x1 PUSH1 0x20 SWAP1 DUP2 MSTORE PUSH1 0x40 DUP1 DUP4 KECCAK256 SWAP4 DUP7 AND DUP4 MSTORE SWAP3 SWAP1 MSTORE KECCAK256 SLOAD PUSH0 NOT DUP2 LT ISZERO PUSH2 0x7F4 JUMPI DUP2 DUP2 LT ISZERO PUSH2 0x16D1 JUMPI PUSH1 0x40 MLOAD PUSH4 0x7DC7A0D9 PUSH1 0xE1 SHL DUP2 MSTORE PUSH1 0x1 PUSH1 0x1 PUSH1 0xA0 SHL SUB DUP5 AND PUSH1 0x4 DUP3 ADD MSTORE PUSH1 0x24 DUP2 ADD DUP3 SWAP1 MSTORE PUSH1 0x44 DUP2 ADD DUP4 SWAP1 MSTORE PUSH1 0x64 ADD PUSH2 0x732 JUMP JUMPDEST PUSH2 0x7F4 DUP5 DUP5 DUP5 DUP5 SUB PUSH0 PUSH2 0x1AFB JUMP JUMPDEST PUSH1 0x1 PUSH1 0x1 PUSH1 0xA0 SHL SUB DUP4 AND PUSH2 0x1708 JUMPI PUSH1 0x40 MLOAD PUSH4 0x4B637E8F PUSH1 0xE1 SHL DUP2 MSTORE PUSH0 PUSH1 0x4 DUP3 ADD MSTORE PUSH1 0x24 ADD PUSH2 0x732 JUMP JUMPDEST PUSH1 0x1 PUSH1 0x1 PUSH1 0xA0 SHL SUB DUP3 AND PUSH2 0x1731 JUMPI PUSH1 0x40 MLOAD PUSH4 0xEC442F05 PUSH1 0xE0 SHL DUP2 MSTORE PUSH0 PUSH1 0x4 DUP3 ADD MSTORE PUSH1 0x24 ADD PUSH2 0x732 JUMP JUMPDEST PUSH2 0x83B DUP4 DUP4 DUP4 PUSH2 0x1BEE JUMP JUMPDEST PUSH2 0x7AA DUP2 CALLER PUSH2 0x1D14 JUMP JUMPDEST PUSH0 PUSH2 0x1751 DUP4 DUP4 PUSH2 0xD93 JUMP JUMPDEST PUSH2 0x17D0 JUMPI PUSH0 DUP4 DUP2 MSTORE PUSH1 0x8 PUSH1 0x20 SWAP1 DUP2 MSTORE PUSH1 0x40 DUP1 DUP4 KECCAK256 PUSH1 0x1 PUSH1 0x1 PUSH1 0xA0 SHL SUB DUP7 AND DUP5 MSTORE SWAP1 SWAP2 MSTORE SWAP1 KECCAK256 DUP1 SLOAD PUSH1 0xFF NOT AND PUSH1 0x1 OR SWAP1 SSTORE PUSH2 0x1788 CALLER SWAP1 JUMP JUMPDEST PUSH1 0x1 PUSH1 0x1 PUSH1 0xA0 SHL SUB AND DUP3 PUSH1 0x1 PUSH1 0x1 PUSH1 0xA0 SHL SUB AND DUP5 PUSH32 0x2F8788117E7EFF1D82E926EC794901D17C78024A50270940304540A733656F0D PUSH1 0x40 MLOAD PUSH1 0x40 MLOAD DUP1 SWAP2 SUB SWAP1 LOG4 POP PUSH1 0x1 PUSH2 0x61F JUMP JUMPDEST POP PUSH0 PUSH2 0x61F JUMP JUMPDEST PUSH0 ADDRESS PUSH1 0x1 PUSH1 0x1 PUSH1 0xA0 SHL SUB PUSH32 0x0 AND EQ DUP1 ISZERO PUSH2 0x182F JUMPI POP PUSH32 0x0 CHAINID EQ JUMPDEST ISZERO PUSH2 0x1859 JUMPI POP PUSH32 0x0 SWAP1 JUMP JUMPDEST PUSH2 0x803 PUSH1 0x40 DUP1 MLOAD PUSH32 0x8B73C3C69BB8FE3D512ECC4CF759CC79239F7B179B0FFACAA9A75D522B39400F PUSH1 0x20 DUP3 ADD MSTORE PUSH32 0x0 SWAP2 DUP2 ADD SWAP2 SWAP1 SWAP2 MSTORE PUSH32 0x0 PUSH1 0x60 DUP3 ADD MSTORE CHAINID PUSH1 0x80 DUP3 ADD MSTORE ADDRESS PUSH1 0xA0 DUP3 ADD MSTORE PUSH0 SWAP1 PUSH1 0xC0 ADD PUSH1 0x40 MLOAD PUSH1 0x20 DUP2 DUP4 SUB SUB DUP2 MSTORE SWAP1 PUSH1 0x40 MSTORE DUP1 MLOAD SWAP1 PUSH1 0x20 ADD KECCAK256 SWAP1 POP SWAP1 JUMP JUMPDEST PUSH0 PUSH2 0x190B DUP4 DUP4 PUSH2 0xD93 JUMP JUMPDEST ISZERO PUSH2 0x17D0 JUMPI PUSH0 DUP4 DUP2 MSTORE PUSH1 0x8 PUSH1 0x20 SWAP1 DUP2 MSTORE PUSH1 0x40 DUP1 DUP4 KECCAK256 PUSH1 0x1 PUSH1 0x1 PUSH1 0xA0 SHL SUB DUP7 AND DUP1 DUP6 MSTORE SWAP3 MSTORE DUP1 DUP4 KECCAK256 DUP1 SLOAD PUSH1 0xFF NOT AND SWAP1 SSTORE MLOAD CALLER SWAP3 DUP7 SWAP2 PUSH32 0xF6391F5C32D9C69D2A47EA670B442974B53935D1EDC7FD64EB21E047A839171B SWAP2 SWAP1 LOG4 POP PUSH1 0x1 PUSH2 0x61F JUMP JUMPDEST PUSH2 0x1973 PUSH2 0x1D4D JUMP JUMPDEST PUSH1 0x9 DUP1 SLOAD PUSH1 0xFF NOT AND SWAP1 SSTORE PUSH32 0x5DB9EE0A495BF2E6FF9C91A7834C1BA4FDD244A5E8AA4E537BD38AEAE4B073AA CALLER JUMPDEST PUSH1 0x40 MLOAD PUSH1 0x1 PUSH1 0x1 PUSH1 0xA0 SHL SUB SWAP1 SWAP2 AND DUP2 MSTORE PUSH1 0x20 ADD PUSH1 0x40 MLOAD DUP1 SWAP2 SUB SWAP1 LOG1 JUMP JUMPDEST PUSH0 PUSH2 0x19CC PUSH4 0x1E13380 TIMESTAMP PUSH2 0x2691 JUMP JUMPDEST PUSH2 0x803 SWAP1 PUSH2 0x7B2 PUSH2 0x24D6 JUMP JUMPDEST PUSH1 0x1 PUSH1 0x1 PUSH1 0xA0 SHL SUB DUP3 AND PUSH2 0x1A01 JUMPI PUSH1 0x40 MLOAD PUSH4 0xEC442F05 PUSH1 0xE0 SHL DUP2 MSTORE PUSH0 PUSH1 0x4 DUP3 ADD MSTORE PUSH1 0x24 ADD PUSH2 0x732 JUMP JUMPDEST PUSH2 0xCFE PUSH0 DUP4 DUP4 PUSH2 0x1BEE JUMP JUMPDEST PUSH2 0x1A14 PUSH2 0x15F4 JUMP JUMPDEST PUSH1 0x9 DUP1 SLOAD PUSH1 0xFF NOT AND PUSH1 0x1 OR SWAP1 SSTORE PUSH32 0x62E78CEA01BEE320CD4E420270B5EA74000D11B0C9F74754EBDBFC544B05A258 PUSH2 0x19A0 CALLER SWAP1 JUMP JUMPDEST PUSH1 0x60 PUSH2 0x803 PUSH32 0x0 PUSH1 0x5 PUSH2 0x1D70 JUMP JUMPDEST PUSH1 0x60 PUSH2 0x803 PUSH32 0x0 PUSH1 0x6 PUSH2 0x1D70 JUMP JUMPDEST PUSH0 PUSH2 0x61F PUSH2 0x1AAF PUSH2 0x17D7 JUMP JUMPDEST DUP4 PUSH1 0x40 MLOAD PUSH2 0x1901 PUSH1 0xF0 SHL DUP2 MSTORE PUSH1 0x2 DUP2 ADD SWAP3 SWAP1 SWAP3 MSTORE PUSH1 0x22 DUP3 ADD MSTORE PUSH1 0x42 SWAP1 KECCAK256 SWAP1 JUMP JUMPDEST PUSH0 DUP1 PUSH0 DUP1 PUSH2 0x1ADF DUP9 DUP9 DUP9 DUP9 PUSH2 0x1E19 JUMP JUMPDEST SWAP3 POP SWAP3 POP SWAP3 POP PUSH2 0x1AEF DUP3 DUP3 PUSH2 0x1EE1 JUMP JUMPDEST POP SWAP1 SWAP7 SWAP6 POP POP POP POP POP POP JUMP JUMPDEST PUSH1 0x1 PUSH1 0x1 PUSH1 0xA0 SHL SUB DUP5 AND PUSH2 0x1B24 JUMPI PUSH1 0x40 MLOAD PUSH4 0xE602DF05 PUSH1 0xE0 SHL DUP2 MSTORE PUSH0 PUSH1 0x4 DUP3 ADD MSTORE PUSH1 0x24 ADD PUSH2 0x732 JUMP JUMPDEST PUSH1 0x1 PUSH1 0x1 PUSH1 0xA0 SHL SUB DUP4 AND PUSH2 0x1B4D JUMPI PUSH1 0x40 MLOAD PUSH4 0x4A1406B1 PUSH1 0xE1 SHL DUP2 MSTORE PUSH0 PUSH1 0x4 DUP3 ADD MSTORE PUSH1 0x24 ADD PUSH2 0x732 JUMP JUMPDEST PUSH1 0x1 PUSH1 0x1 PUSH1 0xA0 SHL SUB DUP1 DUP6 AND PUSH0 SWAP1 DUP2 MSTORE PUSH1 0x1 PUSH1 0x20 SWAP1 DUP2 MSTORE PUSH1 0x40 DUP1 DUP4 KECCAK256 SWAP4 DUP8 AND DUP4 MSTORE SWAP3 SWAP1 MSTORE KECCAK256 DUP3 SWAP1 SSTORE DUP1 ISZERO PUSH2 0x7F4 JUMPI DUP3 PUSH1 0x1 PUSH1 0x1 PUSH1 0xA0 SHL SUB AND DUP5 PUSH1 0x1 PUSH1 0x1 PUSH1 0xA0 SHL SUB AND PUSH32 0x8C5BE1E5EBEC7D5BD14F71427D1E84F3DD0314C0F7B2291E5B200AC8C7C3B925 DUP5 PUSH1 0x40 MLOAD PUSH2 0x1034 SWAP2 DUP2 MSTORE PUSH1 0x20 ADD SWAP1 JUMP JUMPDEST PUSH0 DUP1 MLOAD PUSH1 0x20 PUSH2 0x26C5 DUP4 CODECOPY DUP2 MLOAD SWAP2 MSTORE SLOAD PUSH1 0x2 SUB PUSH2 0x1618 JUMPI PUSH1 0x40 MLOAD PUSH4 0x3EE5AEB5 PUSH1 0xE0 SHL DUP2 MSTORE PUSH1 0x4 ADD PUSH1 0x40 MLOAD DUP1 SWAP2 SUB SWAP1 REVERT JUMPDEST PUSH1 0x1 PUSH1 0x1 PUSH1 0xA0 SHL SUB DUP4 AND PUSH2 0x1C18 JUMPI DUP1 PUSH1 0x2 PUSH0 DUP3 DUP3 SLOAD PUSH2 0x1C0D SWAP2 SWAP1 PUSH2 0x24D6 JUMP JUMPDEST SWAP1 SWAP2 SSTORE POP PUSH2 0x1C88 SWAP1 POP JUMP JUMPDEST PUSH1 0x1 PUSH1 0x1 PUSH1 0xA0 SHL SUB DUP4 AND PUSH0 SWAP1 DUP2 MSTORE PUSH1 0x20 DUP2 SWAP1 MSTORE PUSH1 0x40 SWAP1 KECCAK256 SLOAD DUP2 DUP2 LT ISZERO PUSH2 0x1C6A JUMPI PUSH1 0x40 MLOAD PUSH4 0x391434E3 PUSH1 0xE2 SHL DUP2 MSTORE PUSH1 0x1 PUSH1 0x1 PUSH1 0xA0 SHL SUB DUP6 AND PUSH1 0x4 DUP3 ADD MSTORE PUSH1 0x24 DUP2 ADD DUP3 SWAP1 MSTORE PUSH1 0x44 DUP2 ADD DUP4 SWAP1 MSTORE PUSH1 0x64 ADD PUSH2 0x732 JUMP JUMPDEST PUSH1 0x1 PUSH1 0x1 PUSH1 0xA0 SHL SUB DUP5 AND PUSH0 SWAP1 DUP2 MSTORE PUSH1 0x20 DUP2 SWAP1 MSTORE PUSH1 0x40 SWAP1 KECCAK256 SWAP1 DUP3 SWAP1 SUB SWAP1 SSTORE JUMPDEST PUSH1 0x1 PUSH1 0x1 PUSH1 0xA0 SHL SUB DUP3 AND PUSH2 0x1CA4 JUMPI PUSH1 0x2 DUP1 SLOAD DUP3 SWAP1 SUB SWAP1 SSTORE PUSH2 0x1CC2 JUMP JUMPDEST PUSH1 0x1 PUSH1 0x1 PUSH1 0xA0 SHL SUB DUP3 AND PUSH0 SWAP1 DUP2 MSTORE PUSH1 0x20 DUP2 SWAP1 MSTORE PUSH1 0x40 SWAP1 KECCAK256 DUP1 SLOAD DUP3 ADD SWAP1 SSTORE JUMPDEST DUP2 PUSH1 0x1 PUSH1 0x1 PUSH1 0xA0 SHL SUB AND DUP4 PUSH1 0x1 PUSH1 0x1 PUSH1 0xA0 SHL SUB AND PUSH32 0xDDF252AD1BE2C89B69C2B068FC378DAA952BA7F163C4A11628F55A4DF523B3EF DUP4 PUSH1 0x40 MLOAD PUSH2 0x1D07 SWAP2 DUP2 MSTORE PUSH1 0x20 ADD SWAP1 JUMP JUMPDEST PUSH1 0x40 MLOAD DUP1 SWAP2 SUB SWAP1 LOG3 POP POP POP JUMP JUMPDEST PUSH2 0x1D1E DUP3 DUP3 PUSH2 0xD93 JUMP JUMPDEST PUSH2 0xCFE JUMPI PUSH1 0x40 MLOAD PUSH4 0xE2517D3F PUSH1 0xE0 SHL DUP2 MSTORE PUSH1 0x1 PUSH1 0x1 PUSH1 0xA0 SHL SUB DUP3 AND PUSH1 0x4 DUP3 ADD MSTORE PUSH1 0x24 DUP2 ADD DUP4 SWAP1 MSTORE PUSH1 0x44 ADD PUSH2 0x732 JUMP JUMPDEST PUSH1 0x9 SLOAD PUSH1 0xFF AND PUSH2 0x1618 JUMPI PUSH1 0x40 MLOAD PUSH4 0x8DFC202B PUSH1 0xE0 SHL DUP2 MSTORE PUSH1 0x4 ADD PUSH1 0x40 MLOAD DUP1 SWAP2 SUB SWAP1 REVERT JUMPDEST PUSH1 0x60 PUSH1 0xFF DUP4 EQ PUSH2 0x1D8A JUMPI PUSH2 0x1D83 DUP4 PUSH2 0x1F99 JUMP JUMPDEST SWAP1 POP PUSH2 0x61F JUMP JUMPDEST DUP2 DUP1 SLOAD PUSH2 0x1D96 SWAP1 PUSH2 0x248A JUMP JUMPDEST DUP1 PUSH1 0x1F ADD PUSH1 0x20 DUP1 SWAP2 DIV MUL PUSH1 0x20 ADD PUSH1 0x40 MLOAD SWAP1 DUP2 ADD PUSH1 0x40 MSTORE DUP1 SWAP3 SWAP2 SWAP1 DUP2 DUP2 MSTORE PUSH1 0x20 ADD DUP3 DUP1 SLOAD PUSH2 0x1DC2 SWAP1 PUSH2 0x248A JUMP JUMPDEST DUP1 ISZERO PUSH2 0x1E0D JUMPI DUP1 PUSH1 0x1F LT PUSH2 0x1DE4 JUMPI PUSH2 0x100 DUP1 DUP4 SLOAD DIV MUL DUP4 MSTORE SWAP2 PUSH1 0x20 ADD SWAP2 PUSH2 0x1E0D JUMP JUMPDEST DUP3 ADD SWAP2 SWAP1 PUSH0 MSTORE PUSH1 0x20 PUSH0 KECCAK256 SWAP1 JUMPDEST DUP2 SLOAD DUP2 MSTORE SWAP1 PUSH1 0x1 ADD SWAP1 PUSH1 0x20 ADD DUP1 DUP4 GT PUSH2 0x1DF0 JUMPI DUP3 SWAP1 SUB PUSH1 0x1F AND DUP3 ADD SWAP2 JUMPDEST POP POP POP POP POP SWAP1 POP PUSH2 0x61F JUMP JUMPDEST PUSH0 DUP1 DUP1 PUSH32 0x7FFFFFFFFFFFFFFFFFFFFFFFFFFFFFFF5D576E7357A4501DDFE92F46681B20A0 DUP5 GT ISZERO PUSH2 0x1E52 JUMPI POP PUSH0 SWAP2 POP PUSH1 0x3 SWAP1 POP DUP3 PUSH2 0x1ED7 JUMP JUMPDEST PUSH1 0x40 DUP1 MLOAD PUSH0 DUP1 DUP3 MSTORE PUSH1 0x20 DUP3 ADD DUP1 DUP5 MSTORE DUP11 SWAP1 MSTORE PUSH1 0xFF DUP10 AND SWAP3 DUP3 ADD SWAP3 SWAP1 SWAP3 MSTORE PUSH1 0x60 DUP2 ADD DUP8 SWAP1 MSTORE PUSH1 0x80 DUP2 ADD DUP7 SWAP1 MSTORE PUSH1 0x1 SWAP1 PUSH1 0xA0 ADD PUSH1 0x20 PUSH1 0x40 MLOAD PUSH1 0x20 DUP2 SUB SWAP1 DUP1 DUP5 SUB SWAP1 DUP6 GAS STATICCALL ISZERO DUP1 ISZERO PUSH2 0x1EA3 JUMPI RETURNDATASIZE PUSH0 DUP1 RETURNDATACOPY RETURNDATASIZE PUSH0 REVERT JUMPDEST POP POP PUSH1 0x40 MLOAD PUSH1 0x1F NOT ADD MLOAD SWAP2 POP POP PUSH1 0x1 PUSH1 0x1 PUSH1 0xA0 SHL SUB DUP2 AND PUSH2 0x1ECE JUMPI POP PUSH0 SWAP3 POP PUSH1 0x1 SWAP2 POP DUP3 SWAP1 POP PUSH2 0x1ED7 JUMP JUMPDEST SWAP3 POP PUSH0 SWAP2 POP DUP2 SWAP1 POP JUMPDEST SWAP5 POP SWAP5 POP SWAP5 SWAP2 POP POP JUMP JUMPDEST PUSH0 DUP3 PUSH1 0x3 DUP2 GT ISZERO PUSH2 0x1EF4 JUMPI PUSH2 0x1EF4 PUSH2 0x26B0 JUMP JUMPDEST SUB PUSH2 0x1EFD JUMPI POP POP JUMP JUMPDEST PUSH1 0x1 DUP3 PUSH1 0x3 DUP2 GT ISZERO PUSH2 0x1F11 JUMPI PUSH2 0x1F11 PUSH2 0x26B0 JUMP JUMPDEST SUB PUSH2 0x1F2F JUMPI PUSH1 0x40 MLOAD PUSH4 0xF645EEDF PUSH1 0xE0 SHL DUP2 MSTORE PUSH1 0x4 ADD PUSH1 0x40 MLOAD DUP1 SWAP2 SUB SWAP1 REVERT JUMPDEST PUSH1 0x2 DUP3 PUSH1 0x3 DUP2 GT ISZERO PUSH2 0x1F43 JUMPI PUSH2 0x1F43 PUSH2 0x26B0 JUMP JUMPDEST SUB PUSH2 0x1F64 JUMPI PUSH1 0x40 MLOAD PUSH4 0xFCE698F7 PUSH1 0xE0 SHL DUP2 MSTORE PUSH1 0x4 DUP2 ADD DUP3 SWAP1 MSTORE PUSH1 0x24 ADD PUSH2 0x732 JUMP JUMPDEST PUSH1 0x3 DUP3 PUSH1 0x3 DUP2 GT ISZERO PUSH2 0x1F78 JUMPI PUSH2 0x1F78 PUSH2 0x26B0 JUMP JUMPDEST SUB PUSH2 0xCFE JUMPI PUSH1 0x40 MLOAD PUSH4 0x35E2F383 PUSH1 0xE2 SHL DUP2 MSTORE PUSH1 0x4 DUP2 ADD DUP3 SWAP1 MSTORE PUSH1 0x24 ADD PUSH2 0x732 JUMP JUMPDEST PUSH1 0x60 PUSH0 PUSH2 0x1FA5 DUP4 PUSH2 0x1FD6 JUMP JUMPDEST PUSH1 0x40 DUP1 MLOAD PUSH1 0x20 DUP1 DUP3 MSTORE DUP2 DUP4 ADD SWAP1 SWAP3 MSTORE SWAP2 SWAP3 POP PUSH0 SWAP2 SWAP1 PUSH1 0x20 DUP3 ADD DUP2 DUP1 CALLDATASIZE DUP4 CALLDATACOPY POP POP POP SWAP2 DUP3 MSTORE POP PUSH1 0x20 DUP2 ADD SWAP3 SWAP1 SWAP3 MSTORE POP SWAP1 JUMP JUMPDEST PUSH0 PUSH1 0xFF DUP3 AND PUSH1 0x1F DUP2 GT ISZERO PUSH2 0x61F JUMPI PUSH1 0x40 MLOAD PUSH4 0x2CD44AC3 PUSH1 0xE2 SHL DUP2 MSTORE PUSH1 0x4 ADD PUSH1 0x40 MLOAD DUP1 SWAP2 SUB SWAP1 REVERT JUMPDEST POP DUP1 SLOAD PUSH2 0x2009 SWAP1 PUSH2 0x248A JUMP JUMPDEST PUSH0 DUP3 SSTORE DUP1 PUSH1 0x1F LT PUSH2 0x2018 JUMPI POP POP JUMP JUMPDEST PUSH1 0x1F ADD PUSH1 0x20 SWAP1 DIV SWAP1 PUSH0 MSTORE PUSH1 0x20 PUSH0 KECCAK256 SWAP1 DUP2 ADD SWAP1 PUSH2 0x7AA SWAP2 SWAP1 JUMPDEST DUP1 DUP3 GT ISZERO PUSH2 0x2043 JUMPI PUSH0 DUP2 SSTORE PUSH1 0x1 ADD PUSH2 0x2030 JUMP JUMPDEST POP SWAP1 JUMP JUMPDEST PUSH0 PUSH1 0x20 DUP3 DUP5 SUB SLT ISZERO PUSH2 0x2057 JUMPI PUSH0 DUP1 REVERT JUMPDEST DUP2 CALLDATALOAD PUSH1 0x1 PUSH1 0x1 PUSH1 0xE0 SHL SUB NOT DUP2 AND DUP2 EQ PUSH2 0x1091 JUMPI PUSH0 DUP1 REVERT JUMPDEST PUSH0 DUP2 MLOAD DUP1 DUP5 MSTORE PUSH0 JUMPDEST DUP2 DUP2 LT ISZERO PUSH2 0x2092 JUMPI PUSH1 0x20 DUP2 DUP6 ADD DUP2 ADD MLOAD DUP7 DUP4 ADD DUP3 ADD MSTORE ADD PUSH2 0x2076 JUMP JUMPDEST POP PUSH0 PUSH1 0x20 DUP3 DUP7 ADD ADD MSTORE PUSH1 0x20 PUSH1 0x1F NOT PUSH1 0x1F DUP4 ADD AND DUP6 ADD ADD SWAP2 POP POP SWAP3 SWAP2 POP POP JUMP JUMPDEST PUSH1 0x20 DUP2 MSTORE PUSH0 PUSH2 0x1091 PUSH1 0x20 DUP4 ADD DUP5 PUSH2 0x206E JUMP JUMPDEST DUP1 CALLDATALOAD PUSH1 0x1 PUSH1 0x1 PUSH1 0xA0 SHL SUB DUP2 AND DUP2 EQ PUSH2 0x20D9 JUMPI PUSH0 DUP1 REVERT JUMPDEST SWAP2 SWAP1 POP JUMP JUMPDEST PUSH0 DUP1 PUSH1 0x40 DUP4 DUP6 SUB SLT ISZERO PUSH2 0x20EF JUMPI PUSH0 DUP1 REVERT JUMPDEST PUSH2 0x20F8 DUP4 PUSH2 0x20C3 JUMP JUMPDEST SWAP5 PUSH1 0x20 SWAP4 SWAP1 SWAP4 ADD CALLDATALOAD SWAP4 POP POP POP JUMP JUMPDEST PUSH0 PUSH1 0x20 DUP3 DUP5 SUB SLT ISZERO PUSH2 0x2116 JUMPI PUSH0 DUP1 REVERT JUMPDEST POP CALLDATALOAD SWAP2 SWAP1 POP JUMP JUMPDEST PUSH0 DUP1 PUSH0 PUSH1 0x60 DUP5 DUP7 SUB SLT ISZERO PUSH2 0x212F JUMPI PUSH0 DUP1 REVERT JUMPDEST PUSH2 0x2138 DUP5 PUSH2 0x20C3 JUMP JUMPDEST SWAP3 POP PUSH2 0x2146 PUSH1 0x20 DUP6 ADD PUSH2 0x20C3 JUMP JUMPDEST SWAP2 POP PUSH1 0x40 DUP5 ADD CALLDATALOAD SWAP1 POP SWAP3 POP SWAP3 POP SWAP3 JUMP JUMPDEST PUSH0 DUP1 PUSH1 0x40 DUP4 DUP6 SUB SLT ISZERO PUSH2 0x2167 JUMPI PUSH0 DUP1 REVERT JUMPDEST DUP3 CALLDATALOAD SWAP2 POP PUSH2 0x2177 PUSH1 0x20 DUP5 ADD PUSH2 0x20C3 JUMP JUMPDEST SWAP1 POP SWAP3 POP SWAP3 SWAP1 POP JUMP JUMPDEST PUSH1 0x1 DUP1 PUSH1 0xA0 SHL SUB DUP7 AND DUP2 MSTORE DUP5 PUSH1 0x20 DUP3 ADD MSTORE PUSH1 0xA0 PUSH1 0x40 DUP3 ADD MSTORE PUSH0 PUSH2 0x21A6 PUSH1 0xA0 DUP4 ADD DUP7 PUSH2 0x206E JUMP JUMPDEST PUSH1 0x60 DUP4 ADD SWAP5 SWAP1 SWAP5 MSTORE POP SWAP1 ISZERO ISZERO PUSH1 0x80 SWAP1 SWAP2 ADD MSTORE SWAP4 SWAP3 POP POP POP JUMP JUMPDEST PUSH0 PUSH1 0x20 DUP3 DUP5 SUB SLT ISZERO PUSH2 0x21CF JUMPI PUSH0 DUP1 REVERT JUMPDEST PUSH2 0x1091 DUP3 PUSH2 0x20C3 JUMP JUMPDEST PUSH0 DUP1 DUP4 PUSH1 0x1F DUP5 ADD SLT PUSH2 0x21E8 JUMPI PUSH0 DUP1 REVERT JUMPDEST POP DUP2 CALLDATALOAD PUSH8 0xFFFFFFFFFFFFFFFF DUP2 GT ISZERO PUSH2 0x21FF JUMPI PUSH0 DUP1 REVERT JUMPDEST PUSH1 0x20 DUP4 ADD SWAP2 POP DUP4 PUSH1 0x20 DUP3 DUP6 ADD ADD GT ISZERO PUSH2 0x2216 JUMPI PUSH0 DUP1 REVERT JUMPDEST SWAP3 POP SWAP3 SWAP1 POP JUMP JUMPDEST PUSH0 DUP1 PUSH0 DUP1 PUSH0 PUSH1 0x80 DUP7 DUP9 SUB SLT ISZERO PUSH2 0x2231 JUMPI PUSH0 DUP1 REVERT JUMPDEST DUP6 CALLDATALOAD SWAP5 POP PUSH2 0x2241 PUSH1 0x20 DUP8 ADD PUSH2 0x20C3 JUMP JUMPDEST SWAP4 POP PUSH1 0x40 DUP7 ADD CALLDATALOAD SWAP3 POP PUSH1 0x60 DUP7 ADD CALLDATALOAD PUSH8 0xFFFFFFFFFFFFFFFF DUP2 GT ISZERO PUSH2 0x2263 JUMPI PUSH0 DUP1 REVERT JUMPDEST PUSH2 0x226F DUP9 DUP3 DUP10 ADD PUSH2 0x21D8 JUMP JUMPDEST SWAP7 SWAP10 SWAP6 SWAP9 POP SWAP4 SWAP7 POP SWAP3 SWAP5 SWAP4 SWAP3 POP POP POP JUMP JUMPDEST PUSH1 0xFF PUSH1 0xF8 SHL DUP9 AND DUP2 MSTORE PUSH0 PUSH1 0x20 PUSH1 0xE0 PUSH1 0x20 DUP5 ADD MSTORE PUSH2 0x22A0 PUSH1 0xE0 DUP5 ADD DUP11 PUSH2 0x206E JUMP JUMPDEST DUP4 DUP2 SUB PUSH1 0x40 DUP6 ADD MSTORE PUSH2 0x22B2 DUP2 DUP11 PUSH2 0x206E JUMP JUMPDEST PUSH1 0x60 DUP6 ADD DUP10 SWAP1 MSTORE PUSH1 0x1 PUSH1 0x1 PUSH1 0xA0 SHL SUB DUP9 AND PUSH1 0x80 DUP7 ADD MSTORE PUSH1 0xA0 DUP6 ADD DUP8 SWAP1 MSTORE DUP5 DUP2 SUB PUSH1 0xC0 DUP7 ADD MSTORE DUP6 MLOAD DUP1 DUP3 MSTORE PUSH1 0x20 DUP1 DUP9 ADD SWAP4 POP SWAP1 SWAP2 ADD SWAP1 PUSH0 JUMPDEST DUP2 DUP2 LT ISZERO PUSH2 0x2305 JUMPI DUP4 MLOAD DUP4 MSTORE SWAP3 DUP5 ADD SWAP3 SWAP2 DUP5 ADD SWAP2 PUSH1 0x1 ADD PUSH2 0x22E9 JUMP JUMPDEST POP SWAP1 SWAP13 SWAP12 POP POP POP POP POP POP POP POP POP POP POP POP JUMP JUMPDEST DUP9 DUP2 MSTORE PUSH1 0x1 PUSH1 0x1 PUSH1 0xA0 SHL SUB DUP9 DUP2 AND PUSH1 0x20 DUP4 ADD MSTORE DUP8 AND PUSH1 0x40 DUP3 ADD MSTORE PUSH1 0x60 DUP2 ADD DUP7 SWAP1 MSTORE PUSH1 0x80 DUP2 ADD DUP6 SWAP1 MSTORE PUSH2 0x100 PUSH1 0xA0 DUP3 ADD DUP2 SWAP1 MSTORE PUSH0 SWAP1 PUSH2 0x2357 DUP4 DUP3 ADD DUP8 PUSH2 0x206E JUMP JUMPDEST PUSH1 0xC0 DUP5 ADD SWAP6 SWAP1 SWAP6 MSTORE POP POP SWAP1 ISZERO ISZERO PUSH1 0xE0 SWAP1 SWAP2 ADD MSTORE SWAP7 SWAP6 POP POP POP POP POP POP JUMP JUMPDEST PUSH0 DUP1 PUSH0 DUP1 PUSH1 0x60 DUP6 DUP8 SUB SLT ISZERO PUSH2 0x2387 JUMPI PUSH0 DUP1 REVERT JUMPDEST DUP5 CALLDATALOAD SWAP4 POP PUSH1 0x20 DUP6 ADD CALLDATALOAD SWAP3 POP PUSH1 0x40 DUP6 ADD CALLDATALOAD PUSH8 0xFFFFFFFFFFFFFFFF DUP2 GT ISZERO PUSH2 0x23AB JUMPI PUSH0 DUP1 REVERT JUMPDEST PUSH2 0x23B7 DUP8 DUP3 DUP9 ADD PUSH2 0x21D8 JUMP JUMPDEST SWAP6 SWAP9 SWAP5 SWAP8 POP SWAP6 POP POP POP POP JUMP JUMPDEST PUSH0 DUP1 PUSH1 0x40 DUP4 DUP6 SUB SLT ISZERO PUSH2 0x23D4 JUMPI PUSH0 DUP1 REVERT JUMPDEST DUP3 CALLDATALOAD SWAP2 POP PUSH1 0x20 DUP4 ADD CALLDATALOAD DUP1 ISZERO ISZERO DUP2 EQ PUSH2 0x23EA JUMPI PUSH0 DUP1 REVERT JUMPDEST DUP1 SWAP2 POP POP SWAP3 POP SWAP3 SWAP1 POP JUMP JUMPDEST PUSH0 DUP1 PUSH0 DUP1 PUSH0 DUP1 PUSH0 PUSH1 0xE0 DUP9 DUP11 SUB SLT ISZERO PUSH2 0x240B JUMPI PUSH0 DUP1 REVERT JUMPDEST PUSH2 0x2414 DUP9 PUSH2 0x20C3 JUMP JUMPDEST SWAP7 POP PUSH2 0x2422 PUSH1 0x20 DUP10 ADD PUSH2 0x20C3 JUMP JUMPDEST SWAP6 POP PUSH1 0x40 DUP9 ADD CALLDATALOAD SWAP5 POP PUSH1 0x60 DUP9 ADD CALLDATALOAD SWAP4 POP PUSH1 0x80 DUP9 ADD CALLDATALOAD PUSH1 0xFF DUP2 AND DUP2 EQ PUSH2 0x2445 JUMPI PUSH0 DUP1 REVERT JUMPDEST SWAP7 SWAP10 SWAP6 SWAP9 POP SWAP4 SWAP7 SWAP3 SWAP6 SWAP5 PUSH1 0xA0 DUP5 ADD CALLDATALOAD SWAP5 POP PUSH1 0xC0 SWAP1 SWAP4 ADD CALLDATALOAD SWAP3 SWAP2 POP POP JUMP JUMPDEST PUSH0 DUP1 PUSH1 0x40 DUP4 DUP6 SUB SLT ISZERO PUSH2 0x2473 JUMPI PUSH0 DUP1 REVERT JUMPDEST PUSH2 0x247C DUP4 PUSH2 0x20C3 JUMP JUMPDEST SWAP2 POP PUSH2 0x2177 PUSH1 0x20 DUP5 ADD PUSH2 0x20C3 JUMP JUMPDEST PUSH1 0x1 DUP2 DUP2 SHR SWAP1 DUP3 AND DUP1 PUSH2 0x249E JUMPI PUSH1 0x7F DUP3 AND SWAP2 POP JUMPDEST PUSH1 0x20 DUP3 LT DUP2 SUB PUSH2 0x24BC JUMPI PUSH4 0x4E487B71 PUSH1 0xE0 SHL PUSH0 MSTORE PUSH1 0x22 PUSH1 0x4 MSTORE PUSH1 0x24 PUSH0 REVERT JUMPDEST POP SWAP2 SWAP1 POP JUMP JUMPDEST PUSH4 0x4E487B71 PUSH1 0xE0 SHL PUSH0 MSTORE PUSH1 0x11 PUSH1 0x4 MSTORE PUSH1 0x24 PUSH0 REVERT JUMPDEST DUP1 DUP3 ADD DUP1 DUP3 GT ISZERO PUSH2 0x61F JUMPI PUSH2 0x61F PUSH2 0x24C2 JUMP JUMPDEST DUP1 DUP3 MUL DUP2 ISZERO DUP3 DUP3 DIV DUP5 EQ OR PUSH2 0x61F JUMPI PUSH2 0x61F PUSH2 0x24C2 JUMP JUMPDEST DUP2 DUP2 SUB DUP2 DUP2 GT ISZERO PUSH2 0x61F JUMPI PUSH2 0x61F PUSH2 0x24C2 JUMP JUMPDEST PUSH4 0x4E487B71 PUSH1 0xE0 SHL PUSH0 MSTORE PUSH1 0x41 PUSH1 0x4 MSTORE PUSH1 0x24 PUSH0 REVERT JUMPDEST PUSH1 0x1F DUP3 GT ISZERO PUSH2 0x83B JUMPI DUP1 PUSH0 MSTORE PUSH1 0x20 PUSH0 KECCAK256 PUSH1 0x1F DUP5 ADD PUSH1 0x5 SHR DUP2 ADD PUSH1 0x20 DUP6 LT ISZERO PUSH2 0x254C JUMPI POP DUP1 JUMPDEST PUSH1 0x1F DUP5 ADD PUSH1 0x5 SHR DUP3 ADD SWAP2 POP JUMPDEST DUP2 DUP2 LT ISZERO PUSH2 0x256B JUMPI PUSH0 DUP2 SSTORE PUSH1 0x1 ADD PUSH2 0x2558 JUMP JUMPDEST POP POP POP POP POP JUMP JUMPDEST DUP2 MLOAD PUSH8 0xFFFFFFFFFFFFFFFF DUP2 GT ISZERO PUSH2 0x258C JUMPI PUSH2 0x258C PUSH2 0x2513 JUMP JUMPDEST PUSH2 0x25A0 DUP2 PUSH2 0x259A DUP5 SLOAD PUSH2 0x248A JUMP JUMPDEST DUP5 PUSH2 0x2527 JUMP JUMPDEST PUSH1 0x20 DUP1 PUSH1 0x1F DUP4 GT PUSH1 0x1 DUP2 EQ PUSH2 0x25D3 JUMPI PUSH0 DUP5 ISZERO PUSH2 0x25BC JUMPI POP DUP6 DUP4 ADD MLOAD JUMPDEST PUSH0 NOT PUSH1 0x3 DUP7 SWAP1 SHL SHR NOT AND PUSH1 0x1 DUP6 SWAP1 SHL OR DUP6 SSTORE PUSH2 0xCE1 JUMP JUMPDEST PUSH0 DUP6 DUP2 MSTORE PUSH1 0x20 DUP2 KECCAK256 PUSH1 0x1F NOT DUP7 AND SWAP2 JUMPDEST DUP3 DUP2 LT ISZERO PUSH2 0x2601 JUMPI DUP9 DUP7 ADD MLOAD DUP3 SSTORE SWAP5 DUP5 ADD SWAP5 PUSH1 0x1 SWAP1 SWAP2 ADD SWAP1 DUP5 ADD PUSH2 0x25E2 JUMP JUMPDEST POP DUP6 DUP3 LT ISZERO PUSH2 0x261E JUMPI DUP8 DUP6 ADD MLOAD PUSH0 NOT PUSH1 0x3 DUP9 SWAP1 SHL PUSH1 0xF8 AND SHR NOT AND DUP2 SSTORE JUMPDEST POP POP POP POP POP PUSH1 0x1 SWAP1 DUP2 SHL ADD SWAP1 SSTORE POP JUMP JUMPDEST DUP5 DUP2 MSTORE DUP4 PUSH1 0x20 DUP3 ADD MSTORE PUSH1 0x60 PUSH1 0x40 DUP3 ADD MSTORE DUP2 PUSH1 0x60 DUP3 ADD MSTORE DUP2 DUP4 PUSH1 0x80 DUP4 ADD CALLDATACOPY PUSH0 DUP2 DUP4 ADD PUSH1 0x80 SWAP1 DUP2 ADD SWAP2 SWAP1 SWAP2 MSTORE PUSH1 0x1F SWAP1 SWAP3 ADD PUSH1 0x1F NOT AND ADD ADD SWAP4 SWAP3 POP POP POP JUMP JUMPDEST DUP4 DUP2 MSTORE DUP3 PUSH1 0x20 DUP3 ADD MSTORE PUSH1 0x60 PUSH1 0x40 DUP3 ADD MSTORE PUSH0 PUSH2 0x2688 PUSH1 0x60 DUP4 ADD DUP5 PUSH2 0x206E JUMP JUMPDEST SWAP6 SWAP5 POP POP POP POP POP JUMP JUMPDEST PUSH0 DUP3 PUSH2 0x26AB JUMPI PUSH4 0x4E487B71 PUSH1 0xE0 SHL PUSH0 MSTORE PUSH1 0x12 PUSH1 0x4 MSTORE PUSH1 0x24 PUSH0 REVERT JUMPDEST POP DIV SWAP1 JUMP JUMPDEST PUSH4 0x4E487B71 PUSH1 0xE0 SHL PUSH0 MSTORE PUSH1 0x21 PUSH1 0x4 MSTORE PUSH1 0x24 PUSH0 REVERT INVALID SWAP12 PUSH24 0x9B17422D0DF92223018B32B4D1FA46E071723D6817E2486D STOP EXTCODESIZE 0xEC 0xC5 PUSH0 STOP LOG2 PUSH5 0x6970667358 0x22 SLT KECCAK256 0x29 DUP1 0xB4 0xA5 0xA6 BALANCE SWAP7 EQ 0xE2 DUP15 CALLDATACOPY 0xB1 PUSH32 0xB32440D85EE60D07CA5846244C9BC06CE5D2D064736F6C634300081800330000 "},"methodIdentifiers":{"DEFAULT_ADMIN_ROLE()":"a217fddf","DOMAIN_SEPARATOR()":"3644e515","MINTER_ROLE()":"d5391393","PAUSER_ROLE()":"e63ab1e9","VERIFIER_ROLE()":"e7705db6","allowance(address,address)":"dd62ed3e","approve(address,uint256)":"095ea7b3","balanceOf(address)":"70a08231","burn(uint256)":"42966c68","burnFrom(address,uint256)":"79cc6790","decimals()":"313ce567","eip712Domain()":"84b0196e","eventIds(uint256)":"998f6ac0","getRoleAdmin(bytes32)":"248a9ca3","grantRole(bytes32,address)":"2f2ff15d","hasRole(bytes32,address)":"91d14854","mintForReduction(bytes32,address,uint256,string)":"76ff2eda","name()":"06fdde03","nonces(address)":"7ecebe00","pause()":"8456cb59","paused()":"5c975abb","pendingClaims(bytes32)":"5e86f506","permit(address,address,uint256,uint256,uint8,bytes32,bytes32)":"d505accf","reductionEvents(bytes32)":"96107979","remainingYearlyQuota(address)":"bb85ee0e","renounceRole(bytes32,address)":"36568abe","retireCredits(uint256)":"2039e339","revokeRole(bytes32,address)":"d547741f","setYearlyMintCap(uint256)":"623ea019","submitClaim(bytes32,uint256,string)":"b38f37c4","supportsInterface(bytes4)":"01ffc9a7","symbol()":"95d89b41","totalEvents()":"ba870686","totalReductionKg()":"b6fb8d45","totalRetiredCredits()":"d05b9d8e","totalSupply()":"18160ddd","transfer(address,uint256)":"a9059cbb","transferFrom(address,address,uint256)":"23b872dd","unpause()":"3f4ba83a","verifyClaim(bytes32,bool)":"c308b92c","yearlyMintCap()":"0a24c5bb","yearlyMinted(address,uint256)":"5c3822dd"}}}}}